{
  "contractName": "MoviesNFT",
  "abi": [
    {
      "inputs": [
        {
          "internalType": "address",
          "name": "owner",
          "type": "address"
        }
      ],
      "stateMutability": "nonpayable",
      "type": "constructor"
    },
    {
      "anonymous": false,
      "inputs": [
        {
          "indexed": true,
          "internalType": "address",
          "name": "owner",
          "type": "address"
        },
        {
          "indexed": true,
          "internalType": "address",
          "name": "approved",
          "type": "address"
        },
        {
          "indexed": true,
          "internalType": "uint256",
          "name": "tokenId",
          "type": "uint256"
        }
      ],
      "name": "Approval",
      "type": "event"
    },
    {
      "anonymous": false,
      "inputs": [
        {
          "indexed": true,
          "internalType": "address",
          "name": "owner",
          "type": "address"
        },
        {
          "indexed": true,
          "internalType": "address",
          "name": "operator",
          "type": "address"
        },
        {
          "indexed": false,
          "internalType": "bool",
          "name": "approved",
          "type": "bool"
        }
      ],
      "name": "ApprovalForAll",
      "type": "event"
    },
    {
      "anonymous": false,
      "inputs": [
        {
          "indexed": true,
          "internalType": "address",
          "name": "from",
          "type": "address"
        },
        {
          "indexed": true,
          "internalType": "address",
          "name": "to",
          "type": "address"
        },
        {
          "indexed": true,
          "internalType": "uint256",
          "name": "tokenId",
          "type": "uint256"
        }
      ],
      "name": "Transfer",
      "type": "event"
    },
    {
      "inputs": [
        {
          "internalType": "address",
          "name": "to",
          "type": "address"
        },
        {
          "internalType": "uint256",
          "name": "tokenId",
          "type": "uint256"
        }
      ],
      "name": "approve",
      "outputs": [],
      "stateMutability": "nonpayable",
      "type": "function"
    },
    {
      "inputs": [
        {
          "internalType": "address",
          "name": "owner",
          "type": "address"
        }
      ],
      "name": "balanceOf",
      "outputs": [
        {
          "internalType": "uint256",
          "name": "",
          "type": "uint256"
        }
      ],
      "stateMutability": "view",
      "type": "function",
      "constant": true
    },
    {
      "inputs": [
        {
          "internalType": "uint256",
          "name": "tokenId",
          "type": "uint256"
        }
      ],
      "name": "getApproved",
      "outputs": [
        {
          "internalType": "address",
          "name": "",
          "type": "address"
        }
      ],
      "stateMutability": "view",
      "type": "function",
      "constant": true
    },
    {
      "inputs": [
        {
          "internalType": "address",
          "name": "owner",
          "type": "address"
        },
        {
          "internalType": "address",
          "name": "operator",
          "type": "address"
        }
      ],
      "name": "isApprovedForAll",
      "outputs": [
        {
          "internalType": "bool",
          "name": "",
          "type": "bool"
        }
      ],
      "stateMutability": "view",
      "type": "function",
      "constant": true
    },
    {
      "inputs": [],
      "name": "name",
      "outputs": [
        {
          "internalType": "string",
          "name": "",
          "type": "string"
        }
      ],
      "stateMutability": "view",
      "type": "function",
      "constant": true
    },
    {
      "inputs": [
        {
          "internalType": "uint256",
          "name": "tokenId",
          "type": "uint256"
        }
      ],
      "name": "ownerOf",
      "outputs": [
        {
          "internalType": "address",
          "name": "",
          "type": "address"
        }
      ],
      "stateMutability": "view",
      "type": "function",
      "constant": true
    },
    {
      "inputs": [
        {
          "internalType": "address",
          "name": "from",
          "type": "address"
        },
        {
          "internalType": "address",
          "name": "to",
          "type": "address"
        },
        {
          "internalType": "uint256",
          "name": "tokenId",
          "type": "uint256"
        }
      ],
      "name": "safeTransferFrom",
      "outputs": [],
      "stateMutability": "nonpayable",
      "type": "function"
    },
    {
      "inputs": [
        {
          "internalType": "address",
          "name": "from",
          "type": "address"
        },
        {
          "internalType": "address",
          "name": "to",
          "type": "address"
        },
        {
          "internalType": "uint256",
          "name": "tokenId",
          "type": "uint256"
        },
        {
          "internalType": "bytes",
          "name": "data",
          "type": "bytes"
        }
      ],
      "name": "safeTransferFrom",
      "outputs": [],
      "stateMutability": "nonpayable",
      "type": "function"
    },
    {
      "inputs": [
        {
          "internalType": "address",
          "name": "operator",
          "type": "address"
        },
        {
          "internalType": "bool",
          "name": "approved",
          "type": "bool"
        }
      ],
      "name": "setApprovalForAll",
      "outputs": [],
      "stateMutability": "nonpayable",
      "type": "function"
    },
    {
      "inputs": [
        {
          "internalType": "bytes4",
          "name": "interfaceId",
          "type": "bytes4"
        }
      ],
      "name": "supportsInterface",
      "outputs": [
        {
          "internalType": "bool",
          "name": "",
          "type": "bool"
        }
      ],
      "stateMutability": "view",
      "type": "function",
      "constant": true
    },
    {
      "inputs": [],
      "name": "symbol",
      "outputs": [
        {
          "internalType": "string",
          "name": "",
          "type": "string"
        }
      ],
      "stateMutability": "view",
      "type": "function",
      "constant": true
    },
    {
      "inputs": [
        {
          "internalType": "uint256",
          "name": "tokenId",
          "type": "uint256"
        }
      ],
      "name": "tokenURI",
      "outputs": [
        {
          "internalType": "string",
          "name": "",
          "type": "string"
        }
      ],
      "stateMutability": "view",
      "type": "function",
      "constant": true
    },
    {
      "inputs": [
        {
          "internalType": "address",
          "name": "from",
          "type": "address"
        },
        {
          "internalType": "address",
          "name": "to",
          "type": "address"
        },
        {
          "internalType": "uint256",
          "name": "tokenId",
          "type": "uint256"
        }
      ],
      "name": "transferFrom",
      "outputs": [],
      "stateMutability": "nonpayable",
      "type": "function"
    },
    {
      "inputs": [
        {
          "internalType": "string",
          "name": "name",
          "type": "string"
        },
        {
          "internalType": "string",
          "name": "description",
          "type": "string"
        },
        {
          "internalType": "string",
          "name": "ipfsHash",
          "type": "string"
        }
      ],
      "name": "createMovieNft",
      "outputs": [],
      "stateMutability": "nonpayable",
      "type": "function"
    },
    {
      "inputs": [],
      "name": "getAllMovies",
      "outputs": [
        {
          "components": [
            {
              "internalType": "uint256",
              "name": "movieNumber",
              "type": "uint256"
            },
            {
              "internalType": "string",
              "name": "movieName",
              "type": "string"
            },
            {
              "internalType": "string",
              "name": "movieDescription",
              "type": "string"
            },
            {
              "internalType": "string",
              "name": "ipfsHash",
              "type": "string"
            }
          ],
          "internalType": "struct MoviesNFT.movieData[]",
          "name": "",
          "type": "tuple[]"
        }
      ],
      "stateMutability": "view",
      "type": "function",
      "constant": true
    },
    {
      "inputs": [
        {
          "internalType": "uint256",
          "name": "_movieNum",
          "type": "uint256"
        }
      ],
      "name": "getMovieByNumber",
      "outputs": [
        {
          "internalType": "uint256",
          "name": "",
          "type": "uint256"
        },
        {
          "internalType": "string",
          "name": "",
          "type": "string"
        },
        {
          "internalType": "string",
          "name": "",
          "type": "string"
        },
        {
          "internalType": "string",
          "name": "",
          "type": "string"
        }
      ],
      "stateMutability": "view",
      "type": "function",
      "constant": true
    }
  ],
  "bytecode": "0x608060405264174876e80060075560016008553480156200001f57600080fd5b5060405162003a1938038062003a19833981810160405281019062000045919062000189565b6040518060400160405280600881526020017f4d6f7669654e46540000000000000000000000000000000000000000000000008152506040518060400160405280600481526020017f4d4e4654000000000000000000000000000000000000000000000000000000008152508160009081620000c2919062000435565b508060019081620000d4919062000435565b50505080600960006101000a81548173ffffffffffffffffffffffffffffffffffffffff021916908373ffffffffffffffffffffffffffffffffffffffff160217905550506200051c565b600080fd5b600073ffffffffffffffffffffffffffffffffffffffff82169050919050565b6000620001518262000124565b9050919050565b620001638162000144565b81146200016f57600080fd5b50565b600081519050620001838162000158565b92915050565b600060208284031215620001a257620001a16200011f565b5b6000620001b28482850162000172565b91505092915050565b600081519050919050565b7f4e487b7100000000000000000000000000000000000000000000000000000000600052604160045260246000fd5b7f4e487b7100000000000000000000000000000000000000000000000000000000600052602260045260246000fd5b600060028204905060018216806200023d57607f821691505b602082108103620002535762000252620001f5565b5b50919050565b60008190508160005260206000209050919050565b60006020601f8301049050919050565b600082821b905092915050565b600060088302620002bd7fffffffffffffffffffffffffffffffffffffffffffffffffffffffffffffffff826200027e565b620002c986836200027e565b95508019841693508086168417925050509392505050565b6000819050919050565b6000819050919050565b600062000316620003106200030a84620002e1565b620002eb565b620002e1565b9050919050565b6000819050919050565b6200033283620002f5565b6200034a62000341826200031d565b8484546200028b565b825550505050565b600090565b6200036162000352565b6200036e81848462000327565b505050565b5b8181101562000396576200038a60008262000357565b60018101905062000374565b5050565b601f821115620003e557620003af8162000259565b620003ba846200026e565b81016020851015620003ca578190505b620003e2620003d9856200026e565b83018262000373565b50505b505050565b600082821c905092915050565b60006200040a60001984600802620003ea565b1980831691505092915050565b6000620004258383620003f7565b9150826002028217905092915050565b6200044082620001bb565b67ffffffffffffffff8111156200045c576200045b620001c6565b5b62000468825462000224565b620004758282856200039a565b600060209050601f831160018114620004ad576000841562000498578287015190505b620004a4858262000417565b86555062000514565b601f198416620004bd8662000259565b60005b82811015620004e757848901518255600182019150602085019450602081019050620004c0565b8683101562000507578489015162000503601f891682620003f7565b8355505b6001600288020188555050505b505050505050565b6134ed806200052c6000396000f3fe608060405234801561001057600080fd5b50600436106101005760003560e01c806370a0823111610097578063c87b56dd11610066578063c87b56dd146102a9578063de5d9f3e146102d9578063e16f00651461030c578063e985e9c51461032a57610100565b806370a082311461022357806395d89b4114610253578063a22cb46514610271578063b88d4fde1461028d57610100565b806323b872dd116100d357806323b872dd1461019f57806342842e0e146101bb578063505db3af146101d75780636352211e146101f357610100565b806301ffc9a71461010557806306fdde0314610135578063081812fc14610153578063095ea7b314610183575b600080fd5b61011f600480360381019061011a919061207b565b61035a565b60405161012c91906120c3565b60405180910390f35b61013d61043c565b60405161014a919061216e565b60405180910390f35b61016d600480360381019061016891906121c6565b6104ce565b60405161017a9190612234565b60405180910390f35b61019d6004803603810190610198919061227b565b610514565b005b6101b960048036038101906101b491906122bb565b61062b565b005b6101d560048036038101906101d091906122bb565b61068b565b005b6101f160048036038101906101ec9190612443565b6106ab565b005b61020d600480360381019061020891906121c6565b6107dc565b60405161021a9190612234565b60405180910390f35b61023d600480360381019061023891906124ea565b610862565b60405161024a9190612526565b60405180910390f35b61025b610919565b604051610268919061216e565b60405180910390f35b61028b6004803603810190610286919061256d565b6109ab565b005b6102a760048036038101906102a2919061264e565b6109c1565b005b6102c360048036038101906102be91906121c6565b610a23565b6040516102d0919061216e565b60405180910390f35b6102f360048036038101906102ee91906121c6565b610b35565b60405161030394939291906126d1565b60405180910390f35b610314610e12565b60405161032191906128b7565b60405180910390f35b610344600480360381019061033f91906128d9565b611031565b60405161035191906120c3565b60405180910390f35b60007f80ac58cd000000000000000000000000000000000000000000000000000000007bffffffffffffffffffffffffffffffffffffffffffffffffffffffff1916827bffffffffffffffffffffffffffffffffffffffffffffffffffffffff1916148061042557507f5b5e139f000000000000000000000000000000000000000000000000000000007bffffffffffffffffffffffffffffffffffffffffffffffffffffffff1916827bffffffffffffffffffffffffffffffffffffffffffffffffffffffff1916145b806104355750610434826110c5565b5b9050919050565b60606000805461044b90612948565b80601f016020809104026020016040519081016040528092919081815260200182805461047790612948565b80156104c45780601f10610499576101008083540402835291602001916104c4565b820191906000526020600020905b8154815290600101906020018083116104a757829003601f168201915b5050505050905090565b60006104d98261112f565b6004600083815260200190815260200160002060009054906101000a900473ffffffffffffffffffffffffffffffffffffffff169050919050565b600061051f826107dc565b90508073ffffffffffffffffffffffffffffffffffffffff168373ffffffffffffffffffffffffffffffffffffffff160361058f576040517f08c379a0000000000000000000000000000000000000000000000000000000008152600401610586906129eb565b60405180910390fd5b8073ffffffffffffffffffffffffffffffffffffffff166105ae61117a565b73ffffffffffffffffffffffffffffffffffffffff1614806105dd57506105dc816105d761117a565b611031565b5b61061c576040517f08c379a000000000000000000000000000000000000000000000000000000000815260040161061390612a7d565b60405180910390fd5b6106268383611182565b505050565b61063c61063661117a565b8261123b565b61067b576040517f08c379a000000000000000000000000000000000000000000000000000000000815260040161067290612b0f565b60405180910390fd5b6106868383836112d0565b505050565b6106a6838383604051806020016040528060008152506109c1565b505050565b600960009054906101000a900473ffffffffffffffffffffffffffffffffffffffff1673ffffffffffffffffffffffffffffffffffffffff163373ffffffffffffffffffffffffffffffffffffffff161461070557600080fd5b600060405180608001604052806008548152602001858152602001848152602001838152509050600a8190806001815401808255809150506001900390600052602060002090600402016000909190919091506000820151816000015560208201518160010190816107779190612cdb565b50604082015181600201908161078d9190612cdb565b5060608201518160030190816107a39190612cdb565b5050506107b2336008546115c9565b6107be600854836117e6565b600860008154809291906107d190612ddc565b919050555050505050565b6000806107e883611853565b9050600073ffffffffffffffffffffffffffffffffffffffff168173ffffffffffffffffffffffffffffffffffffffff1603610859576040517f08c379a000000000000000000000000000000000000000000000000000000000815260040161085090612e70565b60405180910390fd5b80915050919050565b60008073ffffffffffffffffffffffffffffffffffffffff168273ffffffffffffffffffffffffffffffffffffffff16036108d2576040517f08c379a00000000000000000000000000000000000000000000000000000000081526004016108c990612f02565b60405180910390fd5b600360008373ffffffffffffffffffffffffffffffffffffffff1673ffffffffffffffffffffffffffffffffffffffff168152602001908152602001600020549050919050565b60606001805461092890612948565b80601f016020809104026020016040519081016040528092919081815260200182805461095490612948565b80156109a15780601f10610976576101008083540402835291602001916109a1565b820191906000526020600020905b81548152906001019060200180831161098457829003601f168201915b5050505050905090565b6109bd6109b661117a565b8383611890565b5050565b6109d26109cc61117a565b8361123b565b610a11576040517f08c379a0000000000000000000000000000000000000000000000000000000008152600401610a0890612b0f565b60405180910390fd5b610a1d848484846119fc565b50505050565b6060610a2e8261112f565b6000600660008481526020019081526020016000208054610a4e90612948565b80601f0160208091040260200160405190810160405280929190818152602001828054610a7a90612948565b8015610ac75780601f10610a9c57610100808354040283529160200191610ac7565b820191906000526020600020905b815481529060010190602001808311610aaa57829003601f168201915b505050505090506000610ad8611a58565b90506000815103610aed578192505050610b30565b600082511115610b22578082604051602001610b0a929190612f5e565b60405160208183030381529060405292505050610b30565b610b2b84611a6f565b925050505b919050565b6000606080606060005b600854811015610dcf5785600a8281548110610b5e57610b5d612f82565b5b90600052602060002090600402016000015403610dbc57600a8181548110610b8957610b88612f82565b5b906000526020600020906004020160000154600a8281548110610baf57610bae612f82565b5b9060005260206000209060040201600101600a8381548110610bd457610bd3612f82565b5b9060005260206000209060040201600201600a8481548110610bf957610bf8612f82565b5b9060005260206000209060040201600301828054610c1690612948565b80601f0160208091040260200160405190810160405280929190818152602001828054610c4290612948565b8015610c8f5780601f10610c6457610100808354040283529160200191610c8f565b820191906000526020600020905b815481529060010190602001808311610c7257829003601f168201915b50505050509250818054610ca290612948565b80601f0160208091040260200160405190810160405280929190818152602001828054610cce90612948565b8015610d1b5780601f10610cf057610100808354040283529160200191610d1b565b820191906000526020600020905b815481529060010190602001808311610cfe57829003601f168201915b50505050509150808054610d2e90612948565b80601f0160208091040260200160405190810160405280929190818152602001828054610d5a90612948565b8015610da75780601f10610d7c57610100808354040283529160200191610da7565b820191906000526020600020905b815481529060010190602001808311610d8a57829003601f168201915b50505050509050945094509450945050610e0b565b8080610dc790612ddc565b915050610b3f565b50600060405180602001604052806000815250604051806020016040528060008152506040518060200160405280600081525093509350935093505b9193509193565b6060600a805480602002602001604051908101604052809291908181526020016000905b82821015611028578382906000526020600020906004020160405180608001604052908160008201548152602001600182018054610e7390612948565b80601f0160208091040260200160405190810160405280929190818152602001828054610e9f90612948565b8015610eec5780601f10610ec157610100808354040283529160200191610eec565b820191906000526020600020905b815481529060010190602001808311610ecf57829003601f168201915b50505050508152602001600282018054610f0590612948565b80601f0160208091040260200160405190810160405280929190818152602001828054610f3190612948565b8015610f7e5780601f10610f5357610100808354040283529160200191610f7e565b820191906000526020600020905b815481529060010190602001808311610f6157829003601f168201915b50505050508152602001600382018054610f9790612948565b80601f0160208091040260200160405190810160405280929190818152602001828054610fc390612948565b80156110105780601f10610fe557610100808354040283529160200191611010565b820191906000526020600020905b815481529060010190602001808311610ff357829003601f168201915b50505050508152505081526020019060010190610e36565b50505050905090565b6000600560008473ffffffffffffffffffffffffffffffffffffffff1673ffffffffffffffffffffffffffffffffffffffff16815260200190815260200160002060008373ffffffffffffffffffffffffffffffffffffffff1673ffffffffffffffffffffffffffffffffffffffff16815260200190815260200160002060009054906101000a900460ff16905092915050565b60007f01ffc9a7000000000000000000000000000000000000000000000000000000007bffffffffffffffffffffffffffffffffffffffffffffffffffffffff1916827bffffffffffffffffffffffffffffffffffffffffffffffffffffffff1916149050919050565b61113881611ad7565b611177576040517f08c379a000000000000000000000000000000000000000000000000000000000815260040161116e90612e70565b60405180910390fd5b50565b600033905090565b816004600083815260200190815260200160002060006101000a81548173ffffffffffffffffffffffffffffffffffffffff021916908373ffffffffffffffffffffffffffffffffffffffff160217905550808273ffffffffffffffffffffffffffffffffffffffff166111f5836107dc565b73ffffffffffffffffffffffffffffffffffffffff167f8c5be1e5ebec7d5bd14f71427d1e84f3dd0314c0f7b2291e5b200ac8c7c3b92560405160405180910390a45050565b600080611247836107dc565b90508073ffffffffffffffffffffffffffffffffffffffff168473ffffffffffffffffffffffffffffffffffffffff16148061128957506112888185611031565b5b806112c757508373ffffffffffffffffffffffffffffffffffffffff166112af846104ce565b73ffffffffffffffffffffffffffffffffffffffff16145b91505092915050565b8273ffffffffffffffffffffffffffffffffffffffff166112f0826107dc565b73ffffffffffffffffffffffffffffffffffffffff1614611346576040517f08c379a000000000000000000000000000000000000000000000000000000000815260040161133d90613023565b60405180910390fd5b600073ffffffffffffffffffffffffffffffffffffffff168273ffffffffffffffffffffffffffffffffffffffff16036113b5576040517f08c379a00000000000000000000000000000000000000000000000000000000081526004016113ac906130b5565b60405180910390fd5b6113c28383836001611b18565b8273ffffffffffffffffffffffffffffffffffffffff166113e2826107dc565b73ffffffffffffffffffffffffffffffffffffffff1614611438576040517f08c379a000000000000000000000000000000000000000000000000000000000815260040161142f90613023565b60405180910390fd5b6004600082815260200190815260200160002060006101000a81549073ffffffffffffffffffffffffffffffffffffffff02191690556001600360008573ffffffffffffffffffffffffffffffffffffffff1673ffffffffffffffffffffffffffffffffffffffff168152602001908152602001600020600082825403925050819055506001600360008473ffffffffffffffffffffffffffffffffffffffff1673ffffffffffffffffffffffffffffffffffffffff16815260200190815260200160002060008282540192505081905550816002600083815260200190815260200160002060006101000a81548173ffffffffffffffffffffffffffffffffffffffff021916908373ffffffffffffffffffffffffffffffffffffffff160217905550808273ffffffffffffffffffffffffffffffffffffffff168473ffffffffffffffffffffffffffffffffffffffff167fddf252ad1be2c89b69c2b068fc378daa952ba7f163c4a11628f55a4df523b3ef60405160405180910390a46115c48383836001611c3e565b505050565b600073ffffffffffffffffffffffffffffffffffffffff168273ffffffffffffffffffffffffffffffffffffffff1603611638576040517f08c379a000000000000000000000000000000000000000000000000000000000815260040161162f90613121565b60405180910390fd5b61164181611ad7565b15611681576040517f08c379a00000000000000000000000000000000000000000000000000000000081526004016116789061318d565b60405180910390fd5b61168f600083836001611b18565b61169881611ad7565b156116d8576040517f08c379a00000000000000000000000000000000000000000000000000000000081526004016116cf9061318d565b60405180910390fd5b6001600360008473ffffffffffffffffffffffffffffffffffffffff1673ffffffffffffffffffffffffffffffffffffffff16815260200190815260200160002060008282540192505081905550816002600083815260200190815260200160002060006101000a81548173ffffffffffffffffffffffffffffffffffffffff021916908373ffffffffffffffffffffffffffffffffffffffff160217905550808273ffffffffffffffffffffffffffffffffffffffff16600073ffffffffffffffffffffffffffffffffffffffff167fddf252ad1be2c89b69c2b068fc378daa952ba7f163c4a11628f55a4df523b3ef60405160405180910390a46117e2600083836001611c3e565b5050565b6117ef82611ad7565b61182e576040517f08c379a00000000000000000000000000000000000000000000000000000000081526004016118259061321f565b60405180910390fd5b8060066000848152602001908152602001600020908161184e9190612cdb565b505050565b60006002600083815260200190815260200160002060009054906101000a900473ffffffffffffffffffffffffffffffffffffffff169050919050565b8173ffffffffffffffffffffffffffffffffffffffff168373ffffffffffffffffffffffffffffffffffffffff16036118fe576040517f08c379a00000000000000000000000000000000000000000000000000000000081526004016118f59061328b565b60405180910390fd5b80600560008573ffffffffffffffffffffffffffffffffffffffff1673ffffffffffffffffffffffffffffffffffffffff16815260200190815260200160002060008473ffffffffffffffffffffffffffffffffffffffff1673ffffffffffffffffffffffffffffffffffffffff16815260200190815260200160002060006101000a81548160ff0219169083151502179055508173ffffffffffffffffffffffffffffffffffffffff168373ffffffffffffffffffffffffffffffffffffffff167f17307eab39ab6107e8899845ad3d59bd9653f200f220920489ca2b5937696c31836040516119ef91906120c3565b60405180910390a3505050565b611a078484846112d0565b611a1384848484611c44565b611a52576040517f08c379a0000000000000000000000000000000000000000000000000000000008152600401611a499061331d565b60405180910390fd5b50505050565b606060405180602001604052806000815250905090565b6060611a7a8261112f565b6000611a84611a58565b90506000815111611aa45760405180602001604052806000815250611acf565b80611aae84611dcb565b604051602001611abf929190612f5e565b6040516020818303038152906040525b915050919050565b60008073ffffffffffffffffffffffffffffffffffffffff16611af983611853565b73ffffffffffffffffffffffffffffffffffffffff1614159050919050565b6001811115611c3857600073ffffffffffffffffffffffffffffffffffffffff168473ffffffffffffffffffffffffffffffffffffffff1614611bac5780600360008673ffffffffffffffffffffffffffffffffffffffff1673ffffffffffffffffffffffffffffffffffffffff1681526020019081526020016000206000828254611ba4919061333d565b925050819055505b600073ffffffffffffffffffffffffffffffffffffffff168373ffffffffffffffffffffffffffffffffffffffff1614611c375780600360008573ffffffffffffffffffffffffffffffffffffffff1673ffffffffffffffffffffffffffffffffffffffff1681526020019081526020016000206000828254611c2f9190613371565b925050819055505b5b50505050565b50505050565b6000611c658473ffffffffffffffffffffffffffffffffffffffff16611e99565b15611dbe578373ffffffffffffffffffffffffffffffffffffffff1663150b7a02611c8e61117a565b8786866040518563ffffffff1660e01b8152600401611cb094939291906133fa565b6020604051808303816000875af1925050508015611cec57506040513d601f19601f82011682018060405250810190611ce9919061345b565b60015b611d6e573d8060008114611d1c576040519150601f19603f3d011682016040523d82523d6000602084013e611d21565b606091505b506000815103611d66576040517f08c379a0000000000000000000000000000000000000000000000000000000008152600401611d5d9061331d565b60405180910390fd5b805181602001fd5b63150b7a0260e01b7bffffffffffffffffffffffffffffffffffffffffffffffffffffffff1916817bffffffffffffffffffffffffffffffffffffffffffffffffffffffff191614915050611dc3565b600190505b949350505050565b606060006001611dda84611ebc565b01905060008167ffffffffffffffff811115611df957611df8612318565b5b6040519080825280601f01601f191660200182016040528015611e2b5781602001600182028036833780820191505090505b509050600082602001820190505b600115611e8e578080600190039150507f3031323334353637383961626364656600000000000000000000000000000000600a86061a8153600a8581611e8257611e81613488565b5b04945060008503611e39575b819350505050919050565b6000808273ffffffffffffffffffffffffffffffffffffffff163b119050919050565b600080600090507a184f03e93ff9f4daa797ed6e38ed64bf6a1f0100000000000000008310611f1a577a184f03e93ff9f4daa797ed6e38ed64bf6a1f0100000000000000008381611f1057611f0f613488565b5b0492506040810190505b6d04ee2d6d415b85acef81000000008310611f57576d04ee2d6d415b85acef81000000008381611f4d57611f4c613488565b5b0492506020810190505b662386f26fc100008310611f8657662386f26fc100008381611f7c57611f7b613488565b5b0492506010810190505b6305f5e1008310611faf576305f5e1008381611fa557611fa4613488565b5b0492506008810190505b6127108310611fd4576127108381611fca57611fc9613488565b5b0492506004810190505b60648310611ff75760648381611fed57611fec613488565b5b0492506002810190505b600a8310612006576001810190505b80915050919050565b6000604051905090565b600080fd5b600080fd5b60007fffffffff0000000000000000000000000000000000000000000000000000000082169050919050565b61205881612023565b811461206357600080fd5b50565b6000813590506120758161204f565b92915050565b60006020828403121561209157612090612019565b5b600061209f84828501612066565b91505092915050565b60008115159050919050565b6120bd816120a8565b82525050565b60006020820190506120d860008301846120b4565b92915050565b600081519050919050565b600082825260208201905092915050565b60005b838110156121185780820151818401526020810190506120fd565b60008484015250505050565b6000601f19601f8301169050919050565b6000612140826120de565b61214a81856120e9565b935061215a8185602086016120fa565b61216381612124565b840191505092915050565b600060208201905081810360008301526121888184612135565b905092915050565b6000819050919050565b6121a381612190565b81146121ae57600080fd5b50565b6000813590506121c08161219a565b92915050565b6000602082840312156121dc576121db612019565b5b60006121ea848285016121b1565b91505092915050565b600073ffffffffffffffffffffffffffffffffffffffff82169050919050565b600061221e826121f3565b9050919050565b61222e81612213565b82525050565b60006020820190506122496000830184612225565b92915050565b61225881612213565b811461226357600080fd5b50565b6000813590506122758161224f565b92915050565b6000806040838503121561229257612291612019565b5b60006122a085828601612266565b92505060206122b1858286016121b1565b9150509250929050565b6000806000606084860312156122d4576122d3612019565b5b60006122e286828701612266565b93505060206122f386828701612266565b9250506040612304868287016121b1565b9150509250925092565b600080fd5b600080fd5b7f4e487b7100000000000000000000000000000000000000000000000000000000600052604160045260246000fd5b61235082612124565b810181811067ffffffffffffffff8211171561236f5761236e612318565b5b80604052505050565b600061238261200f565b905061238e8282612347565b919050565b600067ffffffffffffffff8211156123ae576123ad612318565b5b6123b782612124565b9050602081019050919050565b82818337600083830152505050565b60006123e66123e184612393565b612378565b90508281526020810184848401111561240257612401612313565b5b61240d8482856123c4565b509392505050565b600082601f83011261242a5761242961230e565b5b813561243a8482602086016123d3565b91505092915050565b60008060006060848603121561245c5761245b612019565b5b600084013567ffffffffffffffff81111561247a5761247961201e565b5b61248686828701612415565b935050602084013567ffffffffffffffff8111156124a7576124a661201e565b5b6124b386828701612415565b925050604084013567ffffffffffffffff8111156124d4576124d361201e565b5b6124e086828701612415565b9150509250925092565b600060208284031215612500576124ff612019565b5b600061250e84828501612266565b91505092915050565b61252081612190565b82525050565b600060208201905061253b6000830184612517565b92915050565b61254a816120a8565b811461255557600080fd5b50565b60008135905061256781612541565b92915050565b6000806040838503121561258457612583612019565b5b600061259285828601612266565b92505060206125a385828601612558565b9150509250929050565b600067ffffffffffffffff8211156125c8576125c7612318565b5b6125d182612124565b9050602081019050919050565b60006125f16125ec846125ad565b612378565b90508281526020810184848401111561260d5761260c612313565b5b6126188482856123c4565b509392505050565b600082601f8301126126355761263461230e565b5b81356126458482602086016125de565b91505092915050565b6000806000806080858703121561266857612667612019565b5b600061267687828801612266565b945050602061268787828801612266565b9350506040612698878288016121b1565b925050606085013567ffffffffffffffff8111156126b9576126b861201e565b5b6126c587828801612620565b91505092959194509250565b60006080820190506126e66000830187612517565b81810360208301526126f88186612135565b9050818103604083015261270c8185612135565b905081810360608301526127208184612135565b905095945050505050565b600081519050919050565b600082825260208201905092915050565b6000819050602082019050919050565b61276081612190565b82525050565b600082825260208201905092915050565b6000612782826120de565b61278c8185612766565b935061279c8185602086016120fa565b6127a581612124565b840191505092915050565b60006080830160008301516127c86000860182612757565b50602083015184820360208601526127e08282612777565b915050604083015184820360408601526127fa8282612777565b915050606083015184820360608601526128148282612777565b9150508091505092915050565b600061282d83836127b0565b905092915050565b6000602082019050919050565b600061284d8261272b565b6128578185612736565b93508360208202850161286985612747565b8060005b858110156128a557848403895281516128868582612821565b945061289183612835565b925060208a0199505060018101905061286d565b50829750879550505050505092915050565b600060208201905081810360008301526128d18184612842565b905092915050565b600080604083850312156128f0576128ef612019565b5b60006128fe85828601612266565b925050602061290f85828601612266565b9150509250929050565b7f4e487b7100000000000000000000000000000000000000000000000000000000600052602260045260246000fd5b6000600282049050600182168061296057607f821691505b60208210810361297357612972612919565b5b50919050565b7f4552433732313a20617070726f76616c20746f2063757272656e74206f776e6560008201527f7200000000000000000000000000000000000000000000000000000000000000602082015250565b60006129d56021836120e9565b91506129e082612979565b604082019050919050565b60006020820190508181036000830152612a04816129c8565b9050919050565b7f4552433732313a20617070726f76652063616c6c6572206973206e6f7420746f60008201527f6b656e206f776e6572206f7220617070726f76656420666f7220616c6c000000602082015250565b6000612a67603d836120e9565b9150612a7282612a0b565b604082019050919050565b60006020820190508181036000830152612a9681612a5a565b9050919050565b7f4552433732313a2063616c6c6572206973206e6f7420746f6b656e206f776e6560008201527f72206f7220617070726f76656400000000000000000000000000000000000000602082015250565b6000612af9602d836120e9565b9150612b0482612a9d565b604082019050919050565b60006020820190508181036000830152612b2881612aec565b9050919050565b60008190508160005260206000209050919050565b60006020601f8301049050919050565b600082821b905092915050565b600060088302612b917fffffffffffffffffffffffffffffffffffffffffffffffffffffffffffffffff82612b54565b612b9b8683612b54565b95508019841693508086168417925050509392505050565b6000819050919050565b6000612bd8612bd3612bce84612190565b612bb3565b612190565b9050919050565b6000819050919050565b612bf283612bbd565b612c06612bfe82612bdf565b848454612b61565b825550505050565b600090565b612c1b612c0e565b612c26818484612be9565b505050565b5b81811015612c4a57612c3f600082612c13565b600181019050612c2c565b5050565b601f821115612c8f57612c6081612b2f565b612c6984612b44565b81016020851015612c78578190505b612c8c612c8485612b44565b830182612c2b565b50505b505050565b600082821c905092915050565b6000612cb260001984600802612c94565b1980831691505092915050565b6000612ccb8383612ca1565b9150826002028217905092915050565b612ce4826120de565b67ffffffffffffffff811115612cfd57612cfc612318565b5b612d078254612948565b612d12828285612c4e565b600060209050601f831160018114612d455760008415612d33578287015190505b612d3d8582612cbf565b865550612da5565b601f198416612d5386612b2f565b60005b82811015612d7b57848901518255600182019150602085019450602081019050612d56565b86831015612d985784890151612d94601f891682612ca1565b8355505b6001600288020188555050505b505050505050565b7f4e487b7100000000000000000000000000000000000000000000000000000000600052601160045260246000fd5b6000612de782612190565b91507fffffffffffffffffffffffffffffffffffffffffffffffffffffffffffffffff8203612e1957612e18612dad565b5b600182019050919050565b7f4552433732313a20696e76616c696420746f6b656e2049440000000000000000600082015250565b6000612e5a6018836120e9565b9150612e6582612e24565b602082019050919050565b60006020820190508181036000830152612e8981612e4d565b9050919050565b7f4552433732313a2061646472657373207a65726f206973206e6f74206120766160008201527f6c6964206f776e65720000000000000000000000000000000000000000000000602082015250565b6000612eec6029836120e9565b9150612ef782612e90565b604082019050919050565b60006020820190508181036000830152612f1b81612edf565b9050919050565b600081905092915050565b6000612f38826120de565b612f428185612f22565b9350612f528185602086016120fa565b80840191505092915050565b6000612f6a8285612f2d565b9150612f768284612f2d565b91508190509392505050565b7f4e487b7100000000000000000000000000000000000000000000000000000000600052603260045260246000fd5b7f4552433732313a207472616e736665722066726f6d20696e636f72726563742060008201527f6f776e6572000000000000000000000000000000000000000000000000000000602082015250565b600061300d6025836120e9565b915061301882612fb1565b604082019050919050565b6000602082019050818103600083015261303c81613000565b9050919050565b7f4552433732313a207472616e7366657220746f20746865207a65726f2061646460008201527f7265737300000000000000000000000000000000000000000000000000000000602082015250565b600061309f6024836120e9565b91506130aa82613043565b604082019050919050565b600060208201905081810360008301526130ce81613092565b9050919050565b7f4552433732313a206d696e7420746f20746865207a65726f2061646472657373600082015250565b600061310b6020836120e9565b9150613116826130d5565b602082019050919050565b6000602082019050818103600083015261313a816130fe565b9050919050565b7f4552433732313a20746f6b656e20616c7265616479206d696e74656400000000600082015250565b6000613177601c836120e9565b915061318282613141565b602082019050919050565b600060208201905081810360008301526131a68161316a565b9050919050565b7f45524337323155524953746f726167653a2055524920736574206f66206e6f6e60008201527f6578697374656e7420746f6b656e000000000000000000000000000000000000602082015250565b6000613209602e836120e9565b9150613214826131ad565b604082019050919050565b60006020820190508181036000830152613238816131fc565b9050919050565b7f4552433732313a20617070726f766520746f2063616c6c657200000000000000600082015250565b60006132756019836120e9565b91506132808261323f565b602082019050919050565b600060208201905081810360008301526132a481613268565b9050919050565b7f4552433732313a207472616e7366657220746f206e6f6e20455243373231526560008201527f63656976657220696d706c656d656e7465720000000000000000000000000000602082015250565b60006133076032836120e9565b9150613312826132ab565b604082019050919050565b60006020820190508181036000830152613336816132fa565b9050919050565b600061334882612190565b915061335383612190565b925082820390508181111561336b5761336a612dad565b5b92915050565b600061337c82612190565b915061338783612190565b925082820190508082111561339f5761339e612dad565b5b92915050565b600081519050919050565b600082825260208201905092915050565b60006133cc826133a5565b6133d681856133b0565b93506133e68185602086016120fa565b6133ef81612124565b840191505092915050565b600060808201905061340f6000830187612225565b61341c6020830186612225565b6134296040830185612517565b818103606083015261343b81846133c1565b905095945050505050565b6000815190506134558161204f565b92915050565b60006020828403121561347157613470612019565b5b600061347f84828501613446565b91505092915050565b7f4e487b7100000000000000000000000000000000000000000000000000000000600052601260045260246000fdfea2646970667358221220873899c8475f248c635ba610a2d330cd198b8683246f0898ffff1941da4369b764736f6c63430008110033",
  "immutableReferences": {},
  "source": "// SPDX-License-Identifier: MIT\npragma solidity ^0.8.4;\n\nimport \"@openzeppelin/contracts/token/ERC721/extensions/ERC721URIStorage.sol\";\nimport \"@openzeppelin/contracts/utils/Strings.sol\";\n\ncontract MoviesNFT is ERC721URIStorage {\n    uint256 MAX_RATING_COUNT = 100000000000;\n    uint256 private movieNumber = 1;\n    address private _owner; // owner of the movie NFT\n\n    struct movieData {\n        uint256 movieNumber;\n        string movieName;\n        string movieDescription;\n        string ipfsHash;\n    }\n\n    struct rating {\n        address ratingOwner; // address who made the rating\n        uint256 movieNumber; // number of the movie for which the rating is being casted\n        uint8 ratingVal; // must be between 1(min rate) and 10(max rate)\n        uint256 createdAt; // timestamp of rating\n    }\n\n    movieData[] movies;\n    mapping(address => rating) userRating;\n    mapping(uint256 => rating[]) movieRating;\n    mapping(uint256 => uint8) movieRatingAverage;\n\n    constructor(address owner) ERC721(\"MovieNFT\", \"MNFT\") {\n        _owner = owner;\n    }\n\n    function createMovieNft(\n        string memory name,\n        string memory description,\n        string memory ipfsHash\n    ) public {\n        require(msg.sender == _owner);\n\n        movieData memory nextMovie = movieData(\n            movieNumber,\n            name,\n            description,\n            ipfsHash\n        );\n\n        movies.push(nextMovie);\n        _mint(msg.sender, movieNumber);\n        _setTokenURI(movieNumber, ipfsHash);\n        movieNumber++;\n    }\n\n    function getAllMovies() public view returns (movieData[] memory) {\n        return movies;\n    }\n\n    function getMovieByNumber(uint256 _movieNum)\n        public\n        view\n        returns (\n            uint256,\n            string memory,\n            string memory,\n            string memory\n        )\n    {\n        for (uint256 i = 0; i < movieNumber; i++) {\n            if (movies[i].movieNumber == _movieNum) {\n                return (\n                    movies[i].movieNumber,\n                    movies[i].movieName,\n                    movies[i].movieDescription,\n                    movies[i].ipfsHash\n                );\n            }\n        }\n        return (0, \"\", \"\", \"\");\n    }\n}\n",
  "sourcePath": "/Users/sagaranand/Documents/workspace-open/chainlink-2022/web3-imdb/_backend/contracts/MoviesNFT.sol",
  "compiler": {
    "name": "solc",
    "version": "0.8.17+commit.8df45f5f.Emscripten.clang"
  },
  "schemaVersion": "3.4.10",
  "updatedAt": "2022-11-16T12:48:34.485Z",
  "networkType": "ethereum",
  "devdoc": {
    "kind": "dev",
    "methods": {
      "approve(address,uint256)": {
        "details": "See {IERC721-approve}."
      },
      "balanceOf(address)": {
        "details": "See {IERC721-balanceOf}."
      },
      "getApproved(uint256)": {
        "details": "See {IERC721-getApproved}."
      },
      "isApprovedForAll(address,address)": {
        "details": "See {IERC721-isApprovedForAll}."
      },
      "name()": {
        "details": "See {IERC721Metadata-name}."
      },
      "ownerOf(uint256)": {
        "details": "See {IERC721-ownerOf}."
      },
      "safeTransferFrom(address,address,uint256)": {
        "details": "See {IERC721-safeTransferFrom}."
      },
      "safeTransferFrom(address,address,uint256,bytes)": {
        "details": "See {IERC721-safeTransferFrom}."
      },
      "setApprovalForAll(address,bool)": {
        "details": "See {IERC721-setApprovalForAll}."
      },
      "supportsInterface(bytes4)": {
        "details": "See {IERC165-supportsInterface}."
      },
      "symbol()": {
        "details": "See {IERC721Metadata-symbol}."
      },
      "tokenURI(uint256)": {
        "details": "See {IERC721Metadata-tokenURI}."
      },
      "transferFrom(address,address,uint256)": {
        "details": "See {IERC721-transferFrom}."
      }
    },
    "version": 1
  },
  "userdoc": {
    "kind": "user",
    "methods": {},
    "version": 1
  }
}