{
  "contractName": "MoviesNFT",
  "abi": [
    {
      "inputs": [
        {
          "internalType": "address",
          "name": "owner",
          "type": "address"
        }
      ],
      "stateMutability": "nonpayable",
      "type": "constructor"
    },
    {
      "anonymous": false,
      "inputs": [
        {
          "indexed": true,
          "internalType": "address",
          "name": "owner",
          "type": "address"
        },
        {
          "indexed": true,
          "internalType": "address",
          "name": "approved",
          "type": "address"
        },
        {
          "indexed": true,
          "internalType": "uint256",
          "name": "tokenId",
          "type": "uint256"
        }
      ],
      "name": "Approval",
      "type": "event"
    },
    {
      "anonymous": false,
      "inputs": [
        {
          "indexed": true,
          "internalType": "address",
          "name": "owner",
          "type": "address"
        },
        {
          "indexed": true,
          "internalType": "address",
          "name": "operator",
          "type": "address"
        },
        {
          "indexed": false,
          "internalType": "bool",
          "name": "approved",
          "type": "bool"
        }
      ],
      "name": "ApprovalForAll",
      "type": "event"
    },
    {
      "anonymous": false,
      "inputs": [
        {
          "indexed": true,
          "internalType": "address",
          "name": "from",
          "type": "address"
        },
        {
          "indexed": true,
          "internalType": "address",
          "name": "to",
          "type": "address"
        },
        {
          "indexed": true,
          "internalType": "uint256",
          "name": "tokenId",
          "type": "uint256"
        }
      ],
      "name": "Transfer",
      "type": "event"
    },
    {
      "inputs": [
        {
          "internalType": "address",
          "name": "to",
          "type": "address"
        },
        {
          "internalType": "uint256",
          "name": "tokenId",
          "type": "uint256"
        }
      ],
      "name": "approve",
      "outputs": [],
      "stateMutability": "nonpayable",
      "type": "function"
    },
    {
      "inputs": [
        {
          "internalType": "address",
          "name": "owner",
          "type": "address"
        }
      ],
      "name": "balanceOf",
      "outputs": [
        {
          "internalType": "uint256",
          "name": "",
          "type": "uint256"
        }
      ],
      "stateMutability": "view",
      "type": "function"
    },
    {
      "inputs": [
        {
          "internalType": "uint256",
          "name": "tokenId",
          "type": "uint256"
        }
      ],
      "name": "getApproved",
      "outputs": [
        {
          "internalType": "address",
          "name": "",
          "type": "address"
        }
      ],
      "stateMutability": "view",
      "type": "function"
    },
    {
      "inputs": [
        {
          "internalType": "address",
          "name": "owner",
          "type": "address"
        },
        {
          "internalType": "address",
          "name": "operator",
          "type": "address"
        }
      ],
      "name": "isApprovedForAll",
      "outputs": [
        {
          "internalType": "bool",
          "name": "",
          "type": "bool"
        }
      ],
      "stateMutability": "view",
      "type": "function"
    },
    {
      "inputs": [],
      "name": "name",
      "outputs": [
        {
          "internalType": "string",
          "name": "",
          "type": "string"
        }
      ],
      "stateMutability": "view",
      "type": "function"
    },
    {
      "inputs": [
        {
          "internalType": "uint256",
          "name": "tokenId",
          "type": "uint256"
        }
      ],
      "name": "ownerOf",
      "outputs": [
        {
          "internalType": "address",
          "name": "",
          "type": "address"
        }
      ],
      "stateMutability": "view",
      "type": "function"
    },
    {
      "inputs": [
        {
          "internalType": "address",
          "name": "from",
          "type": "address"
        },
        {
          "internalType": "address",
          "name": "to",
          "type": "address"
        },
        {
          "internalType": "uint256",
          "name": "tokenId",
          "type": "uint256"
        }
      ],
      "name": "safeTransferFrom",
      "outputs": [],
      "stateMutability": "nonpayable",
      "type": "function"
    },
    {
      "inputs": [
        {
          "internalType": "address",
          "name": "from",
          "type": "address"
        },
        {
          "internalType": "address",
          "name": "to",
          "type": "address"
        },
        {
          "internalType": "uint256",
          "name": "tokenId",
          "type": "uint256"
        },
        {
          "internalType": "bytes",
          "name": "data",
          "type": "bytes"
        }
      ],
      "name": "safeTransferFrom",
      "outputs": [],
      "stateMutability": "nonpayable",
      "type": "function"
    },
    {
      "inputs": [
        {
          "internalType": "address",
          "name": "operator",
          "type": "address"
        },
        {
          "internalType": "bool",
          "name": "approved",
          "type": "bool"
        }
      ],
      "name": "setApprovalForAll",
      "outputs": [],
      "stateMutability": "nonpayable",
      "type": "function"
    },
    {
      "inputs": [
        {
          "internalType": "bytes4",
          "name": "interfaceId",
          "type": "bytes4"
        }
      ],
      "name": "supportsInterface",
      "outputs": [
        {
          "internalType": "bool",
          "name": "",
          "type": "bool"
        }
      ],
      "stateMutability": "view",
      "type": "function"
    },
    {
      "inputs": [],
      "name": "symbol",
      "outputs": [
        {
          "internalType": "string",
          "name": "",
          "type": "string"
        }
      ],
      "stateMutability": "view",
      "type": "function"
    },
    {
      "inputs": [
        {
          "internalType": "uint256",
          "name": "tokenId",
          "type": "uint256"
        }
      ],
      "name": "tokenURI",
      "outputs": [
        {
          "internalType": "string",
          "name": "",
          "type": "string"
        }
      ],
      "stateMutability": "view",
      "type": "function"
    },
    {
      "inputs": [
        {
          "internalType": "address",
          "name": "from",
          "type": "address"
        },
        {
          "internalType": "address",
          "name": "to",
          "type": "address"
        },
        {
          "internalType": "uint256",
          "name": "tokenId",
          "type": "uint256"
        }
      ],
      "name": "transferFrom",
      "outputs": [],
      "stateMutability": "nonpayable",
      "type": "function"
    },
    {
      "inputs": [
        {
          "internalType": "string",
          "name": "name",
          "type": "string"
        },
        {
          "internalType": "string",
          "name": "description",
          "type": "string"
        },
        {
          "internalType": "string",
          "name": "ipfsHash",
          "type": "string"
        }
      ],
      "name": "createMovieNft",
      "outputs": [],
      "stateMutability": "nonpayable",
      "type": "function"
    },
    {
      "inputs": [],
      "name": "getAllMovies",
      "outputs": [
        {
          "components": [
            {
              "internalType": "uint256",
              "name": "movieNumber",
              "type": "uint256"
            },
            {
              "internalType": "string",
              "name": "movieName",
              "type": "string"
            },
            {
              "internalType": "string",
              "name": "movieDescription",
              "type": "string"
            },
            {
              "internalType": "string",
              "name": "ipfsHash",
              "type": "string"
            }
          ],
          "internalType": "struct MoviesNFT.movieData[]",
          "name": "",
          "type": "tuple[]"
        }
      ],
      "stateMutability": "view",
      "type": "function"
    },
    {
      "inputs": [
        {
          "internalType": "uint256",
          "name": "_movieNum",
          "type": "uint256"
        }
      ],
      "name": "getMovieByNumber",
      "outputs": [
        {
          "internalType": "uint256",
          "name": "",
          "type": "uint256"
        },
        {
          "internalType": "string",
          "name": "",
          "type": "string"
        },
        {
          "internalType": "string",
          "name": "",
          "type": "string"
        },
        {
          "internalType": "string",
          "name": "",
          "type": "string"
        }
      ],
      "stateMutability": "view",
      "type": "function"
    },
    {
      "inputs": [
        {
          "internalType": "uint256",
          "name": "_movieNum",
          "type": "uint256"
        },
        {
          "internalType": "uint8",
          "name": "ratingVal",
          "type": "uint8"
        }
      ],
      "name": "castMovieRating",
      "outputs": [
        {
          "internalType": "uint8",
          "name": "",
          "type": "uint8"
        },
        {
          "internalType": "uint8",
          "name": "",
          "type": "uint8"
        }
      ],
      "stateMutability": "nonpayable",
      "type": "function"
    },
    {
      "inputs": [
        {
          "internalType": "uint256",
          "name": "_movieNum",
          "type": "uint256"
        }
      ],
      "name": "getAvgMovieRating",
      "outputs": [
        {
          "internalType": "uint8",
          "name": "",
          "type": "uint8"
        }
      ],
      "stateMutability": "view",
      "type": "function"
    },
    {
      "inputs": [
        {
          "internalType": "address",
          "name": "userAdd",
          "type": "address"
        }
      ],
      "name": "getUserRating",
      "outputs": [
        {
          "components": [
            {
              "internalType": "address",
              "name": "ratingOwner",
              "type": "address"
            },
            {
              "internalType": "uint256",
              "name": "movieNumber",
              "type": "uint256"
            },
            {
              "internalType": "uint8",
              "name": "ratingVal",
              "type": "uint8"
            },
            {
              "internalType": "uint256",
              "name": "createdAt",
              "type": "uint256"
            }
          ],
          "internalType": "struct MoviesNFT.rating",
          "name": "",
          "type": "tuple"
        }
      ],
      "stateMutability": "view",
      "type": "function"
    }
  ],
  "bytecode": "0x608060405264174876e80060075560016008553480156200001f57600080fd5b50604051620040b1380380620040b1833981810160405281019062000045919062000189565b6040518060400160405280600881526020017f4d6f7669654e46540000000000000000000000000000000000000000000000008152506040518060400160405280600481526020017f4d4e4654000000000000000000000000000000000000000000000000000000008152508160009081620000c2919062000435565b508060019081620000d4919062000435565b50505080600960006101000a81548173ffffffffffffffffffffffffffffffffffffffff021916908373ffffffffffffffffffffffffffffffffffffffff160217905550506200051c565b600080fd5b600073ffffffffffffffffffffffffffffffffffffffff82169050919050565b6000620001518262000124565b9050919050565b620001638162000144565b81146200016f57600080fd5b50565b600081519050620001838162000158565b92915050565b600060208284031215620001a257620001a16200011f565b5b6000620001b28482850162000172565b91505092915050565b600081519050919050565b7f4e487b7100000000000000000000000000000000000000000000000000000000600052604160045260246000fd5b7f4e487b7100000000000000000000000000000000000000000000000000000000600052602260045260246000fd5b600060028204905060018216806200023d57607f821691505b602082108103620002535762000252620001f5565b5b50919050565b60008190508160005260206000209050919050565b60006020601f8301049050919050565b600082821b905092915050565b600060088302620002bd7fffffffffffffffffffffffffffffffffffffffffffffffffffffffffffffffff826200027e565b620002c986836200027e565b95508019841693508086168417925050509392505050565b6000819050919050565b6000819050919050565b600062000316620003106200030a84620002e1565b620002eb565b620002e1565b9050919050565b6000819050919050565b6200033283620002f5565b6200034a62000341826200031d565b8484546200028b565b825550505050565b600090565b6200036162000352565b6200036e81848462000327565b505050565b5b8181101562000396576200038a60008262000357565b60018101905062000374565b5050565b601f821115620003e557620003af8162000259565b620003ba846200026e565b81016020851015620003ca578190505b620003e2620003d9856200026e565b83018262000373565b50505b505050565b600082821c905092915050565b60006200040a60001984600802620003ea565b1980831691505092915050565b6000620004258383620003f7565b9150826002028217905092915050565b6200044082620001bb565b67ffffffffffffffff8111156200045c576200045b620001c6565b5b62000468825462000224565b620004758282856200039a565b600060209050601f831160018114620004ad576000841562000498578287015190505b620004a4858262000417565b86555062000514565b601f198416620004bd8662000259565b60005b82811015620004e757848901518255600182019150602085019450602081019050620004c0565b8683101562000507578489015162000503601f891682620003f7565b8355505b6001600288020188555050505b505050505050565b613b85806200052c6000396000f3fe608060405234801561001057600080fd5b50600436106101205760003560e01c80636352211e116100ad578063b88d4fde11610071578063b88d4fde1461033e578063c87b56dd1461035a578063de5d9f3e1461038a578063e16f0065146103bd578063e985e9c5146103db57610120565b80636352211e146102745780636b3f30d4146102a457806370a08231146102d457806395d89b4114610304578063a22cb4651461032257610120565b8063095ea7b3116100f4578063095ea7b3146101d457806323b872dd146101f057806342842e0e1461020c578063460168c314610228578063505db3af1461025857610120565b80620a09c01461012557806301ffc9a71461015657806306fdde0314610186578063081812fc146101a4575b600080fd5b61013f600480360381019061013a919061259f565b61040b565b60405161014d9291906125ee565b60405180910390f35b610170600480360381019061016b919061266f565b61067b565b60405161017d91906126b7565b60405180910390f35b61018e61075d565b60405161019b9190612762565b60405180910390f35b6101be60048036038101906101b99190612784565b6107ef565b6040516101cb91906127f2565b60405180910390f35b6101ee60048036038101906101e99190612839565b610835565b005b61020a60048036038101906102059190612879565b61094c565b005b61022660048036038101906102219190612879565b6109ac565b005b610242600480360381019061023d91906128cc565b6109cc565b60405161024f919061297b565b60405180910390f35b610272600480360381019061026d9190612acb565b610ab2565b005b61028e60048036038101906102899190612784565b610be3565b60405161029b91906127f2565b60405180910390f35b6102be60048036038101906102b99190612784565b610c69565b6040516102cb9190612b72565b60405180910390f35b6102ee60048036038101906102e991906128cc565b610d2e565b6040516102fb9190612b9c565b60405180910390f35b61030c610de5565b6040516103199190612762565b60405180910390f35b61033c60048036038101906103379190612be3565b610e77565b005b61035860048036038101906103539190612cc4565b610e8d565b005b610374600480360381019061036f9190612784565b610eef565b6040516103819190612762565b60405180910390f35b6103a4600480360381019061039f9190612784565b611001565b6040516103b49493929190612d47565b60405180910390f35b6103c56112de565b6040516103d29190612f1e565b60405180910390f35b6103f560048036038101906103f09190612f40565b6114fd565b60405161040291906126b7565b60405180910390f35b600080600060405180608001604052803373ffffffffffffffffffffffffffffffffffffffff1681526020018681526020018560ff16815260200142815250905080600c60003373ffffffffffffffffffffffffffffffffffffffff1673ffffffffffffffffffffffffffffffffffffffff16815260200190815260200160002060008201518160000160006101000a81548173ffffffffffffffffffffffffffffffffffffffff021916908373ffffffffffffffffffffffffffffffffffffffff1602179055506020820151816001015560408201518160020160006101000a81548160ff021916908360ff16021790555060608201518160030155905050600b81908060018154018082558091505060019003906000526020600020906004020160009091909190915060008201518160000160006101000a81548173ffffffffffffffffffffffffffffffffffffffff021916908373ffffffffffffffffffffffffffffffffffffffff1602179055506020820151816001015560408201518160020160006101000a81548160ff021916908360ff16021790555060608201518160030155505060008060005b600b805490508110156106595787600b82815481106105dd576105dc612f80565b5b9060005260206000209060040201600101540361064657600b818154811061060857610607612f80565b5b906000526020600020906004020160020160009054906101000a900460ff1660ff16836106359190612fde565b9250818061064290613012565b9250505b808061065190613012565b9150506105bb565b50600081836106689190613089565b9050868195509550505050509250929050565b60007f80ac58cd000000000000000000000000000000000000000000000000000000007bffffffffffffffffffffffffffffffffffffffffffffffffffffffff1916827bffffffffffffffffffffffffffffffffffffffffffffffffffffffff1916148061074657507f5b5e139f000000000000000000000000000000000000000000000000000000007bffffffffffffffffffffffffffffffffffffffffffffffffffffffff1916827bffffffffffffffffffffffffffffffffffffffffffffffffffffffff1916145b80610756575061075582611591565b5b9050919050565b60606000805461076c906130e9565b80601f0160208091040260200160405190810160405280929190818152602001828054610798906130e9565b80156107e55780601f106107ba576101008083540402835291602001916107e5565b820191906000526020600020905b8154815290600101906020018083116107c857829003601f168201915b5050505050905090565b60006107fa826115fb565b6004600083815260200190815260200160002060009054906101000a900473ffffffffffffffffffffffffffffffffffffffff169050919050565b600061084082610be3565b90508073ffffffffffffffffffffffffffffffffffffffff168373ffffffffffffffffffffffffffffffffffffffff16036108b0576040517f08c379a00000000000000000000000000000000000000000000000000000000081526004016108a79061318c565b60405180910390fd5b8073ffffffffffffffffffffffffffffffffffffffff166108cf611646565b73ffffffffffffffffffffffffffffffffffffffff1614806108fe57506108fd816108f8611646565b6114fd565b5b61093d576040517f08c379a00000000000000000000000000000000000000000000000000000000081526004016109349061321e565b60405180910390fd5b610947838361164e565b505050565b61095d610957611646565b82611707565b61099c576040517f08c379a0000000000000000000000000000000000000000000000000000000008152600401610993906132b0565b60405180910390fd5b6109a783838361179c565b505050565b6109c783838360405180602001604052806000815250610e8d565b505050565b6109d46124db565b6000600c60008473ffffffffffffffffffffffffffffffffffffffff1673ffffffffffffffffffffffffffffffffffffffff1681526020019081526020016000206040518060800160405290816000820160009054906101000a900473ffffffffffffffffffffffffffffffffffffffff1673ffffffffffffffffffffffffffffffffffffffff1673ffffffffffffffffffffffffffffffffffffffff168152602001600182015481526020016002820160009054906101000a900460ff1660ff1660ff168152602001600382015481525050905080915050919050565b600960009054906101000a900473ffffffffffffffffffffffffffffffffffffffff1673ffffffffffffffffffffffffffffffffffffffff163373ffffffffffffffffffffffffffffffffffffffff1614610b0c57600080fd5b600060405180608001604052806008548152602001858152602001848152602001838152509050600a819080600181540180825580915050600190039060005260206000209060040201600090919091909150600082015181600001556020820151816001019081610b7e919061347c565b506040820151816002019081610b94919061347c565b506060820151816003019081610baa919061347c565b505050610bb933600854611a95565b610bc560085483611cb2565b60086000815480929190610bd890613012565b919050555050505050565b600080610bef83611d1f565b9050600073ffffffffffffffffffffffffffffffffffffffff168173ffffffffffffffffffffffffffffffffffffffff1603610c60576040517f08c379a0000000000000000000000000000000000000000000000000000000008152600401610c579061359a565b60405180910390fd5b80915050919050565b600080600090506000805b600b80549050811015610d125784600b8281548110610c9657610c95612f80565b5b90600052602060002090600402016001015403610cff57600b8181548110610cc157610cc0612f80565b5b906000526020600020906004020160020160009054906101000a900460ff1660ff1683610cee9190612fde565b92508180610cfb90613012565b9250505b8080610d0a90613012565b915050610c74565b5060008183610d219190613089565b9050809350505050919050565b60008073ffffffffffffffffffffffffffffffffffffffff168273ffffffffffffffffffffffffffffffffffffffff1603610d9e576040517f08c379a0000000000000000000000000000000000000000000000000000000008152600401610d959061362c565b60405180910390fd5b600360008373ffffffffffffffffffffffffffffffffffffffff1673ffffffffffffffffffffffffffffffffffffffff168152602001908152602001600020549050919050565b606060018054610df4906130e9565b80601f0160208091040260200160405190810160405280929190818152602001828054610e20906130e9565b8015610e6d5780601f10610e4257610100808354040283529160200191610e6d565b820191906000526020600020905b815481529060010190602001808311610e5057829003601f168201915b5050505050905090565b610e89610e82611646565b8383611d5c565b5050565b610e9e610e98611646565b83611707565b610edd576040517f08c379a0000000000000000000000000000000000000000000000000000000008152600401610ed4906132b0565b60405180910390fd5b610ee984848484611ec8565b50505050565b6060610efa826115fb565b6000600660008481526020019081526020016000208054610f1a906130e9565b80601f0160208091040260200160405190810160405280929190818152602001828054610f46906130e9565b8015610f935780601f10610f6857610100808354040283529160200191610f93565b820191906000526020600020905b815481529060010190602001808311610f7657829003601f168201915b505050505090506000610fa4611f24565b90506000815103610fb9578192505050610ffc565b600082511115610fee578082604051602001610fd6929190613688565b60405160208183030381529060405292505050610ffc565b610ff784611f3b565b925050505b919050565b6000606080606060005b60085481101561129b5785600a828154811061102a57611029612f80565b5b9060005260206000209060040201600001540361128857600a818154811061105557611054612f80565b5b906000526020600020906004020160000154600a828154811061107b5761107a612f80565b5b9060005260206000209060040201600101600a83815481106110a05761109f612f80565b5b9060005260206000209060040201600201600a84815481106110c5576110c4612f80565b5b90600052602060002090600402016003018280546110e2906130e9565b80601f016020809104026020016040519081016040528092919081815260200182805461110e906130e9565b801561115b5780601f106111305761010080835404028352916020019161115b565b820191906000526020600020905b81548152906001019060200180831161113e57829003601f168201915b5050505050925081805461116e906130e9565b80601f016020809104026020016040519081016040528092919081815260200182805461119a906130e9565b80156111e75780601f106111bc576101008083540402835291602001916111e7565b820191906000526020600020905b8154815290600101906020018083116111ca57829003601f168201915b505050505091508080546111fa906130e9565b80601f0160208091040260200160405190810160405280929190818152602001828054611226906130e9565b80156112735780601f1061124857610100808354040283529160200191611273565b820191906000526020600020905b81548152906001019060200180831161125657829003601f168201915b505050505090509450945094509450506112d7565b808061129390613012565b91505061100b565b50600060405180602001604052806000815250604051806020016040528060008152506040518060200160405280600081525093509350935093505b9193509193565b6060600a805480602002602001604051908101604052809291908181526020016000905b828210156114f457838290600052602060002090600402016040518060800160405290816000820154815260200160018201805461133f906130e9565b80601f016020809104026020016040519081016040528092919081815260200182805461136b906130e9565b80156113b85780601f1061138d576101008083540402835291602001916113b8565b820191906000526020600020905b81548152906001019060200180831161139b57829003601f168201915b505050505081526020016002820180546113d1906130e9565b80601f01602080910402602001604051908101604052809291908181526020018280546113fd906130e9565b801561144a5780601f1061141f5761010080835404028352916020019161144a565b820191906000526020600020905b81548152906001019060200180831161142d57829003601f168201915b50505050508152602001600382018054611463906130e9565b80601f016020809104026020016040519081016040528092919081815260200182805461148f906130e9565b80156114dc5780601f106114b1576101008083540402835291602001916114dc565b820191906000526020600020905b8154815290600101906020018083116114bf57829003601f168201915b50505050508152505081526020019060010190611302565b50505050905090565b6000600560008473ffffffffffffffffffffffffffffffffffffffff1673ffffffffffffffffffffffffffffffffffffffff16815260200190815260200160002060008373ffffffffffffffffffffffffffffffffffffffff1673ffffffffffffffffffffffffffffffffffffffff16815260200190815260200160002060009054906101000a900460ff16905092915050565b60007f01ffc9a7000000000000000000000000000000000000000000000000000000007bffffffffffffffffffffffffffffffffffffffffffffffffffffffff1916827bffffffffffffffffffffffffffffffffffffffffffffffffffffffff1916149050919050565b61160481611fa3565b611643576040517f08c379a000000000000000000000000000000000000000000000000000000000815260040161163a9061359a565b60405180910390fd5b50565b600033905090565b816004600083815260200190815260200160002060006101000a81548173ffffffffffffffffffffffffffffffffffffffff021916908373ffffffffffffffffffffffffffffffffffffffff160217905550808273ffffffffffffffffffffffffffffffffffffffff166116c183610be3565b73ffffffffffffffffffffffffffffffffffffffff167f8c5be1e5ebec7d5bd14f71427d1e84f3dd0314c0f7b2291e5b200ac8c7c3b92560405160405180910390a45050565b60008061171383610be3565b90508073ffffffffffffffffffffffffffffffffffffffff168473ffffffffffffffffffffffffffffffffffffffff161480611755575061175481856114fd565b5b8061179357508373ffffffffffffffffffffffffffffffffffffffff1661177b846107ef565b73ffffffffffffffffffffffffffffffffffffffff16145b91505092915050565b8273ffffffffffffffffffffffffffffffffffffffff166117bc82610be3565b73ffffffffffffffffffffffffffffffffffffffff1614611812576040517f08c379a00000000000000000000000000000000000000000000000000000000081526004016118099061371e565b60405180910390fd5b600073ffffffffffffffffffffffffffffffffffffffff168273ffffffffffffffffffffffffffffffffffffffff1603611881576040517f08c379a0000000000000000000000000000000000000000000000000000000008152600401611878906137b0565b60405180910390fd5b61188e8383836001611fe4565b8273ffffffffffffffffffffffffffffffffffffffff166118ae82610be3565b73ffffffffffffffffffffffffffffffffffffffff1614611904576040517f08c379a00000000000000000000000000000000000000000000000000000000081526004016118fb9061371e565b60405180910390fd5b6004600082815260200190815260200160002060006101000a81549073ffffffffffffffffffffffffffffffffffffffff02191690556001600360008573ffffffffffffffffffffffffffffffffffffffff1673ffffffffffffffffffffffffffffffffffffffff168152602001908152602001600020600082825403925050819055506001600360008473ffffffffffffffffffffffffffffffffffffffff1673ffffffffffffffffffffffffffffffffffffffff16815260200190815260200160002060008282540192505081905550816002600083815260200190815260200160002060006101000a81548173ffffffffffffffffffffffffffffffffffffffff021916908373ffffffffffffffffffffffffffffffffffffffff160217905550808273ffffffffffffffffffffffffffffffffffffffff168473ffffffffffffffffffffffffffffffffffffffff167fddf252ad1be2c89b69c2b068fc378daa952ba7f163c4a11628f55a4df523b3ef60405160405180910390a4611a90838383600161210a565b505050565b600073ffffffffffffffffffffffffffffffffffffffff168273ffffffffffffffffffffffffffffffffffffffff1603611b04576040517f08c379a0000000000000000000000000000000000000000000000000000000008152600401611afb9061381c565b60405180910390fd5b611b0d81611fa3565b15611b4d576040517f08c379a0000000000000000000000000000000000000000000000000000000008152600401611b4490613888565b60405180910390fd5b611b5b600083836001611fe4565b611b6481611fa3565b15611ba4576040517f08c379a0000000000000000000000000000000000000000000000000000000008152600401611b9b90613888565b60405180910390fd5b6001600360008473ffffffffffffffffffffffffffffffffffffffff1673ffffffffffffffffffffffffffffffffffffffff16815260200190815260200160002060008282540192505081905550816002600083815260200190815260200160002060006101000a81548173ffffffffffffffffffffffffffffffffffffffff021916908373ffffffffffffffffffffffffffffffffffffffff160217905550808273ffffffffffffffffffffffffffffffffffffffff16600073ffffffffffffffffffffffffffffffffffffffff167fddf252ad1be2c89b69c2b068fc378daa952ba7f163c4a11628f55a4df523b3ef60405160405180910390a4611cae60008383600161210a565b5050565b611cbb82611fa3565b611cfa576040517f08c379a0000000000000000000000000000000000000000000000000000000008152600401611cf19061391a565b60405180910390fd5b80600660008481526020019081526020016000209081611d1a919061347c565b505050565b60006002600083815260200190815260200160002060009054906101000a900473ffffffffffffffffffffffffffffffffffffffff169050919050565b8173ffffffffffffffffffffffffffffffffffffffff168373ffffffffffffffffffffffffffffffffffffffff1603611dca576040517f08c379a0000000000000000000000000000000000000000000000000000000008152600401611dc190613986565b60405180910390fd5b80600560008573ffffffffffffffffffffffffffffffffffffffff1673ffffffffffffffffffffffffffffffffffffffff16815260200190815260200160002060008473ffffffffffffffffffffffffffffffffffffffff1673ffffffffffffffffffffffffffffffffffffffff16815260200190815260200160002060006101000a81548160ff0219169083151502179055508173ffffffffffffffffffffffffffffffffffffffff168373ffffffffffffffffffffffffffffffffffffffff167f17307eab39ab6107e8899845ad3d59bd9653f200f220920489ca2b5937696c3183604051611ebb91906126b7565b60405180910390a3505050565b611ed384848461179c565b611edf84848484612110565b611f1e576040517f08c379a0000000000000000000000000000000000000000000000000000000008152600401611f1590613a18565b60405180910390fd5b50505050565b606060405180602001604052806000815250905090565b6060611f46826115fb565b6000611f50611f24565b90506000815111611f705760405180602001604052806000815250611f9b565b80611f7a84612297565b604051602001611f8b929190613688565b6040516020818303038152906040525b915050919050565b60008073ffffffffffffffffffffffffffffffffffffffff16611fc583611d1f565b73ffffffffffffffffffffffffffffffffffffffff1614159050919050565b600181111561210457600073ffffffffffffffffffffffffffffffffffffffff168473ffffffffffffffffffffffffffffffffffffffff16146120785780600360008673ffffffffffffffffffffffffffffffffffffffff1673ffffffffffffffffffffffffffffffffffffffff16815260200190815260200160002060008282546120709190613a38565b925050819055505b600073ffffffffffffffffffffffffffffffffffffffff168373ffffffffffffffffffffffffffffffffffffffff16146121035780600360008573ffffffffffffffffffffffffffffffffffffffff1673ffffffffffffffffffffffffffffffffffffffff16815260200190815260200160002060008282546120fb9190612fde565b925050819055505b5b50505050565b50505050565b60006121318473ffffffffffffffffffffffffffffffffffffffff16612365565b1561228a578373ffffffffffffffffffffffffffffffffffffffff1663150b7a0261215a611646565b8786866040518563ffffffff1660e01b815260040161217c9493929190613ac1565b6020604051808303816000875af19250505080156121b857506040513d601f19601f820116820180604052508101906121b59190613b22565b60015b61223a573d80600081146121e8576040519150601f19603f3d011682016040523d82523d6000602084013e6121ed565b606091505b506000815103612232576040517f08c379a000000000000000000000000000000000000000000000000000000000815260040161222990613a18565b60405180910390fd5b805181602001fd5b63150b7a0260e01b7bffffffffffffffffffffffffffffffffffffffffffffffffffffffff1916817bffffffffffffffffffffffffffffffffffffffffffffffffffffffff19161491505061228f565b600190505b949350505050565b6060600060016122a684612388565b01905060008167ffffffffffffffff8111156122c5576122c46129a0565b5b6040519080825280601f01601f1916602001820160405280156122f75781602001600182028036833780820191505090505b509050600082602001820190505b60011561235a578080600190039150507f3031323334353637383961626364656600000000000000000000000000000000600a86061a8153600a858161234e5761234d61305a565b5b04945060008503612305575b819350505050919050565b6000808273ffffffffffffffffffffffffffffffffffffffff163b119050919050565b600080600090507a184f03e93ff9f4daa797ed6e38ed64bf6a1f01000000000000000083106123e6577a184f03e93ff9f4daa797ed6e38ed64bf6a1f01000000000000000083816123dc576123db61305a565b5b0492506040810190505b6d04ee2d6d415b85acef81000000008310612423576d04ee2d6d415b85acef810000000083816124195761241861305a565b5b0492506020810190505b662386f26fc10000831061245257662386f26fc1000083816124485761244761305a565b5b0492506010810190505b6305f5e100831061247b576305f5e10083816124715761247061305a565b5b0492506008810190505b61271083106124a05761271083816124965761249561305a565b5b0492506004810190505b606483106124c357606483816124b9576124b861305a565b5b0492506002810190505b600a83106124d2576001810190505b80915050919050565b6040518060800160405280600073ffffffffffffffffffffffffffffffffffffffff16815260200160008152602001600060ff168152602001600081525090565b6000604051905090565b600080fd5b600080fd5b6000819050919050565b61254381612530565b811461254e57600080fd5b50565b6000813590506125608161253a565b92915050565b600060ff82169050919050565b61257c81612566565b811461258757600080fd5b50565b60008135905061259981612573565b92915050565b600080604083850312156125b6576125b5612526565b5b60006125c485828601612551565b92505060206125d58582860161258a565b9150509250929050565b6125e881612566565b82525050565b600060408201905061260360008301856125df565b61261060208301846125df565b9392505050565b60007fffffffff0000000000000000000000000000000000000000000000000000000082169050919050565b61264c81612617565b811461265757600080fd5b50565b60008135905061266981612643565b92915050565b60006020828403121561268557612684612526565b5b60006126938482850161265a565b91505092915050565b60008115159050919050565b6126b18161269c565b82525050565b60006020820190506126cc60008301846126a8565b92915050565b600081519050919050565b600082825260208201905092915050565b60005b8381101561270c5780820151818401526020810190506126f1565b60008484015250505050565b6000601f19601f8301169050919050565b6000612734826126d2565b61273e81856126dd565b935061274e8185602086016126ee565b61275781612718565b840191505092915050565b6000602082019050818103600083015261277c8184612729565b905092915050565b60006020828403121561279a57612799612526565b5b60006127a884828501612551565b91505092915050565b600073ffffffffffffffffffffffffffffffffffffffff82169050919050565b60006127dc826127b1565b9050919050565b6127ec816127d1565b82525050565b600060208201905061280760008301846127e3565b92915050565b612816816127d1565b811461282157600080fd5b50565b6000813590506128338161280d565b92915050565b600080604083850312156128505761284f612526565b5b600061285e85828601612824565b925050602061286f85828601612551565b9150509250929050565b60008060006060848603121561289257612891612526565b5b60006128a086828701612824565b93505060206128b186828701612824565b92505060406128c286828701612551565b9150509250925092565b6000602082840312156128e2576128e1612526565b5b60006128f084828501612824565b91505092915050565b612902816127d1565b82525050565b61291181612530565b82525050565b61292081612566565b82525050565b60808201600082015161293c60008501826128f9565b50602082015161294f6020850182612908565b5060408201516129626040850182612917565b5060608201516129756060850182612908565b50505050565b60006080820190506129906000830184612926565b92915050565b600080fd5b600080fd5b7f4e487b7100000000000000000000000000000000000000000000000000000000600052604160045260246000fd5b6129d882612718565b810181811067ffffffffffffffff821117156129f7576129f66129a0565b5b80604052505050565b6000612a0a61251c565b9050612a1682826129cf565b919050565b600067ffffffffffffffff821115612a3657612a356129a0565b5b612a3f82612718565b9050602081019050919050565b82818337600083830152505050565b6000612a6e612a6984612a1b565b612a00565b905082815260208101848484011115612a8a57612a8961299b565b5b612a95848285612a4c565b509392505050565b600082601f830112612ab257612ab1612996565b5b8135612ac2848260208601612a5b565b91505092915050565b600080600060608486031215612ae457612ae3612526565b5b600084013567ffffffffffffffff811115612b0257612b0161252b565b5b612b0e86828701612a9d565b935050602084013567ffffffffffffffff811115612b2f57612b2e61252b565b5b612b3b86828701612a9d565b925050604084013567ffffffffffffffff811115612b5c57612b5b61252b565b5b612b6886828701612a9d565b9150509250925092565b6000602082019050612b8760008301846125df565b92915050565b612b9681612530565b82525050565b6000602082019050612bb16000830184612b8d565b92915050565b612bc08161269c565b8114612bcb57600080fd5b50565b600081359050612bdd81612bb7565b92915050565b60008060408385031215612bfa57612bf9612526565b5b6000612c0885828601612824565b9250506020612c1985828601612bce565b9150509250929050565b600067ffffffffffffffff821115612c3e57612c3d6129a0565b5b612c4782612718565b9050602081019050919050565b6000612c67612c6284612c23565b612a00565b905082815260208101848484011115612c8357612c8261299b565b5b612c8e848285612a4c565b509392505050565b600082601f830112612cab57612caa612996565b5b8135612cbb848260208601612c54565b91505092915050565b60008060008060808587031215612cde57612cdd612526565b5b6000612cec87828801612824565b9450506020612cfd87828801612824565b9350506040612d0e87828801612551565b925050606085013567ffffffffffffffff811115612d2f57612d2e61252b565b5b612d3b87828801612c96565b91505092959194509250565b6000608082019050612d5c6000830187612b8d565b8181036020830152612d6e8186612729565b90508181036040830152612d828185612729565b90508181036060830152612d968184612729565b905095945050505050565b600081519050919050565b600082825260208201905092915050565b6000819050602082019050919050565b600082825260208201905092915050565b6000612de9826126d2565b612df38185612dcd565b9350612e038185602086016126ee565b612e0c81612718565b840191505092915050565b6000608083016000830151612e2f6000860182612908565b5060208301518482036020860152612e478282612dde565b91505060408301518482036040860152612e618282612dde565b91505060608301518482036060860152612e7b8282612dde565b9150508091505092915050565b6000612e948383612e17565b905092915050565b6000602082019050919050565b6000612eb482612da1565b612ebe8185612dac565b935083602082028501612ed085612dbd565b8060005b85811015612f0c5784840389528151612eed8582612e88565b9450612ef883612e9c565b925060208a01995050600181019050612ed4565b50829750879550505050505092915050565b60006020820190508181036000830152612f388184612ea9565b905092915050565b60008060408385031215612f5757612f56612526565b5b6000612f6585828601612824565b9250506020612f7685828601612824565b9150509250929050565b7f4e487b7100000000000000000000000000000000000000000000000000000000600052603260045260246000fd5b7f4e487b7100000000000000000000000000000000000000000000000000000000600052601160045260246000fd5b6000612fe982612530565b9150612ff483612530565b925082820190508082111561300c5761300b612faf565b5b92915050565b600061301d82612530565b91507fffffffffffffffffffffffffffffffffffffffffffffffffffffffffffffffff820361304f5761304e612faf565b5b600182019050919050565b7f4e487b7100000000000000000000000000000000000000000000000000000000600052601260045260246000fd5b600061309482612530565b915061309f83612530565b9250826130af576130ae61305a565b5b828204905092915050565b7f4e487b7100000000000000000000000000000000000000000000000000000000600052602260045260246000fd5b6000600282049050600182168061310157607f821691505b602082108103613114576131136130ba565b5b50919050565b7f4552433732313a20617070726f76616c20746f2063757272656e74206f776e6560008201527f7200000000000000000000000000000000000000000000000000000000000000602082015250565b60006131766021836126dd565b91506131818261311a565b604082019050919050565b600060208201905081810360008301526131a581613169565b9050919050565b7f4552433732313a20617070726f76652063616c6c6572206973206e6f7420746f60008201527f6b656e206f776e6572206f7220617070726f76656420666f7220616c6c000000602082015250565b6000613208603d836126dd565b9150613213826131ac565b604082019050919050565b60006020820190508181036000830152613237816131fb565b9050919050565b7f4552433732313a2063616c6c6572206973206e6f7420746f6b656e206f776e6560008201527f72206f7220617070726f76656400000000000000000000000000000000000000602082015250565b600061329a602d836126dd565b91506132a58261323e565b604082019050919050565b600060208201905081810360008301526132c98161328d565b9050919050565b60008190508160005260206000209050919050565b60006020601f8301049050919050565b600082821b905092915050565b6000600883026133327fffffffffffffffffffffffffffffffffffffffffffffffffffffffffffffffff826132f5565b61333c86836132f5565b95508019841693508086168417925050509392505050565b6000819050919050565b600061337961337461336f84612530565b613354565b612530565b9050919050565b6000819050919050565b6133938361335e565b6133a761339f82613380565b848454613302565b825550505050565b600090565b6133bc6133af565b6133c781848461338a565b505050565b5b818110156133eb576133e06000826133b4565b6001810190506133cd565b5050565b601f82111561343057613401816132d0565b61340a846132e5565b81016020851015613419578190505b61342d613425856132e5565b8301826133cc565b50505b505050565b600082821c905092915050565b600061345360001984600802613435565b1980831691505092915050565b600061346c8383613442565b9150826002028217905092915050565b613485826126d2565b67ffffffffffffffff81111561349e5761349d6129a0565b5b6134a882546130e9565b6134b38282856133ef565b600060209050601f8311600181146134e657600084156134d4578287015190505b6134de8582613460565b865550613546565b601f1984166134f4866132d0565b60005b8281101561351c578489015182556001820191506020850194506020810190506134f7565b868310156135395784890151613535601f891682613442565b8355505b6001600288020188555050505b505050505050565b7f4552433732313a20696e76616c696420746f6b656e2049440000000000000000600082015250565b60006135846018836126dd565b915061358f8261354e565b602082019050919050565b600060208201905081810360008301526135b381613577565b9050919050565b7f4552433732313a2061646472657373207a65726f206973206e6f74206120766160008201527f6c6964206f776e65720000000000000000000000000000000000000000000000602082015250565b60006136166029836126dd565b9150613621826135ba565b604082019050919050565b6000602082019050818103600083015261364581613609565b9050919050565b600081905092915050565b6000613662826126d2565b61366c818561364c565b935061367c8185602086016126ee565b80840191505092915050565b60006136948285613657565b91506136a08284613657565b91508190509392505050565b7f4552433732313a207472616e736665722066726f6d20696e636f72726563742060008201527f6f776e6572000000000000000000000000000000000000000000000000000000602082015250565b60006137086025836126dd565b9150613713826136ac565b604082019050919050565b60006020820190508181036000830152613737816136fb565b9050919050565b7f4552433732313a207472616e7366657220746f20746865207a65726f2061646460008201527f7265737300000000000000000000000000000000000000000000000000000000602082015250565b600061379a6024836126dd565b91506137a58261373e565b604082019050919050565b600060208201905081810360008301526137c98161378d565b9050919050565b7f4552433732313a206d696e7420746f20746865207a65726f2061646472657373600082015250565b60006138066020836126dd565b9150613811826137d0565b602082019050919050565b60006020820190508181036000830152613835816137f9565b9050919050565b7f4552433732313a20746f6b656e20616c7265616479206d696e74656400000000600082015250565b6000613872601c836126dd565b915061387d8261383c565b602082019050919050565b600060208201905081810360008301526138a181613865565b9050919050565b7f45524337323155524953746f726167653a2055524920736574206f66206e6f6e60008201527f6578697374656e7420746f6b656e000000000000000000000000000000000000602082015250565b6000613904602e836126dd565b915061390f826138a8565b604082019050919050565b60006020820190508181036000830152613933816138f7565b9050919050565b7f4552433732313a20617070726f766520746f2063616c6c657200000000000000600082015250565b60006139706019836126dd565b915061397b8261393a565b602082019050919050565b6000602082019050818103600083015261399f81613963565b9050919050565b7f4552433732313a207472616e7366657220746f206e6f6e20455243373231526560008201527f63656976657220696d706c656d656e7465720000000000000000000000000000602082015250565b6000613a026032836126dd565b9150613a0d826139a6565b604082019050919050565b60006020820190508181036000830152613a31816139f5565b9050919050565b6000613a4382612530565b9150613a4e83612530565b9250828203905081811115613a6657613a65612faf565b5b92915050565b600081519050919050565b600082825260208201905092915050565b6000613a9382613a6c565b613a9d8185613a77565b9350613aad8185602086016126ee565b613ab681612718565b840191505092915050565b6000608082019050613ad660008301876127e3565b613ae360208301866127e3565b613af06040830185612b8d565b8181036060830152613b028184613a88565b905095945050505050565b600081519050613b1c81612643565b92915050565b600060208284031215613b3857613b37612526565b5b6000613b4684828501613b0d565b9150509291505056fea264697066735822122001b2fc26964744989d47fefb51c5655ae049c52916fcf1c377ddf917851b9e3264736f6c63430008110033",
  "immutableReferences": {},
  "source": "// SPDX-License-Identifier: MIT\npragma solidity ^0.8.4;\n\nimport \"@openzeppelin/contracts/token/ERC721/extensions/ERC721URIStorage.sol\";\nimport \"@openzeppelin/contracts/utils/Strings.sol\";\n\ncontract MoviesNFT is ERC721URIStorage {\n    uint256 MAX_RATING_COUNT = 100000000000;\n    uint256 private movieNumber = 1;\n    address private _owner; // owner of the movie NFT\n\n    struct movieData {\n        uint256 movieNumber;\n        string movieName;\n        string movieDescription;\n        string ipfsHash;\n    }\n\n    struct rating {\n        address ratingOwner; // address who made the rating\n        uint256 movieNumber; // number of the movie for which the rating is being casted\n        uint8 ratingVal; // must be between 1(min rate) and 10(max rate)\n        uint256 createdAt; // timestamp of rating\n    }\n\n    movieData[] movies;\n    rating[] ratings;\n    mapping(address => rating) userRating;\n    // mapping(uint256 => rating[]) movieRating;\n    mapping(uint256 => uint8) movieRatingAverage;\n\n    constructor(address owner) ERC721(\"MovieNFT\", \"MNFT\") {\n        _owner = owner;\n    }\n\n    function createMovieNft(\n        string memory name,\n        string memory description,\n        string memory ipfsHash\n    ) public {\n        require(msg.sender == _owner);\n\n        movieData memory nextMovie = movieData(\n            movieNumber,\n            name,\n            description,\n            ipfsHash\n        );\n\n        movies.push(nextMovie);\n        _mint(msg.sender, movieNumber);\n        _setTokenURI(movieNumber, ipfsHash);\n        movieNumber++;\n    }\n\n    function getAllMovies() public view returns (movieData[] memory) {\n        return movies;\n    }\n\n    function getMovieByNumber(uint256 _movieNum)\n        public\n        view\n        returns (\n            uint256,\n            string memory,\n            string memory,\n            string memory\n        )\n    {\n        for (uint256 i = 0; i < movieNumber; i++) {\n            if (movies[i].movieNumber == _movieNum) {\n                return (\n                    movies[i].movieNumber,\n                    movies[i].movieName,\n                    movies[i].movieDescription,\n                    movies[i].ipfsHash\n                );\n            }\n        }\n        return (0, \"\", \"\", \"\");\n    }\n\n    function castMovieRating(uint256 _movieNum, uint8 ratingVal)\n        public\n        returns (uint8, uint8)\n    {\n        rating memory r = rating(\n            msg.sender,\n            _movieNum,\n            ratingVal,\n            block.timestamp\n        );\n\n        userRating[msg.sender] = r;\n        // rating[] storage prevMovieR = movieRating[movieNum];\n        // prevMovieR.push(r);\n        // movieRating[movieNum] = prevMovieR;\n        ratings.push(r);\n\n        // TODO: Calculate average and store in storage\n        uint256 s = 0;\n        uint256 n = 0;\n        for (uint256 i = 0; i < ratings.length; i++) {\n            if (ratings[i].movieNumber == _movieNum) {\n                s = s + ratings[i].ratingVal;\n                n++;\n            }\n        }\n        uint8 avg = uint8(s / n);\n\n        return (ratingVal, avg);\n    }\n\n    function getAvgMovieRating(uint256 _movieNum) public view returns (uint8) {\n        uint256 s = 0;\n        uint256 n = 0;\n        for (uint256 i = 0; i < ratings.length; i++) {\n            if (ratings[i].movieNumber == _movieNum) {\n                s = s + ratings[i].ratingVal;\n                n++;\n            }\n        }\n        uint8 avg = uint8(s / n);\n        return avg;\n    }\n\n    // function getMovieRatings(uint256 _movieNum)\n    //     public\n    //     view\n    //     returns (rating[] memory)\n    // {\n    //     // rating[] memory rs = movieRating[movieNum];\n    //     // return rs;\n    //     rating[] memory allRs = new rating[](10000000);\n    //     for (uint256 i = 0; i < movieNumber; i++) {\n    //         if (ratings[i].movieNumber == _movieNum) {\n    //             allRs.push(ratings[i]);\n    //         }\n    //     }\n    //     return allRs;\n    // }\n\n    function getUserRating(address userAdd)\n        public\n        view\n        returns (rating memory)\n    {\n        rating memory rs = userRating[userAdd];\n        return rs;\n    }\n}\n",
  "sourcePath": "/Users/sagaranand/Documents/workspace-open/chainlink-2022/web3-imdb/_backend/contracts/MoviesNFT.sol",
  "compiler": {
    "name": "solc",
    "version": "0.8.17+commit.8df45f5f.Emscripten.clang"
  },
  "schemaVersion": "3.4.10",
  "updatedAt": "2022-11-16T21:06:56.318Z",
  "devdoc": {
    "kind": "dev",
    "methods": {
      "approve(address,uint256)": {
        "details": "See {IERC721-approve}."
      },
      "balanceOf(address)": {
        "details": "See {IERC721-balanceOf}."
      },
      "getApproved(uint256)": {
        "details": "See {IERC721-getApproved}."
      },
      "isApprovedForAll(address,address)": {
        "details": "See {IERC721-isApprovedForAll}."
      },
      "name()": {
        "details": "See {IERC721Metadata-name}."
      },
      "ownerOf(uint256)": {
        "details": "See {IERC721-ownerOf}."
      },
      "safeTransferFrom(address,address,uint256)": {
        "details": "See {IERC721-safeTransferFrom}."
      },
      "safeTransferFrom(address,address,uint256,bytes)": {
        "details": "See {IERC721-safeTransferFrom}."
      },
      "setApprovalForAll(address,bool)": {
        "details": "See {IERC721-setApprovalForAll}."
      },
      "supportsInterface(bytes4)": {
        "details": "See {IERC165-supportsInterface}."
      },
      "symbol()": {
        "details": "See {IERC721Metadata-symbol}."
      },
      "tokenURI(uint256)": {
        "details": "See {IERC721Metadata-tokenURI}."
      },
      "transferFrom(address,address,uint256)": {
        "details": "See {IERC721-transferFrom}."
      }
    },
    "version": 1
  },
  "userdoc": {
    "kind": "user",
    "methods": {},
    "version": 1
  }
}