{
  "contractName": "MoviesNFT",
  "abi": [
    {
      "inputs": [
        {
          "internalType": "address",
          "name": "owner",
          "type": "address"
        }
      ],
      "stateMutability": "nonpayable",
      "type": "constructor"
    },
    {
      "anonymous": false,
      "inputs": [
        {
          "indexed": true,
          "internalType": "address",
          "name": "owner",
          "type": "address"
        },
        {
          "indexed": true,
          "internalType": "address",
          "name": "approved",
          "type": "address"
        },
        {
          "indexed": true,
          "internalType": "uint256",
          "name": "tokenId",
          "type": "uint256"
        }
      ],
      "name": "Approval",
      "type": "event"
    },
    {
      "anonymous": false,
      "inputs": [
        {
          "indexed": true,
          "internalType": "address",
          "name": "owner",
          "type": "address"
        },
        {
          "indexed": true,
          "internalType": "address",
          "name": "operator",
          "type": "address"
        },
        {
          "indexed": false,
          "internalType": "bool",
          "name": "approved",
          "type": "bool"
        }
      ],
      "name": "ApprovalForAll",
      "type": "event"
    },
    {
      "anonymous": false,
      "inputs": [
        {
          "indexed": true,
          "internalType": "address",
          "name": "from",
          "type": "address"
        },
        {
          "indexed": true,
          "internalType": "address",
          "name": "to",
          "type": "address"
        },
        {
          "indexed": true,
          "internalType": "uint256",
          "name": "tokenId",
          "type": "uint256"
        }
      ],
      "name": "Transfer",
      "type": "event"
    },
    {
      "inputs": [
        {
          "internalType": "address",
          "name": "to",
          "type": "address"
        },
        {
          "internalType": "uint256",
          "name": "tokenId",
          "type": "uint256"
        }
      ],
      "name": "approve",
      "outputs": [],
      "stateMutability": "nonpayable",
      "type": "function"
    },
    {
      "inputs": [
        {
          "internalType": "address",
          "name": "owner",
          "type": "address"
        }
      ],
      "name": "balanceOf",
      "outputs": [
        {
          "internalType": "uint256",
          "name": "",
          "type": "uint256"
        }
      ],
      "stateMutability": "view",
      "type": "function",
      "constant": true
    },
    {
      "inputs": [
        {
          "internalType": "uint256",
          "name": "tokenId",
          "type": "uint256"
        }
      ],
      "name": "getApproved",
      "outputs": [
        {
          "internalType": "address",
          "name": "",
          "type": "address"
        }
      ],
      "stateMutability": "view",
      "type": "function",
      "constant": true
    },
    {
      "inputs": [
        {
          "internalType": "address",
          "name": "owner",
          "type": "address"
        },
        {
          "internalType": "address",
          "name": "operator",
          "type": "address"
        }
      ],
      "name": "isApprovedForAll",
      "outputs": [
        {
          "internalType": "bool",
          "name": "",
          "type": "bool"
        }
      ],
      "stateMutability": "view",
      "type": "function",
      "constant": true
    },
    {
      "inputs": [],
      "name": "name",
      "outputs": [
        {
          "internalType": "string",
          "name": "",
          "type": "string"
        }
      ],
      "stateMutability": "view",
      "type": "function",
      "constant": true
    },
    {
      "inputs": [
        {
          "internalType": "uint256",
          "name": "tokenId",
          "type": "uint256"
        }
      ],
      "name": "ownerOf",
      "outputs": [
        {
          "internalType": "address",
          "name": "",
          "type": "address"
        }
      ],
      "stateMutability": "view",
      "type": "function",
      "constant": true
    },
    {
      "inputs": [
        {
          "internalType": "address",
          "name": "from",
          "type": "address"
        },
        {
          "internalType": "address",
          "name": "to",
          "type": "address"
        },
        {
          "internalType": "uint256",
          "name": "tokenId",
          "type": "uint256"
        }
      ],
      "name": "safeTransferFrom",
      "outputs": [],
      "stateMutability": "nonpayable",
      "type": "function"
    },
    {
      "inputs": [
        {
          "internalType": "address",
          "name": "from",
          "type": "address"
        },
        {
          "internalType": "address",
          "name": "to",
          "type": "address"
        },
        {
          "internalType": "uint256",
          "name": "tokenId",
          "type": "uint256"
        },
        {
          "internalType": "bytes",
          "name": "data",
          "type": "bytes"
        }
      ],
      "name": "safeTransferFrom",
      "outputs": [],
      "stateMutability": "nonpayable",
      "type": "function"
    },
    {
      "inputs": [
        {
          "internalType": "address",
          "name": "operator",
          "type": "address"
        },
        {
          "internalType": "bool",
          "name": "approved",
          "type": "bool"
        }
      ],
      "name": "setApprovalForAll",
      "outputs": [],
      "stateMutability": "nonpayable",
      "type": "function"
    },
    {
      "inputs": [
        {
          "internalType": "bytes4",
          "name": "interfaceId",
          "type": "bytes4"
        }
      ],
      "name": "supportsInterface",
      "outputs": [
        {
          "internalType": "bool",
          "name": "",
          "type": "bool"
        }
      ],
      "stateMutability": "view",
      "type": "function",
      "constant": true
    },
    {
      "inputs": [],
      "name": "symbol",
      "outputs": [
        {
          "internalType": "string",
          "name": "",
          "type": "string"
        }
      ],
      "stateMutability": "view",
      "type": "function",
      "constant": true
    },
    {
      "inputs": [
        {
          "internalType": "uint256",
          "name": "tokenId",
          "type": "uint256"
        }
      ],
      "name": "tokenURI",
      "outputs": [
        {
          "internalType": "string",
          "name": "",
          "type": "string"
        }
      ],
      "stateMutability": "view",
      "type": "function",
      "constant": true
    },
    {
      "inputs": [
        {
          "internalType": "address",
          "name": "from",
          "type": "address"
        },
        {
          "internalType": "address",
          "name": "to",
          "type": "address"
        },
        {
          "internalType": "uint256",
          "name": "tokenId",
          "type": "uint256"
        }
      ],
      "name": "transferFrom",
      "outputs": [],
      "stateMutability": "nonpayable",
      "type": "function"
    },
    {
      "inputs": [
        {
          "internalType": "string",
          "name": "name",
          "type": "string"
        },
        {
          "internalType": "string",
          "name": "description",
          "type": "string"
        },
        {
          "internalType": "string",
          "name": "release",
          "type": "string"
        },
        {
          "internalType": "string",
          "name": "director",
          "type": "string"
        },
        {
          "internalType": "string",
          "name": "imageURL",
          "type": "string"
        },
        {
          "internalType": "string",
          "name": "ipfsHash",
          "type": "string"
        }
      ],
      "name": "createMovieNft",
      "outputs": [],
      "stateMutability": "nonpayable",
      "type": "function"
    },
    {
      "inputs": [],
      "name": "getAllMovies",
      "outputs": [
        {
          "components": [
            {
              "internalType": "uint256",
              "name": "movieNumber",
              "type": "uint256"
            },
            {
              "internalType": "string",
              "name": "movieName",
              "type": "string"
            },
            {
              "internalType": "string",
              "name": "movieDescription",
              "type": "string"
            },
            {
              "internalType": "string",
              "name": "release",
              "type": "string"
            },
            {
              "internalType": "string",
              "name": "director",
              "type": "string"
            },
            {
              "internalType": "string",
              "name": "imageURL",
              "type": "string"
            },
            {
              "internalType": "string",
              "name": "ipfsHash",
              "type": "string"
            }
          ],
          "internalType": "struct MoviesNFT.movieData[]",
          "name": "",
          "type": "tuple[]"
        }
      ],
      "stateMutability": "view",
      "type": "function",
      "constant": true
    },
    {
      "inputs": [
        {
          "internalType": "uint256",
          "name": "_movieNum",
          "type": "uint256"
        }
      ],
      "name": "getMovieByNumber",
      "outputs": [
        {
          "internalType": "uint256",
          "name": "",
          "type": "uint256"
        },
        {
          "internalType": "string",
          "name": "",
          "type": "string"
        },
        {
          "internalType": "string",
          "name": "",
          "type": "string"
        },
        {
          "internalType": "string",
          "name": "",
          "type": "string"
        },
        {
          "internalType": "string",
          "name": "",
          "type": "string"
        },
        {
          "internalType": "string",
          "name": "",
          "type": "string"
        },
        {
          "internalType": "string",
          "name": "",
          "type": "string"
        }
      ],
      "stateMutability": "view",
      "type": "function",
      "constant": true
    },
    {
      "inputs": [
        {
          "internalType": "uint256",
          "name": "_movieNum",
          "type": "uint256"
        },
        {
          "internalType": "uint8",
          "name": "ratingVal",
          "type": "uint8"
        }
      ],
      "name": "castMovieRating",
      "outputs": [],
      "stateMutability": "nonpayable",
      "type": "function"
    },
    {
      "inputs": [
        {
          "internalType": "uint256",
          "name": "_movieNum",
          "type": "uint256"
        }
      ],
      "name": "getAvgMovieRating",
      "outputs": [
        {
          "internalType": "uint8",
          "name": "",
          "type": "uint8"
        }
      ],
      "stateMutability": "view",
      "type": "function",
      "constant": true
    },
    {
      "inputs": [
        {
          "internalType": "address",
          "name": "userAdd",
          "type": "address"
        }
      ],
      "name": "getUserRating",
      "outputs": [
        {
          "internalType": "bool",
          "name": "",
          "type": "bool"
        },
        {
          "components": [
            {
              "internalType": "address",
              "name": "ratingOwner",
              "type": "address"
            },
            {
              "internalType": "uint256",
              "name": "movieNumber",
              "type": "uint256"
            },
            {
              "internalType": "uint8",
              "name": "ratingVal",
              "type": "uint8"
            },
            {
              "internalType": "uint256",
              "name": "createdAt",
              "type": "uint256"
            }
          ],
          "internalType": "struct MoviesNFT.rating",
          "name": "",
          "type": "tuple"
        }
      ],
      "stateMutability": "view",
      "type": "function",
      "constant": true
    }
  ],
  "bytecode": "0x608060405264174876e80060075560016008553480156200001f57600080fd5b506040516200464f3803806200464f833981810160405281019062000045919062000189565b6040518060400160405280600881526020017f4d6f7669654e46540000000000000000000000000000000000000000000000008152506040518060400160405280600481526020017f4d4e4654000000000000000000000000000000000000000000000000000000008152508160009081620000c2919062000435565b508060019081620000d4919062000435565b50505080600960006101000a81548173ffffffffffffffffffffffffffffffffffffffff021916908373ffffffffffffffffffffffffffffffffffffffff160217905550506200051c565b600080fd5b600073ffffffffffffffffffffffffffffffffffffffff82169050919050565b6000620001518262000124565b9050919050565b620001638162000144565b81146200016f57600080fd5b50565b600081519050620001838162000158565b92915050565b600060208284031215620001a257620001a16200011f565b5b6000620001b28482850162000172565b91505092915050565b600081519050919050565b7f4e487b7100000000000000000000000000000000000000000000000000000000600052604160045260246000fd5b7f4e487b7100000000000000000000000000000000000000000000000000000000600052602260045260246000fd5b600060028204905060018216806200023d57607f821691505b602082108103620002535762000252620001f5565b5b50919050565b60008190508160005260206000209050919050565b60006020601f8301049050919050565b600082821b905092915050565b600060088302620002bd7fffffffffffffffffffffffffffffffffffffffffffffffffffffffffffffffff826200027e565b620002c986836200027e565b95508019841693508086168417925050509392505050565b6000819050919050565b6000819050919050565b600062000316620003106200030a84620002e1565b620002eb565b620002e1565b9050919050565b6000819050919050565b6200033283620002f5565b6200034a62000341826200031d565b8484546200028b565b825550505050565b600090565b6200036162000352565b6200036e81848462000327565b505050565b5b8181101562000396576200038a60008262000357565b60018101905062000374565b5050565b601f821115620003e557620003af8162000259565b620003ba846200026e565b81016020851015620003ca578190505b620003e2620003d9856200026e565b83018262000373565b50505b505050565b600082821c905092915050565b60006200040a60001984600802620003ea565b1980831691505092915050565b6000620004258383620003f7565b9150826002028217905092915050565b6200044082620001bb565b67ffffffffffffffff8111156200045c576200045b620001c6565b5b62000468825462000224565b620004758282856200039a565b600060209050601f831160018114620004ad576000841562000498578287015190505b620004a4858262000417565b86555062000514565b601f198416620004bd8662000259565b60005b82811015620004e757848901518255600182019150602085019450602081019050620004c0565b8683101562000507578489015162000503601f891682620003f7565b8355505b6001600288020188555050505b505050505050565b614123806200052c6000396000f3fe608060405234801561001057600080fd5b50600436106101205760003560e01c80636b3f30d4116100ad578063b88d4fde11610071578063b88d4fde1461032a578063c87b56dd14610346578063de5d9f3e14610376578063e16f0065146103ac578063e985e9c5146103ca57610120565b80636b3f30d4146102745780636c990ef1146102a457806370a08231146102c057806395d89b41146102f0578063a22cb4651461030e57610120565b8063095ea7b3116100f4578063095ea7b3146101bf57806323b872dd146101db57806342842e0e146101f7578063460168c3146102135780636352211e1461024457610120565b80620a09c01461012557806301ffc9a71461014157806306fdde0314610171578063081812fc1461018f575b600080fd5b61013f600480360381019061013a9190612a3d565b6103fa565b005b61015b60048036038101906101569190612ad5565b610691565b6040516101689190612b1d565b60405180910390f35b610179610773565b6040516101869190612bc8565b60405180910390f35b6101a960048036038101906101a49190612bea565b610805565b6040516101b69190612c58565b60405180910390f35b6101d960048036038101906101d49190612c9f565b61084b565b005b6101f560048036038101906101f09190612cdf565b610962565b005b610211600480360381019061020c9190612cdf565b6109c2565b005b61022d60048036038101906102289190612d32565b6109e2565b60405161023b929190612de1565b60405180910390f35b61025e60048036038101906102599190612bea565b610aec565b60405161026b9190612c58565b60405180910390f35b61028e60048036038101906102899190612bea565b610b72565b60405161029b9190612e19565b60405180910390f35b6102be60048036038101906102b99190612f69565b610c37565b005b6102da60048036038101906102d59190612d32565b610dbf565b6040516102e791906130ad565b60405180910390f35b6102f8610e76565b6040516103059190612bc8565b60405180910390f35b610328600480360381019061032391906130f4565b610f08565b005b610344600480360381019061033f91906131d5565b610f1e565b005b610360600480360381019061035b9190612bea565b610f80565b60405161036d9190612bc8565b60405180910390f35b610390600480360381019061038b9190612bea565b611092565b6040516103a39796959493929190613258565b60405180910390f35b6103b46115c6565b6040516103c191906134bc565b60405180910390f35b6103e460048036038101906103df91906134de565b61199b565b6040516103f19190612b1d565b60405180910390f35b6000600c60003373ffffffffffffffffffffffffffffffffffffffff1673ffffffffffffffffffffffffffffffffffffffff1681526020019081526020016000206040518060800160405290816000820160009054906101000a900473ffffffffffffffffffffffffffffffffffffffff1673ffffffffffffffffffffffffffffffffffffffff1673ffffffffffffffffffffffffffffffffffffffff168152602001600182015481526020016002820160009054906101000a900460ff1660ff1660ff16815260200160038201548152505090506000816040015160ff1611156104e457600080fd5b600060405180608001604052803373ffffffffffffffffffffffffffffffffffffffff1681526020018581526020018460ff16815260200142815250905080600c60003373ffffffffffffffffffffffffffffffffffffffff1673ffffffffffffffffffffffffffffffffffffffff16815260200190815260200160002060008201518160000160006101000a81548173ffffffffffffffffffffffffffffffffffffffff021916908373ffffffffffffffffffffffffffffffffffffffff1602179055506020820151816001015560408201518160020160006101000a81548160ff021916908360ff16021790555060608201518160030155905050600b81908060018154018082558091505060019003906000526020600020906004020160009091909190915060008201518160000160006101000a81548173ffffffffffffffffffffffffffffffffffffffff021916908373ffffffffffffffffffffffffffffffffffffffff1602179055506020820151816001015560408201518160020160006101000a81548160ff021916908360ff16021790555060608201518160030155505050505050565b60007f80ac58cd000000000000000000000000000000000000000000000000000000007bffffffffffffffffffffffffffffffffffffffffffffffffffffffff1916827bffffffffffffffffffffffffffffffffffffffffffffffffffffffff1916148061075c57507f5b5e139f000000000000000000000000000000000000000000000000000000007bffffffffffffffffffffffffffffffffffffffffffffffffffffffff1916827bffffffffffffffffffffffffffffffffffffffffffffffffffffffff1916145b8061076c575061076b82611a2f565b5b9050919050565b6060600080546107829061354d565b80601f01602080910402602001604051908101604052809291908181526020018280546107ae9061354d565b80156107fb5780601f106107d0576101008083540402835291602001916107fb565b820191906000526020600020905b8154815290600101906020018083116107de57829003601f168201915b5050505050905090565b600061081082611a99565b6004600083815260200190815260200160002060009054906101000a900473ffffffffffffffffffffffffffffffffffffffff169050919050565b600061085682610aec565b90508073ffffffffffffffffffffffffffffffffffffffff168373ffffffffffffffffffffffffffffffffffffffff16036108c6576040517f08c379a00000000000000000000000000000000000000000000000000000000081526004016108bd906135f0565b60405180910390fd5b8073ffffffffffffffffffffffffffffffffffffffff166108e5611ae4565b73ffffffffffffffffffffffffffffffffffffffff16148061091457506109138161090e611ae4565b61199b565b5b610953576040517f08c379a000000000000000000000000000000000000000000000000000000000815260040161094a90613682565b60405180910390fd5b61095d8383611aec565b505050565b61097361096d611ae4565b82611ba5565b6109b2576040517f08c379a00000000000000000000000000000000000000000000000000000000081526004016109a990613714565b60405180910390fd5b6109bd838383611c3a565b505050565b6109dd83838360405180602001604052806000815250610f1e565b505050565b60006109ec612979565b6000600c60008573ffffffffffffffffffffffffffffffffffffffff1673ffffffffffffffffffffffffffffffffffffffff1681526020019081526020016000206040518060800160405290816000820160009054906101000a900473ffffffffffffffffffffffffffffffffffffffff1673ffffffffffffffffffffffffffffffffffffffff1673ffffffffffffffffffffffffffffffffffffffff168152602001600182015481526020016002820160009054906101000a900460ff1660ff1660ff16815260200160038201548152505090506000816040015160ff161115610ade576001819250925050610ae7565b60008192509250505b915091565b600080610af883611f33565b9050600073ffffffffffffffffffffffffffffffffffffffff168173ffffffffffffffffffffffffffffffffffffffff1603610b69576040517f08c379a0000000000000000000000000000000000000000000000000000000008152600401610b6090613780565b60405180910390fd5b80915050919050565b600080600090506000805b600b80549050811015610c1b5784600b8281548110610b9f57610b9e6137a0565b5b90600052602060002090600402016001015403610c0857600b8181548110610bca57610bc96137a0565b5b906000526020600020906004020160020160009054906101000a900460ff1660ff1683610bf791906137fe565b92508180610c0490613832565b9250505b8080610c1390613832565b915050610b7d565b5060008183610c2a91906138a9565b9050809350505050919050565b600960009054906101000a900473ffffffffffffffffffffffffffffffffffffffff1673ffffffffffffffffffffffffffffffffffffffff163373ffffffffffffffffffffffffffffffffffffffff1614610c9157600080fd5b60006040518060e001604052806008548152602001888152602001878152602001868152602001858152602001848152602001838152509050600a819080600181540180825580915050600190039060005260206000209060070201600090919091909150600082015181600001556020820151816001019081610d159190613a86565b506040820151816002019081610d2b9190613a86565b506060820151816003019081610d419190613a86565b506080820151816004019081610d579190613a86565b5060a0820151816005019081610d6d9190613a86565b5060c0820151816006019081610d839190613a86565b505050610d9233600854611f70565b610d9e6008548361218d565b60086000815480929190610db190613832565b919050555050505050505050565b60008073ffffffffffffffffffffffffffffffffffffffff168273ffffffffffffffffffffffffffffffffffffffff1603610e2f576040517f08c379a0000000000000000000000000000000000000000000000000000000008152600401610e2690613bca565b60405180910390fd5b600360008373ffffffffffffffffffffffffffffffffffffffff1673ffffffffffffffffffffffffffffffffffffffff168152602001908152602001600020549050919050565b606060018054610e859061354d565b80601f0160208091040260200160405190810160405280929190818152602001828054610eb19061354d565b8015610efe5780601f10610ed357610100808354040283529160200191610efe565b820191906000526020600020905b815481529060010190602001808311610ee157829003601f168201915b5050505050905090565b610f1a610f13611ae4565b83836121fa565b5050565b610f2f610f29611ae4565b83611ba5565b610f6e576040517f08c379a0000000000000000000000000000000000000000000000000000000008152600401610f6590613714565b60405180910390fd5b610f7a84848484612366565b50505050565b6060610f8b82611a99565b6000600660008481526020019081526020016000208054610fab9061354d565b80601f0160208091040260200160405190810160405280929190818152602001828054610fd79061354d565b80156110245780601f10610ff957610100808354040283529160200191611024565b820191906000526020600020905b81548152906001019060200180831161100757829003601f168201915b5050505050905060006110356123c2565b9050600081510361104a57819250505061108d565b60008251111561107f578082604051602001611067929190613c26565b6040516020818303038152906040529250505061108d565b611088846123d9565b925050505b919050565b600060608060608060608060005b6008548110156115495788600a82815481106110bf576110be6137a0565b5b9060005260206000209060070201600001540361153657600a81815481106110ea576110e96137a0565b5b906000526020600020906007020160000154600a82815481106111105761110f6137a0565b5b9060005260206000209060070201600101600a8381548110611135576111346137a0565b5b9060005260206000209060070201600201600a848154811061115a576111596137a0565b5b9060005260206000209060070201600301600a858154811061117f5761117e6137a0565b5b9060005260206000209060070201600401600a86815481106111a4576111a36137a0565b5b9060005260206000209060070201600501600a87815481106111c9576111c86137a0565b5b90600052602060002090600702016006018580546111e69061354d565b80601f01602080910402602001604051908101604052809291908181526020018280546112129061354d565b801561125f5780601f106112345761010080835404028352916020019161125f565b820191906000526020600020905b81548152906001019060200180831161124257829003601f168201915b505050505095508480546112729061354d565b80601f016020809104026020016040519081016040528092919081815260200182805461129e9061354d565b80156112eb5780601f106112c0576101008083540402835291602001916112eb565b820191906000526020600020905b8154815290600101906020018083116112ce57829003601f168201915b505050505094508380546112fe9061354d565b80601f016020809104026020016040519081016040528092919081815260200182805461132a9061354d565b80156113775780601f1061134c57610100808354040283529160200191611377565b820191906000526020600020905b81548152906001019060200180831161135a57829003601f168201915b5050505050935082805461138a9061354d565b80601f01602080910402602001604051908101604052809291908181526020018280546113b69061354d565b80156114035780601f106113d857610100808354040283529160200191611403565b820191906000526020600020905b8154815290600101906020018083116113e657829003601f168201915b505050505092508180546114169061354d565b80601f01602080910402602001604051908101604052809291908181526020018280546114429061354d565b801561148f5780601f106114645761010080835404028352916020019161148f565b820191906000526020600020905b81548152906001019060200180831161147257829003601f168201915b505050505091508080546114a29061354d565b80601f01602080910402602001604051908101604052809291908181526020018280546114ce9061354d565b801561151b5780601f106114f05761010080835404028352916020019161151b565b820191906000526020600020905b8154815290600101906020018083116114fe57829003601f168201915b505050505090509750975097509750975097509750506115bb565b808061154190613832565b9150506110a0565b50600060405180602001604052806000815250604051806020016040528060008152506040518060200160405280600081525060405180602001604052806000815250604051806020016040528060008152506040518060200160405280600081525096509650965096509650965096505b919395979092949650565b6060600a805480602002602001604051908101604052809291908181526020016000905b8282101561199257838290600052602060002090600702016040518060e0016040529081600082015481526020016001820180546116279061354d565b80601f01602080910402602001604051908101604052809291908181526020018280546116539061354d565b80156116a05780601f10611675576101008083540402835291602001916116a0565b820191906000526020600020905b81548152906001019060200180831161168357829003601f168201915b505050505081526020016002820180546116b99061354d565b80601f01602080910402602001604051908101604052809291908181526020018280546116e59061354d565b80156117325780601f1061170757610100808354040283529160200191611732565b820191906000526020600020905b81548152906001019060200180831161171557829003601f168201915b5050505050815260200160038201805461174b9061354d565b80601f01602080910402602001604051908101604052809291908181526020018280546117779061354d565b80156117c45780601f10611799576101008083540402835291602001916117c4565b820191906000526020600020905b8154815290600101906020018083116117a757829003601f168201915b505050505081526020016004820180546117dd9061354d565b80601f01602080910402602001604051908101604052809291908181526020018280546118099061354d565b80156118565780601f1061182b57610100808354040283529160200191611856565b820191906000526020600020905b81548152906001019060200180831161183957829003601f168201915b5050505050815260200160058201805461186f9061354d565b80601f016020809104026020016040519081016040528092919081815260200182805461189b9061354d565b80156118e85780601f106118bd576101008083540402835291602001916118e8565b820191906000526020600020905b8154815290600101906020018083116118cb57829003601f168201915b505050505081526020016006820180546119019061354d565b80601f016020809104026020016040519081016040528092919081815260200182805461192d9061354d565b801561197a5780601f1061194f5761010080835404028352916020019161197a565b820191906000526020600020905b81548152906001019060200180831161195d57829003601f168201915b505050505081525050815260200190600101906115ea565b50505050905090565b6000600560008473ffffffffffffffffffffffffffffffffffffffff1673ffffffffffffffffffffffffffffffffffffffff16815260200190815260200160002060008373ffffffffffffffffffffffffffffffffffffffff1673ffffffffffffffffffffffffffffffffffffffff16815260200190815260200160002060009054906101000a900460ff16905092915050565b60007f01ffc9a7000000000000000000000000000000000000000000000000000000007bffffffffffffffffffffffffffffffffffffffffffffffffffffffff1916827bffffffffffffffffffffffffffffffffffffffffffffffffffffffff1916149050919050565b611aa281612441565b611ae1576040517f08c379a0000000000000000000000000000000000000000000000000000000008152600401611ad890613780565b60405180910390fd5b50565b600033905090565b816004600083815260200190815260200160002060006101000a81548173ffffffffffffffffffffffffffffffffffffffff021916908373ffffffffffffffffffffffffffffffffffffffff160217905550808273ffffffffffffffffffffffffffffffffffffffff16611b5f83610aec565b73ffffffffffffffffffffffffffffffffffffffff167f8c5be1e5ebec7d5bd14f71427d1e84f3dd0314c0f7b2291e5b200ac8c7c3b92560405160405180910390a45050565b600080611bb183610aec565b90508073ffffffffffffffffffffffffffffffffffffffff168473ffffffffffffffffffffffffffffffffffffffff161480611bf35750611bf2818561199b565b5b80611c3157508373ffffffffffffffffffffffffffffffffffffffff16611c1984610805565b73ffffffffffffffffffffffffffffffffffffffff16145b91505092915050565b8273ffffffffffffffffffffffffffffffffffffffff16611c5a82610aec565b73ffffffffffffffffffffffffffffffffffffffff1614611cb0576040517f08c379a0000000000000000000000000000000000000000000000000000000008152600401611ca790613cbc565b60405180910390fd5b600073ffffffffffffffffffffffffffffffffffffffff168273ffffffffffffffffffffffffffffffffffffffff1603611d1f576040517f08c379a0000000000000000000000000000000000000000000000000000000008152600401611d1690613d4e565b60405180910390fd5b611d2c8383836001612482565b8273ffffffffffffffffffffffffffffffffffffffff16611d4c82610aec565b73ffffffffffffffffffffffffffffffffffffffff1614611da2576040517f08c379a0000000000000000000000000000000000000000000000000000000008152600401611d9990613cbc565b60405180910390fd5b6004600082815260200190815260200160002060006101000a81549073ffffffffffffffffffffffffffffffffffffffff02191690556001600360008573ffffffffffffffffffffffffffffffffffffffff1673ffffffffffffffffffffffffffffffffffffffff168152602001908152602001600020600082825403925050819055506001600360008473ffffffffffffffffffffffffffffffffffffffff1673ffffffffffffffffffffffffffffffffffffffff16815260200190815260200160002060008282540192505081905550816002600083815260200190815260200160002060006101000a81548173ffffffffffffffffffffffffffffffffffffffff021916908373ffffffffffffffffffffffffffffffffffffffff160217905550808273ffffffffffffffffffffffffffffffffffffffff168473ffffffffffffffffffffffffffffffffffffffff167fddf252ad1be2c89b69c2b068fc378daa952ba7f163c4a11628f55a4df523b3ef60405160405180910390a4611f2e83838360016125a8565b505050565b60006002600083815260200190815260200160002060009054906101000a900473ffffffffffffffffffffffffffffffffffffffff169050919050565b600073ffffffffffffffffffffffffffffffffffffffff168273ffffffffffffffffffffffffffffffffffffffff1603611fdf576040517f08c379a0000000000000000000000000000000000000000000000000000000008152600401611fd690613dba565b60405180910390fd5b611fe881612441565b15612028576040517f08c379a000000000000000000000000000000000000000000000000000000000815260040161201f90613e26565b60405180910390fd5b612036600083836001612482565b61203f81612441565b1561207f576040517f08c379a000000000000000000000000000000000000000000000000000000000815260040161207690613e26565b60405180910390fd5b6001600360008473ffffffffffffffffffffffffffffffffffffffff1673ffffffffffffffffffffffffffffffffffffffff16815260200190815260200160002060008282540192505081905550816002600083815260200190815260200160002060006101000a81548173ffffffffffffffffffffffffffffffffffffffff021916908373ffffffffffffffffffffffffffffffffffffffff160217905550808273ffffffffffffffffffffffffffffffffffffffff16600073ffffffffffffffffffffffffffffffffffffffff167fddf252ad1be2c89b69c2b068fc378daa952ba7f163c4a11628f55a4df523b3ef60405160405180910390a46121896000838360016125a8565b5050565b61219682612441565b6121d5576040517f08c379a00000000000000000000000000000000000000000000000000000000081526004016121cc90613eb8565b60405180910390fd5b806006600084815260200190815260200160002090816121f59190613a86565b505050565b8173ffffffffffffffffffffffffffffffffffffffff168373ffffffffffffffffffffffffffffffffffffffff1603612268576040517f08c379a000000000000000000000000000000000000000000000000000000000815260040161225f90613f24565b60405180910390fd5b80600560008573ffffffffffffffffffffffffffffffffffffffff1673ffffffffffffffffffffffffffffffffffffffff16815260200190815260200160002060008473ffffffffffffffffffffffffffffffffffffffff1673ffffffffffffffffffffffffffffffffffffffff16815260200190815260200160002060006101000a81548160ff0219169083151502179055508173ffffffffffffffffffffffffffffffffffffffff168373ffffffffffffffffffffffffffffffffffffffff167f17307eab39ab6107e8899845ad3d59bd9653f200f220920489ca2b5937696c31836040516123599190612b1d565b60405180910390a3505050565b612371848484611c3a565b61237d848484846125ae565b6123bc576040517f08c379a00000000000000000000000000000000000000000000000000000000081526004016123b390613fb6565b60405180910390fd5b50505050565b606060405180602001604052806000815250905090565b60606123e482611a99565b60006123ee6123c2565b9050600081511161240e5760405180602001604052806000815250612439565b8061241884612735565b604051602001612429929190613c26565b6040516020818303038152906040525b915050919050565b60008073ffffffffffffffffffffffffffffffffffffffff1661246383611f33565b73ffffffffffffffffffffffffffffffffffffffff1614159050919050565b60018111156125a257600073ffffffffffffffffffffffffffffffffffffffff168473ffffffffffffffffffffffffffffffffffffffff16146125165780600360008673ffffffffffffffffffffffffffffffffffffffff1673ffffffffffffffffffffffffffffffffffffffff168152602001908152602001600020600082825461250e9190613fd6565b925050819055505b600073ffffffffffffffffffffffffffffffffffffffff168373ffffffffffffffffffffffffffffffffffffffff16146125a15780600360008573ffffffffffffffffffffffffffffffffffffffff1673ffffffffffffffffffffffffffffffffffffffff168152602001908152602001600020600082825461259991906137fe565b925050819055505b5b50505050565b50505050565b60006125cf8473ffffffffffffffffffffffffffffffffffffffff16612803565b15612728578373ffffffffffffffffffffffffffffffffffffffff1663150b7a026125f8611ae4565b8786866040518563ffffffff1660e01b815260040161261a949392919061405f565b6020604051808303816000875af192505050801561265657506040513d601f19601f8201168201806040525081019061265391906140c0565b60015b6126d8573d8060008114612686576040519150601f19603f3d011682016040523d82523d6000602084013e61268b565b606091505b5060008151036126d0576040517f08c379a00000000000000000000000000000000000000000000000000000000081526004016126c790613fb6565b60405180910390fd5b805181602001fd5b63150b7a0260e01b7bffffffffffffffffffffffffffffffffffffffffffffffffffffffff1916817bffffffffffffffffffffffffffffffffffffffffffffffffffffffff19161491505061272d565b600190505b949350505050565b60606000600161274484612826565b01905060008167ffffffffffffffff81111561276357612762612e3e565b5b6040519080825280601f01601f1916602001820160405280156127955781602001600182028036833780820191505090505b509050600082602001820190505b6001156127f8578080600190039150507f3031323334353637383961626364656600000000000000000000000000000000600a86061a8153600a85816127ec576127eb61387a565b5b049450600085036127a3575b819350505050919050565b6000808273ffffffffffffffffffffffffffffffffffffffff163b119050919050565b600080600090507a184f03e93ff9f4daa797ed6e38ed64bf6a1f0100000000000000008310612884577a184f03e93ff9f4daa797ed6e38ed64bf6a1f010000000000000000838161287a5761287961387a565b5b0492506040810190505b6d04ee2d6d415b85acef810000000083106128c1576d04ee2d6d415b85acef810000000083816128b7576128b661387a565b5b0492506020810190505b662386f26fc1000083106128f057662386f26fc1000083816128e6576128e561387a565b5b0492506010810190505b6305f5e1008310612919576305f5e100838161290f5761290e61387a565b5b0492506008810190505b612710831061293e5761271083816129345761293361387a565b5b0492506004810190505b6064831061296157606483816129575761295661387a565b5b0492506002810190505b600a8310612970576001810190505b80915050919050565b6040518060800160405280600073ffffffffffffffffffffffffffffffffffffffff16815260200160008152602001600060ff168152602001600081525090565b6000604051905090565b600080fd5b600080fd5b6000819050919050565b6129e1816129ce565b81146129ec57600080fd5b50565b6000813590506129fe816129d8565b92915050565b600060ff82169050919050565b612a1a81612a04565b8114612a2557600080fd5b50565b600081359050612a3781612a11565b92915050565b60008060408385031215612a5457612a536129c4565b5b6000612a62858286016129ef565b9250506020612a7385828601612a28565b9150509250929050565b60007fffffffff0000000000000000000000000000000000000000000000000000000082169050919050565b612ab281612a7d565b8114612abd57600080fd5b50565b600081359050612acf81612aa9565b92915050565b600060208284031215612aeb57612aea6129c4565b5b6000612af984828501612ac0565b91505092915050565b60008115159050919050565b612b1781612b02565b82525050565b6000602082019050612b326000830184612b0e565b92915050565b600081519050919050565b600082825260208201905092915050565b60005b83811015612b72578082015181840152602081019050612b57565b60008484015250505050565b6000601f19601f8301169050919050565b6000612b9a82612b38565b612ba48185612b43565b9350612bb4818560208601612b54565b612bbd81612b7e565b840191505092915050565b60006020820190508181036000830152612be28184612b8f565b905092915050565b600060208284031215612c0057612bff6129c4565b5b6000612c0e848285016129ef565b91505092915050565b600073ffffffffffffffffffffffffffffffffffffffff82169050919050565b6000612c4282612c17565b9050919050565b612c5281612c37565b82525050565b6000602082019050612c6d6000830184612c49565b92915050565b612c7c81612c37565b8114612c8757600080fd5b50565b600081359050612c9981612c73565b92915050565b60008060408385031215612cb657612cb56129c4565b5b6000612cc485828601612c8a565b9250506020612cd5858286016129ef565b9150509250929050565b600080600060608486031215612cf857612cf76129c4565b5b6000612d0686828701612c8a565b9350506020612d1786828701612c8a565b9250506040612d28868287016129ef565b9150509250925092565b600060208284031215612d4857612d476129c4565b5b6000612d5684828501612c8a565b91505092915050565b612d6881612c37565b82525050565b612d77816129ce565b82525050565b612d8681612a04565b82525050565b608082016000820151612da26000850182612d5f565b506020820151612db56020850182612d6e565b506040820151612dc86040850182612d7d565b506060820151612ddb6060850182612d6e565b50505050565b600060a082019050612df66000830185612b0e565b612e036020830184612d8c565b9392505050565b612e1381612a04565b82525050565b6000602082019050612e2e6000830184612e0a565b92915050565b600080fd5b600080fd5b7f4e487b7100000000000000000000000000000000000000000000000000000000600052604160045260246000fd5b612e7682612b7e565b810181811067ffffffffffffffff82111715612e9557612e94612e3e565b5b80604052505050565b6000612ea86129ba565b9050612eb48282612e6d565b919050565b600067ffffffffffffffff821115612ed457612ed3612e3e565b5b612edd82612b7e565b9050602081019050919050565b82818337600083830152505050565b6000612f0c612f0784612eb9565b612e9e565b905082815260208101848484011115612f2857612f27612e39565b5b612f33848285612eea565b509392505050565b600082601f830112612f5057612f4f612e34565b5b8135612f60848260208601612ef9565b91505092915050565b60008060008060008060c08789031215612f8657612f856129c4565b5b600087013567ffffffffffffffff811115612fa457612fa36129c9565b5b612fb089828a01612f3b565b965050602087013567ffffffffffffffff811115612fd157612fd06129c9565b5b612fdd89828a01612f3b565b955050604087013567ffffffffffffffff811115612ffe57612ffd6129c9565b5b61300a89828a01612f3b565b945050606087013567ffffffffffffffff81111561302b5761302a6129c9565b5b61303789828a01612f3b565b935050608087013567ffffffffffffffff811115613058576130576129c9565b5b61306489828a01612f3b565b92505060a087013567ffffffffffffffff811115613085576130846129c9565b5b61309189828a01612f3b565b9150509295509295509295565b6130a7816129ce565b82525050565b60006020820190506130c2600083018461309e565b92915050565b6130d181612b02565b81146130dc57600080fd5b50565b6000813590506130ee816130c8565b92915050565b6000806040838503121561310b5761310a6129c4565b5b600061311985828601612c8a565b925050602061312a858286016130df565b9150509250929050565b600067ffffffffffffffff82111561314f5761314e612e3e565b5b61315882612b7e565b9050602081019050919050565b600061317861317384613134565b612e9e565b90508281526020810184848401111561319457613193612e39565b5b61319f848285612eea565b509392505050565b600082601f8301126131bc576131bb612e34565b5b81356131cc848260208601613165565b91505092915050565b600080600080608085870312156131ef576131ee6129c4565b5b60006131fd87828801612c8a565b945050602061320e87828801612c8a565b935050604061321f878288016129ef565b925050606085013567ffffffffffffffff8111156132405761323f6129c9565b5b61324c878288016131a7565b91505092959194509250565b600060e08201905061326d600083018a61309e565b818103602083015261327f8189612b8f565b905081810360408301526132938188612b8f565b905081810360608301526132a78187612b8f565b905081810360808301526132bb8186612b8f565b905081810360a08301526132cf8185612b8f565b905081810360c08301526132e38184612b8f565b905098975050505050505050565b600081519050919050565b600082825260208201905092915050565b6000819050602082019050919050565b600082825260208201905092915050565b600061333982612b38565b613343818561331d565b9350613353818560208601612b54565b61335c81612b7e565b840191505092915050565b600060e08301600083015161337f6000860182612d6e565b5060208301518482036020860152613397828261332e565b915050604083015184820360408601526133b1828261332e565b915050606083015184820360608601526133cb828261332e565b915050608083015184820360808601526133e5828261332e565b91505060a083015184820360a08601526133ff828261332e565b91505060c083015184820360c0860152613419828261332e565b9150508091505092915050565b60006134328383613367565b905092915050565b6000602082019050919050565b6000613452826132f1565b61345c81856132fc565b93508360208202850161346e8561330d565b8060005b858110156134aa578484038952815161348b8582613426565b94506134968361343a565b925060208a01995050600181019050613472565b50829750879550505050505092915050565b600060208201905081810360008301526134d68184613447565b905092915050565b600080604083850312156134f5576134f46129c4565b5b600061350385828601612c8a565b925050602061351485828601612c8a565b9150509250929050565b7f4e487b7100000000000000000000000000000000000000000000000000000000600052602260045260246000fd5b6000600282049050600182168061356557607f821691505b6020821081036135785761357761351e565b5b50919050565b7f4552433732313a20617070726f76616c20746f2063757272656e74206f776e6560008201527f7200000000000000000000000000000000000000000000000000000000000000602082015250565b60006135da602183612b43565b91506135e58261357e565b604082019050919050565b60006020820190508181036000830152613609816135cd565b9050919050565b7f4552433732313a20617070726f76652063616c6c6572206973206e6f7420746f60008201527f6b656e206f776e6572206f7220617070726f76656420666f7220616c6c000000602082015250565b600061366c603d83612b43565b915061367782613610565b604082019050919050565b6000602082019050818103600083015261369b8161365f565b9050919050565b7f4552433732313a2063616c6c6572206973206e6f7420746f6b656e206f776e6560008201527f72206f7220617070726f76656400000000000000000000000000000000000000602082015250565b60006136fe602d83612b43565b9150613709826136a2565b604082019050919050565b6000602082019050818103600083015261372d816136f1565b9050919050565b7f4552433732313a20696e76616c696420746f6b656e2049440000000000000000600082015250565b600061376a601883612b43565b915061377582613734565b602082019050919050565b600060208201905081810360008301526137998161375d565b9050919050565b7f4e487b7100000000000000000000000000000000000000000000000000000000600052603260045260246000fd5b7f4e487b7100000000000000000000000000000000000000000000000000000000600052601160045260246000fd5b6000613809826129ce565b9150613814836129ce565b925082820190508082111561382c5761382b6137cf565b5b92915050565b600061383d826129ce565b91507fffffffffffffffffffffffffffffffffffffffffffffffffffffffffffffffff820361386f5761386e6137cf565b5b600182019050919050565b7f4e487b7100000000000000000000000000000000000000000000000000000000600052601260045260246000fd5b60006138b4826129ce565b91506138bf836129ce565b9250826138cf576138ce61387a565b5b828204905092915050565b60008190508160005260206000209050919050565b60006020601f8301049050919050565b600082821b905092915050565b60006008830261393c7fffffffffffffffffffffffffffffffffffffffffffffffffffffffffffffffff826138ff565b61394686836138ff565b95508019841693508086168417925050509392505050565b6000819050919050565b600061398361397e613979846129ce565b61395e565b6129ce565b9050919050565b6000819050919050565b61399d83613968565b6139b16139a98261398a565b84845461390c565b825550505050565b600090565b6139c66139b9565b6139d1818484613994565b505050565b5b818110156139f5576139ea6000826139be565b6001810190506139d7565b5050565b601f821115613a3a57613a0b816138da565b613a14846138ef565b81016020851015613a23578190505b613a37613a2f856138ef565b8301826139d6565b50505b505050565b600082821c905092915050565b6000613a5d60001984600802613a3f565b1980831691505092915050565b6000613a768383613a4c565b9150826002028217905092915050565b613a8f82612b38565b67ffffffffffffffff811115613aa857613aa7612e3e565b5b613ab2825461354d565b613abd8282856139f9565b600060209050601f831160018114613af05760008415613ade578287015190505b613ae88582613a6a565b865550613b50565b601f198416613afe866138da565b60005b82811015613b2657848901518255600182019150602085019450602081019050613b01565b86831015613b435784890151613b3f601f891682613a4c565b8355505b6001600288020188555050505b505050505050565b7f4552433732313a2061646472657373207a65726f206973206e6f74206120766160008201527f6c6964206f776e65720000000000000000000000000000000000000000000000602082015250565b6000613bb4602983612b43565b9150613bbf82613b58565b604082019050919050565b60006020820190508181036000830152613be381613ba7565b9050919050565b600081905092915050565b6000613c0082612b38565b613c0a8185613bea565b9350613c1a818560208601612b54565b80840191505092915050565b6000613c328285613bf5565b9150613c3e8284613bf5565b91508190509392505050565b7f4552433732313a207472616e736665722066726f6d20696e636f72726563742060008201527f6f776e6572000000000000000000000000000000000000000000000000000000602082015250565b6000613ca6602583612b43565b9150613cb182613c4a565b604082019050919050565b60006020820190508181036000830152613cd581613c99565b9050919050565b7f4552433732313a207472616e7366657220746f20746865207a65726f2061646460008201527f7265737300000000000000000000000000000000000000000000000000000000602082015250565b6000613d38602483612b43565b9150613d4382613cdc565b604082019050919050565b60006020820190508181036000830152613d6781613d2b565b9050919050565b7f4552433732313a206d696e7420746f20746865207a65726f2061646472657373600082015250565b6000613da4602083612b43565b9150613daf82613d6e565b602082019050919050565b60006020820190508181036000830152613dd381613d97565b9050919050565b7f4552433732313a20746f6b656e20616c7265616479206d696e74656400000000600082015250565b6000613e10601c83612b43565b9150613e1b82613dda565b602082019050919050565b60006020820190508181036000830152613e3f81613e03565b9050919050565b7f45524337323155524953746f726167653a2055524920736574206f66206e6f6e60008201527f6578697374656e7420746f6b656e000000000000000000000000000000000000602082015250565b6000613ea2602e83612b43565b9150613ead82613e46565b604082019050919050565b60006020820190508181036000830152613ed181613e95565b9050919050565b7f4552433732313a20617070726f766520746f2063616c6c657200000000000000600082015250565b6000613f0e601983612b43565b9150613f1982613ed8565b602082019050919050565b60006020820190508181036000830152613f3d81613f01565b9050919050565b7f4552433732313a207472616e7366657220746f206e6f6e20455243373231526560008201527f63656976657220696d706c656d656e7465720000000000000000000000000000602082015250565b6000613fa0603283612b43565b9150613fab82613f44565b604082019050919050565b60006020820190508181036000830152613fcf81613f93565b9050919050565b6000613fe1826129ce565b9150613fec836129ce565b9250828203905081811115614004576140036137cf565b5b92915050565b600081519050919050565b600082825260208201905092915050565b60006140318261400a565b61403b8185614015565b935061404b818560208601612b54565b61405481612b7e565b840191505092915050565b60006080820190506140746000830187612c49565b6140816020830186612c49565b61408e604083018561309e565b81810360608301526140a08184614026565b905095945050505050565b6000815190506140ba81612aa9565b92915050565b6000602082840312156140d6576140d56129c4565b5b60006140e4848285016140ab565b9150509291505056fea264697066735822122033f62f2f1a9b4fde1fc947ef4cc89b473168d01676c7a0f3d47ebe268c3bb1e564736f6c63430008110033",
  "immutableReferences": {},
  "source": "// SPDX-License-Identifier: MIT\npragma solidity ^0.8.4;\n\nimport \"@openzeppelin/contracts/token/ERC721/extensions/ERC721URIStorage.sol\";\nimport \"@openzeppelin/contracts/utils/Strings.sol\";\n\ncontract MoviesNFT is ERC721URIStorage {\n    uint256 MAX_RATING_COUNT = 100000000000;\n    uint256 private movieNumber = 1;\n    address private _owner; // owner of the movie NFT\n\n    struct movieData {\n        uint256 movieNumber;\n        string movieName;\n        string movieDescription;\n        string release;\n        string director;\n        string imageURL;\n        string ipfsHash;\n    }\n\n    struct rating {\n        address ratingOwner; // address who made the rating\n        uint256 movieNumber; // number of the movie for which the rating is being casted\n        uint8 ratingVal; // must be between 1(min rate) and 10(max rate)\n        uint256 createdAt; // timestamp of rating\n    }\n\n    movieData[] movies;\n    rating[] ratings;\n    mapping(address => rating) userRating;\n\n    // mapping(uint256 => rating[]) movieRating;\n    // mapping(uint256 => uint8) movieRatingAverage;\n\n    constructor(address owner) ERC721(\"MovieNFT\", \"MNFT\") {\n        _owner = owner;\n    }\n\n    function createMovieNft(\n        string memory name,\n        string memory description,\n        string memory release,\n        string memory director,\n        string memory imageURL,\n        string memory ipfsHash\n    ) public {\n        require(msg.sender == _owner);\n\n        movieData memory nextMovie = movieData(\n            movieNumber,\n            name,\n            description,\n            release,\n            director,\n            imageURL,\n            ipfsHash\n        );\n\n        movies.push(nextMovie);\n        _mint(msg.sender, movieNumber);\n        _setTokenURI(movieNumber, ipfsHash);\n        movieNumber++;\n    }\n\n    function getAllMovies() public view returns (movieData[] memory) {\n        return movies;\n    }\n\n    function getMovieByNumber(uint256 _movieNum)\n        public\n        view\n        returns (\n            uint256,\n            string memory,\n            string memory,\n            string memory,\n            string memory,\n            string memory,\n            string memory\n        )\n    {\n        for (uint256 i = 0; i < movieNumber; i++) {\n            if (movies[i].movieNumber == _movieNum) {\n                return (\n                    movies[i].movieNumber,\n                    movies[i].movieName,\n                    movies[i].movieDescription,\n                    movies[i].release,\n                    movies[i].director,\n                    movies[i].imageURL,\n                    movies[i].ipfsHash\n                );\n            }\n        }\n        return (0, \"\", \"\", \"\", \"\", \"\", \"\");\n    }\n\n    function castMovieRating(uint256 _movieNum, uint8 ratingVal) public {\n        rating memory prevRating = userRating[msg.sender];\n        require(prevRating.ratingVal <= 0);\n\n        rating memory r = rating(\n            msg.sender,\n            _movieNum,\n            ratingVal,\n            block.timestamp\n        );\n\n        userRating[msg.sender] = r;\n        // rating[] storage prevMovieR = movieRating[movieNum];\n        // prevMovieR.push(r);\n        // movieRating[movieNum] = prevMovieR;\n        ratings.push(r);\n    }\n\n    function getAvgMovieRating(uint256 _movieNum) public view returns (uint8) {\n        uint256 s = 0;\n        uint256 n = 0;\n        for (uint256 i = 0; i < ratings.length; i++) {\n            if (ratings[i].movieNumber == _movieNum) {\n                s = s + ratings[i].ratingVal;\n                n++;\n            }\n        }\n        uint8 avg = uint8(s / n);\n        return avg;\n    }\n\n    function getUserRating(address userAdd)\n        public\n        view\n        returns (bool, rating memory)\n    {\n        rating memory rs = userRating[userAdd];\n        if (rs.ratingVal > 0) {\n            return (true, rs);\n        }\n        return (false, rs);\n    }\n}\n",
  "sourcePath": "/Users/sagaranand/Documents/workspace-open/chainlink-2022/web3-imdb/_backend/contracts/MoviesNFT.sol",
  "compiler": {
    "name": "solc",
    "version": "0.8.17+commit.8df45f5f.Emscripten.clang"
  },
  "schemaVersion": "3.4.10",
  "updatedAt": "2022-11-18T19:34:32.167Z",
  "networkType": "ethereum",
  "devdoc": {
    "kind": "dev",
    "methods": {
      "approve(address,uint256)": {
        "details": "See {IERC721-approve}."
      },
      "balanceOf(address)": {
        "details": "See {IERC721-balanceOf}."
      },
      "getApproved(uint256)": {
        "details": "See {IERC721-getApproved}."
      },
      "isApprovedForAll(address,address)": {
        "details": "See {IERC721-isApprovedForAll}."
      },
      "name()": {
        "details": "See {IERC721Metadata-name}."
      },
      "ownerOf(uint256)": {
        "details": "See {IERC721-ownerOf}."
      },
      "safeTransferFrom(address,address,uint256)": {
        "details": "See {IERC721-safeTransferFrom}."
      },
      "safeTransferFrom(address,address,uint256,bytes)": {
        "details": "See {IERC721-safeTransferFrom}."
      },
      "setApprovalForAll(address,bool)": {
        "details": "See {IERC721-setApprovalForAll}."
      },
      "supportsInterface(bytes4)": {
        "details": "See {IERC165-supportsInterface}."
      },
      "symbol()": {
        "details": "See {IERC721Metadata-symbol}."
      },
      "tokenURI(uint256)": {
        "details": "See {IERC721Metadata-tokenURI}."
      },
      "transferFrom(address,address,uint256)": {
        "details": "See {IERC721-transferFrom}."
      }
    },
    "version": 1
  },
  "userdoc": {
    "kind": "user",
    "methods": {},
    "version": 1
  }
}