{
  "contractName": "MoviesNFT",
  "abi": [
    {
      "inputs": [
        {
          "internalType": "address",
          "name": "owner",
          "type": "address"
        }
      ],
      "stateMutability": "nonpayable",
      "type": "constructor"
    },
    {
      "anonymous": false,
      "inputs": [
        {
          "indexed": true,
          "internalType": "address",
          "name": "owner",
          "type": "address"
        },
        {
          "indexed": true,
          "internalType": "address",
          "name": "approved",
          "type": "address"
        },
        {
          "indexed": true,
          "internalType": "uint256",
          "name": "tokenId",
          "type": "uint256"
        }
      ],
      "name": "Approval",
      "type": "event"
    },
    {
      "anonymous": false,
      "inputs": [
        {
          "indexed": true,
          "internalType": "address",
          "name": "owner",
          "type": "address"
        },
        {
          "indexed": true,
          "internalType": "address",
          "name": "operator",
          "type": "address"
        },
        {
          "indexed": false,
          "internalType": "bool",
          "name": "approved",
          "type": "bool"
        }
      ],
      "name": "ApprovalForAll",
      "type": "event"
    },
    {
      "anonymous": false,
      "inputs": [
        {
          "indexed": true,
          "internalType": "address",
          "name": "from",
          "type": "address"
        },
        {
          "indexed": true,
          "internalType": "address",
          "name": "to",
          "type": "address"
        },
        {
          "indexed": true,
          "internalType": "uint256",
          "name": "tokenId",
          "type": "uint256"
        }
      ],
      "name": "Transfer",
      "type": "event"
    },
    {
      "inputs": [
        {
          "internalType": "address",
          "name": "to",
          "type": "address"
        },
        {
          "internalType": "uint256",
          "name": "tokenId",
          "type": "uint256"
        }
      ],
      "name": "approve",
      "outputs": [],
      "stateMutability": "nonpayable",
      "type": "function"
    },
    {
      "inputs": [
        {
          "internalType": "address",
          "name": "owner",
          "type": "address"
        }
      ],
      "name": "balanceOf",
      "outputs": [
        {
          "internalType": "uint256",
          "name": "",
          "type": "uint256"
        }
      ],
      "stateMutability": "view",
      "type": "function",
      "constant": true
    },
    {
      "inputs": [
        {
          "internalType": "uint256",
          "name": "tokenId",
          "type": "uint256"
        }
      ],
      "name": "getApproved",
      "outputs": [
        {
          "internalType": "address",
          "name": "",
          "type": "address"
        }
      ],
      "stateMutability": "view",
      "type": "function",
      "constant": true
    },
    {
      "inputs": [
        {
          "internalType": "address",
          "name": "owner",
          "type": "address"
        },
        {
          "internalType": "address",
          "name": "operator",
          "type": "address"
        }
      ],
      "name": "isApprovedForAll",
      "outputs": [
        {
          "internalType": "bool",
          "name": "",
          "type": "bool"
        }
      ],
      "stateMutability": "view",
      "type": "function",
      "constant": true
    },
    {
      "inputs": [],
      "name": "name",
      "outputs": [
        {
          "internalType": "string",
          "name": "",
          "type": "string"
        }
      ],
      "stateMutability": "view",
      "type": "function",
      "constant": true
    },
    {
      "inputs": [
        {
          "internalType": "uint256",
          "name": "tokenId",
          "type": "uint256"
        }
      ],
      "name": "ownerOf",
      "outputs": [
        {
          "internalType": "address",
          "name": "",
          "type": "address"
        }
      ],
      "stateMutability": "view",
      "type": "function",
      "constant": true
    },
    {
      "inputs": [
        {
          "internalType": "address",
          "name": "from",
          "type": "address"
        },
        {
          "internalType": "address",
          "name": "to",
          "type": "address"
        },
        {
          "internalType": "uint256",
          "name": "tokenId",
          "type": "uint256"
        }
      ],
      "name": "safeTransferFrom",
      "outputs": [],
      "stateMutability": "nonpayable",
      "type": "function"
    },
    {
      "inputs": [
        {
          "internalType": "address",
          "name": "from",
          "type": "address"
        },
        {
          "internalType": "address",
          "name": "to",
          "type": "address"
        },
        {
          "internalType": "uint256",
          "name": "tokenId",
          "type": "uint256"
        },
        {
          "internalType": "bytes",
          "name": "data",
          "type": "bytes"
        }
      ],
      "name": "safeTransferFrom",
      "outputs": [],
      "stateMutability": "nonpayable",
      "type": "function"
    },
    {
      "inputs": [
        {
          "internalType": "address",
          "name": "operator",
          "type": "address"
        },
        {
          "internalType": "bool",
          "name": "approved",
          "type": "bool"
        }
      ],
      "name": "setApprovalForAll",
      "outputs": [],
      "stateMutability": "nonpayable",
      "type": "function"
    },
    {
      "inputs": [
        {
          "internalType": "bytes4",
          "name": "interfaceId",
          "type": "bytes4"
        }
      ],
      "name": "supportsInterface",
      "outputs": [
        {
          "internalType": "bool",
          "name": "",
          "type": "bool"
        }
      ],
      "stateMutability": "view",
      "type": "function",
      "constant": true
    },
    {
      "inputs": [],
      "name": "symbol",
      "outputs": [
        {
          "internalType": "string",
          "name": "",
          "type": "string"
        }
      ],
      "stateMutability": "view",
      "type": "function",
      "constant": true
    },
    {
      "inputs": [
        {
          "internalType": "uint256",
          "name": "tokenId",
          "type": "uint256"
        }
      ],
      "name": "tokenURI",
      "outputs": [
        {
          "internalType": "string",
          "name": "",
          "type": "string"
        }
      ],
      "stateMutability": "view",
      "type": "function",
      "constant": true
    },
    {
      "inputs": [
        {
          "internalType": "address",
          "name": "from",
          "type": "address"
        },
        {
          "internalType": "address",
          "name": "to",
          "type": "address"
        },
        {
          "internalType": "uint256",
          "name": "tokenId",
          "type": "uint256"
        }
      ],
      "name": "transferFrom",
      "outputs": [],
      "stateMutability": "nonpayable",
      "type": "function"
    },
    {
      "inputs": [
        {
          "internalType": "string",
          "name": "name",
          "type": "string"
        },
        {
          "internalType": "string",
          "name": "description",
          "type": "string"
        },
        {
          "internalType": "string",
          "name": "release",
          "type": "string"
        },
        {
          "internalType": "string",
          "name": "director",
          "type": "string"
        },
        {
          "internalType": "string",
          "name": "imageURL",
          "type": "string"
        },
        {
          "internalType": "string",
          "name": "ipfsHash",
          "type": "string"
        }
      ],
      "name": "createMovieNft",
      "outputs": [],
      "stateMutability": "nonpayable",
      "type": "function"
    },
    {
      "inputs": [],
      "name": "getAllMovies",
      "outputs": [
        {
          "components": [
            {
              "internalType": "uint256",
              "name": "movieNumber",
              "type": "uint256"
            },
            {
              "internalType": "string",
              "name": "movieName",
              "type": "string"
            },
            {
              "internalType": "string",
              "name": "movieDescription",
              "type": "string"
            },
            {
              "internalType": "string",
              "name": "release",
              "type": "string"
            },
            {
              "internalType": "string",
              "name": "director",
              "type": "string"
            },
            {
              "internalType": "string",
              "name": "imageURL",
              "type": "string"
            },
            {
              "internalType": "string",
              "name": "ipfsHash",
              "type": "string"
            }
          ],
          "internalType": "struct MoviesNFT.movieData[]",
          "name": "",
          "type": "tuple[]"
        }
      ],
      "stateMutability": "view",
      "type": "function",
      "constant": true
    },
    {
      "inputs": [
        {
          "internalType": "uint256",
          "name": "_movieNum",
          "type": "uint256"
        }
      ],
      "name": "getMovieByNumber",
      "outputs": [
        {
          "internalType": "uint256",
          "name": "",
          "type": "uint256"
        },
        {
          "internalType": "string",
          "name": "",
          "type": "string"
        },
        {
          "internalType": "string",
          "name": "",
          "type": "string"
        },
        {
          "internalType": "string",
          "name": "",
          "type": "string"
        },
        {
          "internalType": "string",
          "name": "",
          "type": "string"
        },
        {
          "internalType": "string",
          "name": "",
          "type": "string"
        },
        {
          "internalType": "string",
          "name": "",
          "type": "string"
        }
      ],
      "stateMutability": "view",
      "type": "function",
      "constant": true
    },
    {
      "inputs": [
        {
          "internalType": "uint256",
          "name": "_movieNum",
          "type": "uint256"
        },
        {
          "internalType": "uint8",
          "name": "ratingVal",
          "type": "uint8"
        }
      ],
      "name": "castMovieRating",
      "outputs": [],
      "stateMutability": "nonpayable",
      "type": "function"
    },
    {
      "inputs": [
        {
          "internalType": "uint256",
          "name": "_movieNum",
          "type": "uint256"
        }
      ],
      "name": "getAvgMovieRating",
      "outputs": [
        {
          "internalType": "uint8",
          "name": "",
          "type": "uint8"
        }
      ],
      "stateMutability": "view",
      "type": "function",
      "constant": true
    },
    {
      "inputs": [
        {
          "internalType": "address",
          "name": "userAdd",
          "type": "address"
        }
      ],
      "name": "getUserRating",
      "outputs": [
        {
          "internalType": "bool",
          "name": "",
          "type": "bool"
        },
        {
          "components": [
            {
              "internalType": "address",
              "name": "ratingOwner",
              "type": "address"
            },
            {
              "internalType": "uint256",
              "name": "movieNumber",
              "type": "uint256"
            },
            {
              "internalType": "uint8",
              "name": "ratingVal",
              "type": "uint8"
            },
            {
              "internalType": "uint256",
              "name": "createdAt",
              "type": "uint256"
            }
          ],
          "internalType": "struct MoviesNFT.rating",
          "name": "",
          "type": "tuple"
        }
      ],
      "stateMutability": "view",
      "type": "function",
      "constant": true
    },
    {
      "inputs": [],
      "name": "getAllRatings",
      "outputs": [
        {
          "components": [
            {
              "internalType": "address",
              "name": "ratingOwner",
              "type": "address"
            },
            {
              "internalType": "uint256",
              "name": "movieNumber",
              "type": "uint256"
            },
            {
              "internalType": "uint8",
              "name": "ratingVal",
              "type": "uint8"
            },
            {
              "internalType": "uint256",
              "name": "createdAt",
              "type": "uint256"
            }
          ],
          "internalType": "struct MoviesNFT.rating[]",
          "name": "",
          "type": "tuple[]"
        }
      ],
      "stateMutability": "view",
      "type": "function",
      "constant": true
    }
  ],
  "bytecode": "0x608060405264174876e80060075560016008553480156200001f57600080fd5b506040516200491738038062004917833981810160405281019062000045919062000189565b6040518060400160405280600881526020017f4d6f7669654e46540000000000000000000000000000000000000000000000008152506040518060400160405280600481526020017f4d4e4654000000000000000000000000000000000000000000000000000000008152508160009081620000c2919062000435565b508060019081620000d4919062000435565b50505080600960006101000a81548173ffffffffffffffffffffffffffffffffffffffff021916908373ffffffffffffffffffffffffffffffffffffffff160217905550506200051c565b600080fd5b600073ffffffffffffffffffffffffffffffffffffffff82169050919050565b6000620001518262000124565b9050919050565b620001638162000144565b81146200016f57600080fd5b50565b600081519050620001838162000158565b92915050565b600060208284031215620001a257620001a16200011f565b5b6000620001b28482850162000172565b91505092915050565b600081519050919050565b7f4e487b7100000000000000000000000000000000000000000000000000000000600052604160045260246000fd5b7f4e487b7100000000000000000000000000000000000000000000000000000000600052602260045260246000fd5b600060028204905060018216806200023d57607f821691505b602082108103620002535762000252620001f5565b5b50919050565b60008190508160005260206000209050919050565b60006020601f8301049050919050565b600082821b905092915050565b600060088302620002bd7fffffffffffffffffffffffffffffffffffffffffffffffffffffffffffffffff826200027e565b620002c986836200027e565b95508019841693508086168417925050509392505050565b6000819050919050565b6000819050919050565b600062000316620003106200030a84620002e1565b620002eb565b620002e1565b9050919050565b6000819050919050565b6200033283620002f5565b6200034a62000341826200031d565b8484546200028b565b825550505050565b600090565b6200036162000352565b6200036e81848462000327565b505050565b5b8181101562000396576200038a60008262000357565b60018101905062000374565b5050565b601f821115620003e557620003af8162000259565b620003ba846200026e565b81016020851015620003ca578190505b620003e2620003d9856200026e565b83018262000373565b50505b505050565b600082821c905092915050565b60006200040a60001984600802620003ea565b1980831691505092915050565b6000620004258383620003f7565b9150826002028217905092915050565b6200044082620001bb565b67ffffffffffffffff8111156200045c576200045b620001c6565b5b62000468825462000224565b620004758282856200039a565b600060209050601f831160018114620004ad576000841562000498578287015190505b620004a4858262000417565b86555062000514565b601f198416620004bd8662000259565b60005b82811015620004e757848901518255600182019150602085019450602081019050620004c0565b8683101562000507578489015162000503601f891682620003f7565b8355505b6001600288020188555050505b505050505050565b6143eb806200052c6000396000f3fe608060405234801561001057600080fd5b506004361061012b5760003560e01c80636c990ef1116100ad578063c87b56dd11610071578063c87b56dd14610351578063de5d9f3e14610381578063e16f0065146103b7578063e985e9c5146103d5578063eac977c4146104055761012b565b80636c990ef1146102af57806370a08231146102cb57806395d89b41146102fb578063a22cb46514610319578063b88d4fde146103355761012b565b806323b872dd116100f457806323b872dd146101e657806342842e0e14610202578063460168c31461021e5780636352211e1461024f5780636b3f30d41461027f5761012b565b80620a09c01461013057806301ffc9a71461014c57806306fdde031461017c578063081812fc1461019a578063095ea7b3146101ca575b600080fd5b61014a60048036038101906101459190612b73565b610423565b005b61016660048036038101906101619190612c0b565b6106e1565b6040516101739190612c53565b60405180910390f35b6101846107c3565b6040516101919190612cfe565b60405180910390f35b6101b460048036038101906101af9190612d20565b610855565b6040516101c19190612d8e565b60405180910390f35b6101e460048036038101906101df9190612dd5565b61089b565b005b61020060048036038101906101fb9190612e15565b6109b2565b005b61021c60048036038101906102179190612e15565b610a12565b005b61023860048036038101906102339190612e68565b610a32565b604051610246929190612f17565b60405180910390f35b61026960048036038101906102649190612d20565b610b3c565b6040516102769190612d8e565b60405180910390f35b61029960048036038101906102949190612d20565b610bc2565b6040516102a69190612f4f565b60405180910390f35b6102c960048036038101906102c4919061309f565b610c87565b005b6102e560048036038101906102e09190612e68565b610e0f565b6040516102f291906131e3565b60405180910390f35b610303610ec6565b6040516103109190612cfe565b60405180910390f35b610333600480360381019061032e919061322a565b610f58565b005b61034f600480360381019061034a919061330b565b610f6e565b005b61036b60048036038101906103669190612d20565b610fd0565b6040516103789190612cfe565b60405180910390f35b61039b60048036038101906103969190612d20565b6110e2565b6040516103ae979695949392919061338e565b60405180910390f35b6103bf611616565b6040516103cc91906135f2565b60405180910390f35b6103ef60048036038101906103ea9190613614565b6119eb565b6040516103fc9190612c53565b60405180910390f35b61040d611a7f565b60405161041a9190613758565b60405180910390f35b60005b600b80549050811015610534573373ffffffffffffffffffffffffffffffffffffffff16600b828154811061045e5761045d61377a565b5b906000526020600020906004020160000160009054906101000a900473ffffffffffffffffffffffffffffffffffffffff1673ffffffffffffffffffffffffffffffffffffffff161480156104d7575082600b82815481106104c3576104c261377a565b5b906000526020600020906004020160010154145b15610521576002600114610520576040517f08c379a0000000000000000000000000000000000000000000000000000000008152600401610517906137f5565b60405180910390fd5b5b808061052c90613844565b915050610426565b50600060405180608001604052803373ffffffffffffffffffffffffffffffffffffffff1681526020018481526020018360ff16815260200142815250905080600c60003373ffffffffffffffffffffffffffffffffffffffff1673ffffffffffffffffffffffffffffffffffffffff16815260200190815260200160002060008201518160000160006101000a81548173ffffffffffffffffffffffffffffffffffffffff021916908373ffffffffffffffffffffffffffffffffffffffff1602179055506020820151816001015560408201518160020160006101000a81548160ff021916908360ff16021790555060608201518160030155905050600b81908060018154018082558091505060019003906000526020600020906004020160009091909190915060008201518160000160006101000a81548173ffffffffffffffffffffffffffffffffffffffff021916908373ffffffffffffffffffffffffffffffffffffffff1602179055506020820151816001015560408201518160020160006101000a81548160ff021916908360ff160217905550606082015181600301555050505050565b60007f80ac58cd000000000000000000000000000000000000000000000000000000007bffffffffffffffffffffffffffffffffffffffffffffffffffffffff1916827bffffffffffffffffffffffffffffffffffffffffffffffffffffffff191614806107ac57507f5b5e139f000000000000000000000000000000000000000000000000000000007bffffffffffffffffffffffffffffffffffffffffffffffffffffffff1916827bffffffffffffffffffffffffffffffffffffffffffffffffffffffff1916145b806107bc57506107bb82611b65565b5b9050919050565b6060600080546107d2906138bb565b80601f01602080910402602001604051908101604052809291908181526020018280546107fe906138bb565b801561084b5780601f106108205761010080835404028352916020019161084b565b820191906000526020600020905b81548152906001019060200180831161082e57829003601f168201915b5050505050905090565b600061086082611bcf565b6004600083815260200190815260200160002060009054906101000a900473ffffffffffffffffffffffffffffffffffffffff169050919050565b60006108a682610b3c565b90508073ffffffffffffffffffffffffffffffffffffffff168373ffffffffffffffffffffffffffffffffffffffff1603610916576040517f08c379a000000000000000000000000000000000000000000000000000000000815260040161090d9061395e565b60405180910390fd5b8073ffffffffffffffffffffffffffffffffffffffff16610935611c1a565b73ffffffffffffffffffffffffffffffffffffffff16148061096457506109638161095e611c1a565b6119eb565b5b6109a3576040517f08c379a000000000000000000000000000000000000000000000000000000000815260040161099a906139f0565b60405180910390fd5b6109ad8383611c22565b505050565b6109c36109bd611c1a565b82611cdb565b610a02576040517f08c379a00000000000000000000000000000000000000000000000000000000081526004016109f990613a82565b60405180910390fd5b610a0d838383611d70565b505050565b610a2d83838360405180602001604052806000815250610f6e565b505050565b6000610a3c612aaf565b6000600c60008573ffffffffffffffffffffffffffffffffffffffff1673ffffffffffffffffffffffffffffffffffffffff1681526020019081526020016000206040518060800160405290816000820160009054906101000a900473ffffffffffffffffffffffffffffffffffffffff1673ffffffffffffffffffffffffffffffffffffffff1673ffffffffffffffffffffffffffffffffffffffff168152602001600182015481526020016002820160009054906101000a900460ff1660ff1660ff16815260200160038201548152505090506000816040015160ff161115610b2e576001819250925050610b37565b60008192509250505b915091565b600080610b4883612069565b9050600073ffffffffffffffffffffffffffffffffffffffff168173ffffffffffffffffffffffffffffffffffffffff1603610bb9576040517f08c379a0000000000000000000000000000000000000000000000000000000008152600401610bb090613aee565b60405180910390fd5b80915050919050565b600080600090506000805b600b80549050811015610c6b5784600b8281548110610bef57610bee61377a565b5b90600052602060002090600402016001015403610c5857600b8181548110610c1a57610c1961377a565b5b906000526020600020906004020160020160009054906101000a900460ff1660ff1683610c479190613b0e565b92508180610c5490613844565b9250505b8080610c6390613844565b915050610bcd565b5060008183610c7a9190613b71565b9050809350505050919050565b600960009054906101000a900473ffffffffffffffffffffffffffffffffffffffff1673ffffffffffffffffffffffffffffffffffffffff163373ffffffffffffffffffffffffffffffffffffffff1614610ce157600080fd5b60006040518060e001604052806008548152602001888152602001878152602001868152602001858152602001848152602001838152509050600a819080600181540180825580915050600190039060005260206000209060070201600090919091909150600082015181600001556020820151816001019081610d659190613d4e565b506040820151816002019081610d7b9190613d4e565b506060820151816003019081610d919190613d4e565b506080820151816004019081610da79190613d4e565b5060a0820151816005019081610dbd9190613d4e565b5060c0820151816006019081610dd39190613d4e565b505050610de2336008546120a6565b610dee600854836122c3565b60086000815480929190610e0190613844565b919050555050505050505050565b60008073ffffffffffffffffffffffffffffffffffffffff168273ffffffffffffffffffffffffffffffffffffffff1603610e7f576040517f08c379a0000000000000000000000000000000000000000000000000000000008152600401610e7690613e92565b60405180910390fd5b600360008373ffffffffffffffffffffffffffffffffffffffff1673ffffffffffffffffffffffffffffffffffffffff168152602001908152602001600020549050919050565b606060018054610ed5906138bb565b80601f0160208091040260200160405190810160405280929190818152602001828054610f01906138bb565b8015610f4e5780601f10610f2357610100808354040283529160200191610f4e565b820191906000526020600020905b815481529060010190602001808311610f3157829003601f168201915b5050505050905090565b610f6a610f63611c1a565b8383612330565b5050565b610f7f610f79611c1a565b83611cdb565b610fbe576040517f08c379a0000000000000000000000000000000000000000000000000000000008152600401610fb590613a82565b60405180910390fd5b610fca8484848461249c565b50505050565b6060610fdb82611bcf565b6000600660008481526020019081526020016000208054610ffb906138bb565b80601f0160208091040260200160405190810160405280929190818152602001828054611027906138bb565b80156110745780601f1061104957610100808354040283529160200191611074565b820191906000526020600020905b81548152906001019060200180831161105757829003601f168201915b5050505050905060006110856124f8565b9050600081510361109a5781925050506110dd565b6000825111156110cf5780826040516020016110b7929190613eee565b604051602081830303815290604052925050506110dd565b6110d88461250f565b925050505b919050565b600060608060608060608060005b6008548110156115995788600a828154811061110f5761110e61377a565b5b9060005260206000209060070201600001540361158657600a818154811061113a5761113961377a565b5b906000526020600020906007020160000154600a82815481106111605761115f61377a565b5b9060005260206000209060070201600101600a83815481106111855761118461377a565b5b9060005260206000209060070201600201600a84815481106111aa576111a961377a565b5b9060005260206000209060070201600301600a85815481106111cf576111ce61377a565b5b9060005260206000209060070201600401600a86815481106111f4576111f361377a565b5b9060005260206000209060070201600501600a87815481106112195761121861377a565b5b9060005260206000209060070201600601858054611236906138bb565b80601f0160208091040260200160405190810160405280929190818152602001828054611262906138bb565b80156112af5780601f10611284576101008083540402835291602001916112af565b820191906000526020600020905b81548152906001019060200180831161129257829003601f168201915b505050505095508480546112c2906138bb565b80601f01602080910402602001604051908101604052809291908181526020018280546112ee906138bb565b801561133b5780601f106113105761010080835404028352916020019161133b565b820191906000526020600020905b81548152906001019060200180831161131e57829003601f168201915b5050505050945083805461134e906138bb565b80601f016020809104026020016040519081016040528092919081815260200182805461137a906138bb565b80156113c75780601f1061139c576101008083540402835291602001916113c7565b820191906000526020600020905b8154815290600101906020018083116113aa57829003601f168201915b505050505093508280546113da906138bb565b80601f0160208091040260200160405190810160405280929190818152602001828054611406906138bb565b80156114535780601f1061142857610100808354040283529160200191611453565b820191906000526020600020905b81548152906001019060200180831161143657829003601f168201915b50505050509250818054611466906138bb565b80601f0160208091040260200160405190810160405280929190818152602001828054611492906138bb565b80156114df5780601f106114b4576101008083540402835291602001916114df565b820191906000526020600020905b8154815290600101906020018083116114c257829003601f168201915b505050505091508080546114f2906138bb565b80601f016020809104026020016040519081016040528092919081815260200182805461151e906138bb565b801561156b5780601f106115405761010080835404028352916020019161156b565b820191906000526020600020905b81548152906001019060200180831161154e57829003601f168201915b5050505050905097509750975097509750975097505061160b565b808061159190613844565b9150506110f0565b50600060405180602001604052806000815250604051806020016040528060008152506040518060200160405280600081525060405180602001604052806000815250604051806020016040528060008152506040518060200160405280600081525096509650965096509650965096505b919395979092949650565b6060600a805480602002602001604051908101604052809291908181526020016000905b828210156119e257838290600052602060002090600702016040518060e001604052908160008201548152602001600182018054611677906138bb565b80601f01602080910402602001604051908101604052809291908181526020018280546116a3906138bb565b80156116f05780601f106116c5576101008083540402835291602001916116f0565b820191906000526020600020905b8154815290600101906020018083116116d357829003601f168201915b50505050508152602001600282018054611709906138bb565b80601f0160208091040260200160405190810160405280929190818152602001828054611735906138bb565b80156117825780601f1061175757610100808354040283529160200191611782565b820191906000526020600020905b81548152906001019060200180831161176557829003601f168201915b5050505050815260200160038201805461179b906138bb565b80601f01602080910402602001604051908101604052809291908181526020018280546117c7906138bb565b80156118145780601f106117e957610100808354040283529160200191611814565b820191906000526020600020905b8154815290600101906020018083116117f757829003601f168201915b5050505050815260200160048201805461182d906138bb565b80601f0160208091040260200160405190810160405280929190818152602001828054611859906138bb565b80156118a65780601f1061187b576101008083540402835291602001916118a6565b820191906000526020600020905b81548152906001019060200180831161188957829003601f168201915b505050505081526020016005820180546118bf906138bb565b80601f01602080910402602001604051908101604052809291908181526020018280546118eb906138bb565b80156119385780601f1061190d57610100808354040283529160200191611938565b820191906000526020600020905b81548152906001019060200180831161191b57829003601f168201915b50505050508152602001600682018054611951906138bb565b80601f016020809104026020016040519081016040528092919081815260200182805461197d906138bb565b80156119ca5780601f1061199f576101008083540402835291602001916119ca565b820191906000526020600020905b8154815290600101906020018083116119ad57829003601f168201915b5050505050815250508152602001906001019061163a565b50505050905090565b6000600560008473ffffffffffffffffffffffffffffffffffffffff1673ffffffffffffffffffffffffffffffffffffffff16815260200190815260200160002060008373ffffffffffffffffffffffffffffffffffffffff1673ffffffffffffffffffffffffffffffffffffffff16815260200190815260200160002060009054906101000a900460ff16905092915050565b6060600b805480602002602001604051908101604052809291908181526020016000905b82821015611b5c57838290600052602060002090600402016040518060800160405290816000820160009054906101000a900473ffffffffffffffffffffffffffffffffffffffff1673ffffffffffffffffffffffffffffffffffffffff1673ffffffffffffffffffffffffffffffffffffffff168152602001600182015481526020016002820160009054906101000a900460ff1660ff1660ff16815260200160038201548152505081526020019060010190611aa3565b50505050905090565b60007f01ffc9a7000000000000000000000000000000000000000000000000000000007bffffffffffffffffffffffffffffffffffffffffffffffffffffffff1916827bffffffffffffffffffffffffffffffffffffffffffffffffffffffff1916149050919050565b611bd881612577565b611c17576040517f08c379a0000000000000000000000000000000000000000000000000000000008152600401611c0e90613aee565b60405180910390fd5b50565b600033905090565b816004600083815260200190815260200160002060006101000a81548173ffffffffffffffffffffffffffffffffffffffff021916908373ffffffffffffffffffffffffffffffffffffffff160217905550808273ffffffffffffffffffffffffffffffffffffffff16611c9583610b3c565b73ffffffffffffffffffffffffffffffffffffffff167f8c5be1e5ebec7d5bd14f71427d1e84f3dd0314c0f7b2291e5b200ac8c7c3b92560405160405180910390a45050565b600080611ce783610b3c565b90508073ffffffffffffffffffffffffffffffffffffffff168473ffffffffffffffffffffffffffffffffffffffff161480611d295750611d2881856119eb565b5b80611d6757508373ffffffffffffffffffffffffffffffffffffffff16611d4f84610855565b73ffffffffffffffffffffffffffffffffffffffff16145b91505092915050565b8273ffffffffffffffffffffffffffffffffffffffff16611d9082610b3c565b73ffffffffffffffffffffffffffffffffffffffff1614611de6576040517f08c379a0000000000000000000000000000000000000000000000000000000008152600401611ddd90613f84565b60405180910390fd5b600073ffffffffffffffffffffffffffffffffffffffff168273ffffffffffffffffffffffffffffffffffffffff1603611e55576040517f08c379a0000000000000000000000000000000000000000000000000000000008152600401611e4c90614016565b60405180910390fd5b611e6283838360016125b8565b8273ffffffffffffffffffffffffffffffffffffffff16611e8282610b3c565b73ffffffffffffffffffffffffffffffffffffffff1614611ed8576040517f08c379a0000000000000000000000000000000000000000000000000000000008152600401611ecf90613f84565b60405180910390fd5b6004600082815260200190815260200160002060006101000a81549073ffffffffffffffffffffffffffffffffffffffff02191690556001600360008573ffffffffffffffffffffffffffffffffffffffff1673ffffffffffffffffffffffffffffffffffffffff168152602001908152602001600020600082825403925050819055506001600360008473ffffffffffffffffffffffffffffffffffffffff1673ffffffffffffffffffffffffffffffffffffffff16815260200190815260200160002060008282540192505081905550816002600083815260200190815260200160002060006101000a81548173ffffffffffffffffffffffffffffffffffffffff021916908373ffffffffffffffffffffffffffffffffffffffff160217905550808273ffffffffffffffffffffffffffffffffffffffff168473ffffffffffffffffffffffffffffffffffffffff167fddf252ad1be2c89b69c2b068fc378daa952ba7f163c4a11628f55a4df523b3ef60405160405180910390a461206483838360016126de565b505050565b60006002600083815260200190815260200160002060009054906101000a900473ffffffffffffffffffffffffffffffffffffffff169050919050565b600073ffffffffffffffffffffffffffffffffffffffff168273ffffffffffffffffffffffffffffffffffffffff1603612115576040517f08c379a000000000000000000000000000000000000000000000000000000000815260040161210c90614082565b60405180910390fd5b61211e81612577565b1561215e576040517f08c379a0000000000000000000000000000000000000000000000000000000008152600401612155906140ee565b60405180910390fd5b61216c6000838360016125b8565b61217581612577565b156121b5576040517f08c379a00000000000000000000000000000000000000000000000000000000081526004016121ac906140ee565b60405180910390fd5b6001600360008473ffffffffffffffffffffffffffffffffffffffff1673ffffffffffffffffffffffffffffffffffffffff16815260200190815260200160002060008282540192505081905550816002600083815260200190815260200160002060006101000a81548173ffffffffffffffffffffffffffffffffffffffff021916908373ffffffffffffffffffffffffffffffffffffffff160217905550808273ffffffffffffffffffffffffffffffffffffffff16600073ffffffffffffffffffffffffffffffffffffffff167fddf252ad1be2c89b69c2b068fc378daa952ba7f163c4a11628f55a4df523b3ef60405160405180910390a46122bf6000838360016126de565b5050565b6122cc82612577565b61230b576040517f08c379a000000000000000000000000000000000000000000000000000000000815260040161230290614180565b60405180910390fd5b8060066000848152602001908152602001600020908161232b9190613d4e565b505050565b8173ffffffffffffffffffffffffffffffffffffffff168373ffffffffffffffffffffffffffffffffffffffff160361239e576040517f08c379a0000000000000000000000000000000000000000000000000000000008152600401612395906141ec565b60405180910390fd5b80600560008573ffffffffffffffffffffffffffffffffffffffff1673ffffffffffffffffffffffffffffffffffffffff16815260200190815260200160002060008473ffffffffffffffffffffffffffffffffffffffff1673ffffffffffffffffffffffffffffffffffffffff16815260200190815260200160002060006101000a81548160ff0219169083151502179055508173ffffffffffffffffffffffffffffffffffffffff168373ffffffffffffffffffffffffffffffffffffffff167f17307eab39ab6107e8899845ad3d59bd9653f200f220920489ca2b5937696c318360405161248f9190612c53565b60405180910390a3505050565b6124a7848484611d70565b6124b3848484846126e4565b6124f2576040517f08c379a00000000000000000000000000000000000000000000000000000000081526004016124e99061427e565b60405180910390fd5b50505050565b606060405180602001604052806000815250905090565b606061251a82611bcf565b60006125246124f8565b90506000815111612544576040518060200160405280600081525061256f565b8061254e8461286b565b60405160200161255f929190613eee565b6040516020818303038152906040525b915050919050565b60008073ffffffffffffffffffffffffffffffffffffffff1661259983612069565b73ffffffffffffffffffffffffffffffffffffffff1614159050919050565b60018111156126d857600073ffffffffffffffffffffffffffffffffffffffff168473ffffffffffffffffffffffffffffffffffffffff161461264c5780600360008673ffffffffffffffffffffffffffffffffffffffff1673ffffffffffffffffffffffffffffffffffffffff1681526020019081526020016000206000828254612644919061429e565b925050819055505b600073ffffffffffffffffffffffffffffffffffffffff168373ffffffffffffffffffffffffffffffffffffffff16146126d75780600360008573ffffffffffffffffffffffffffffffffffffffff1673ffffffffffffffffffffffffffffffffffffffff16815260200190815260200160002060008282546126cf9190613b0e565b925050819055505b5b50505050565b50505050565b60006127058473ffffffffffffffffffffffffffffffffffffffff16612939565b1561285e578373ffffffffffffffffffffffffffffffffffffffff1663150b7a0261272e611c1a565b8786866040518563ffffffff1660e01b81526004016127509493929190614327565b6020604051808303816000875af192505050801561278c57506040513d601f19601f820116820180604052508101906127899190614388565b60015b61280e573d80600081146127bc576040519150601f19603f3d011682016040523d82523d6000602084013e6127c1565b606091505b506000815103612806576040517f08c379a00000000000000000000000000000000000000000000000000000000081526004016127fd9061427e565b60405180910390fd5b805181602001fd5b63150b7a0260e01b7bffffffffffffffffffffffffffffffffffffffffffffffffffffffff1916817bffffffffffffffffffffffffffffffffffffffffffffffffffffffff191614915050612863565b600190505b949350505050565b60606000600161287a8461295c565b01905060008167ffffffffffffffff81111561289957612898612f74565b5b6040519080825280601f01601f1916602001820160405280156128cb5781602001600182028036833780820191505090505b509050600082602001820190505b60011561292e578080600190039150507f3031323334353637383961626364656600000000000000000000000000000000600a86061a8153600a858161292257612921613b42565b5b049450600085036128d9575b819350505050919050565b6000808273ffffffffffffffffffffffffffffffffffffffff163b119050919050565b600080600090507a184f03e93ff9f4daa797ed6e38ed64bf6a1f01000000000000000083106129ba577a184f03e93ff9f4daa797ed6e38ed64bf6a1f01000000000000000083816129b0576129af613b42565b5b0492506040810190505b6d04ee2d6d415b85acef810000000083106129f7576d04ee2d6d415b85acef810000000083816129ed576129ec613b42565b5b0492506020810190505b662386f26fc100008310612a2657662386f26fc100008381612a1c57612a1b613b42565b5b0492506010810190505b6305f5e1008310612a4f576305f5e1008381612a4557612a44613b42565b5b0492506008810190505b6127108310612a74576127108381612a6a57612a69613b42565b5b0492506004810190505b60648310612a975760648381612a8d57612a8c613b42565b5b0492506002810190505b600a8310612aa6576001810190505b80915050919050565b6040518060800160405280600073ffffffffffffffffffffffffffffffffffffffff16815260200160008152602001600060ff168152602001600081525090565b6000604051905090565b600080fd5b600080fd5b6000819050919050565b612b1781612b04565b8114612b2257600080fd5b50565b600081359050612b3481612b0e565b92915050565b600060ff82169050919050565b612b5081612b3a565b8114612b5b57600080fd5b50565b600081359050612b6d81612b47565b92915050565b60008060408385031215612b8a57612b89612afa565b5b6000612b9885828601612b25565b9250506020612ba985828601612b5e565b9150509250929050565b60007fffffffff0000000000000000000000000000000000000000000000000000000082169050919050565b612be881612bb3565b8114612bf357600080fd5b50565b600081359050612c0581612bdf565b92915050565b600060208284031215612c2157612c20612afa565b5b6000612c2f84828501612bf6565b91505092915050565b60008115159050919050565b612c4d81612c38565b82525050565b6000602082019050612c686000830184612c44565b92915050565b600081519050919050565b600082825260208201905092915050565b60005b83811015612ca8578082015181840152602081019050612c8d565b60008484015250505050565b6000601f19601f8301169050919050565b6000612cd082612c6e565b612cda8185612c79565b9350612cea818560208601612c8a565b612cf381612cb4565b840191505092915050565b60006020820190508181036000830152612d188184612cc5565b905092915050565b600060208284031215612d3657612d35612afa565b5b6000612d4484828501612b25565b91505092915050565b600073ffffffffffffffffffffffffffffffffffffffff82169050919050565b6000612d7882612d4d565b9050919050565b612d8881612d6d565b82525050565b6000602082019050612da36000830184612d7f565b92915050565b612db281612d6d565b8114612dbd57600080fd5b50565b600081359050612dcf81612da9565b92915050565b60008060408385031215612dec57612deb612afa565b5b6000612dfa85828601612dc0565b9250506020612e0b85828601612b25565b9150509250929050565b600080600060608486031215612e2e57612e2d612afa565b5b6000612e3c86828701612dc0565b9350506020612e4d86828701612dc0565b9250506040612e5e86828701612b25565b9150509250925092565b600060208284031215612e7e57612e7d612afa565b5b6000612e8c84828501612dc0565b91505092915050565b612e9e81612d6d565b82525050565b612ead81612b04565b82525050565b612ebc81612b3a565b82525050565b608082016000820151612ed86000850182612e95565b506020820151612eeb6020850182612ea4565b506040820151612efe6040850182612eb3565b506060820151612f116060850182612ea4565b50505050565b600060a082019050612f2c6000830185612c44565b612f396020830184612ec2565b9392505050565b612f4981612b3a565b82525050565b6000602082019050612f646000830184612f40565b92915050565b600080fd5b600080fd5b7f4e487b7100000000000000000000000000000000000000000000000000000000600052604160045260246000fd5b612fac82612cb4565b810181811067ffffffffffffffff82111715612fcb57612fca612f74565b5b80604052505050565b6000612fde612af0565b9050612fea8282612fa3565b919050565b600067ffffffffffffffff82111561300a57613009612f74565b5b61301382612cb4565b9050602081019050919050565b82818337600083830152505050565b600061304261303d84612fef565b612fd4565b90508281526020810184848401111561305e5761305d612f6f565b5b613069848285613020565b509392505050565b600082601f83011261308657613085612f6a565b5b813561309684826020860161302f565b91505092915050565b60008060008060008060c087890312156130bc576130bb612afa565b5b600087013567ffffffffffffffff8111156130da576130d9612aff565b5b6130e689828a01613071565b965050602087013567ffffffffffffffff81111561310757613106612aff565b5b61311389828a01613071565b955050604087013567ffffffffffffffff81111561313457613133612aff565b5b61314089828a01613071565b945050606087013567ffffffffffffffff81111561316157613160612aff565b5b61316d89828a01613071565b935050608087013567ffffffffffffffff81111561318e5761318d612aff565b5b61319a89828a01613071565b92505060a087013567ffffffffffffffff8111156131bb576131ba612aff565b5b6131c789828a01613071565b9150509295509295509295565b6131dd81612b04565b82525050565b60006020820190506131f860008301846131d4565b92915050565b61320781612c38565b811461321257600080fd5b50565b600081359050613224816131fe565b92915050565b6000806040838503121561324157613240612afa565b5b600061324f85828601612dc0565b925050602061326085828601613215565b9150509250929050565b600067ffffffffffffffff82111561328557613284612f74565b5b61328e82612cb4565b9050602081019050919050565b60006132ae6132a98461326a565b612fd4565b9050828152602081018484840111156132ca576132c9612f6f565b5b6132d5848285613020565b509392505050565b600082601f8301126132f2576132f1612f6a565b5b813561330284826020860161329b565b91505092915050565b6000806000806080858703121561332557613324612afa565b5b600061333387828801612dc0565b945050602061334487828801612dc0565b935050604061335587828801612b25565b925050606085013567ffffffffffffffff81111561337657613375612aff565b5b613382878288016132dd565b91505092959194509250565b600060e0820190506133a3600083018a6131d4565b81810360208301526133b58189612cc5565b905081810360408301526133c98188612cc5565b905081810360608301526133dd8187612cc5565b905081810360808301526133f18186612cc5565b905081810360a08301526134058185612cc5565b905081810360c08301526134198184612cc5565b905098975050505050505050565b600081519050919050565b600082825260208201905092915050565b6000819050602082019050919050565b600082825260208201905092915050565b600061346f82612c6e565b6134798185613453565b9350613489818560208601612c8a565b61349281612cb4565b840191505092915050565b600060e0830160008301516134b56000860182612ea4565b50602083015184820360208601526134cd8282613464565b915050604083015184820360408601526134e78282613464565b915050606083015184820360608601526135018282613464565b9150506080830151848203608086015261351b8282613464565b91505060a083015184820360a08601526135358282613464565b91505060c083015184820360c086015261354f8282613464565b9150508091505092915050565b6000613568838361349d565b905092915050565b6000602082019050919050565b600061358882613427565b6135928185613432565b9350836020820285016135a485613443565b8060005b858110156135e057848403895281516135c1858261355c565b94506135cc83613570565b925060208a019950506001810190506135a8565b50829750879550505050505092915050565b6000602082019050818103600083015261360c818461357d565b905092915050565b6000806040838503121561362b5761362a612afa565b5b600061363985828601612dc0565b925050602061364a85828601612dc0565b9150509250929050565b600081519050919050565b600082825260208201905092915050565b6000819050602082019050919050565b6080820160008201516136966000850182612e95565b5060208201516136a96020850182612ea4565b5060408201516136bc6040850182612eb3565b5060608201516136cf6060850182612ea4565b50505050565b60006136e18383613680565b60808301905092915050565b6000602082019050919050565b600061370582613654565b61370f818561365f565b935061371a83613670565b8060005b8381101561374b57815161373288826136d5565b975061373d836136ed565b92505060018101905061371e565b5085935050505092915050565b6000602082019050818103600083015261377281846136fa565b905092915050565b7f4e487b7100000000000000000000000000000000000000000000000000000000600052603260045260246000fd5b7f4d6f7669652063616e6e6f742062652072617465642074776963650000000000600082015250565b60006137df601b83612c79565b91506137ea826137a9565b602082019050919050565b6000602082019050818103600083015261380e816137d2565b9050919050565b7f4e487b7100000000000000000000000000000000000000000000000000000000600052601160045260246000fd5b600061384f82612b04565b91507fffffffffffffffffffffffffffffffffffffffffffffffffffffffffffffffff820361388157613880613815565b5b600182019050919050565b7f4e487b7100000000000000000000000000000000000000000000000000000000600052602260045260246000fd5b600060028204905060018216806138d357607f821691505b6020821081036138e6576138e561388c565b5b50919050565b7f4552433732313a20617070726f76616c20746f2063757272656e74206f776e6560008201527f7200000000000000000000000000000000000000000000000000000000000000602082015250565b6000613948602183612c79565b9150613953826138ec565b604082019050919050565b600060208201905081810360008301526139778161393b565b9050919050565b7f4552433732313a20617070726f76652063616c6c6572206973206e6f7420746f60008201527f6b656e206f776e6572206f7220617070726f76656420666f7220616c6c000000602082015250565b60006139da603d83612c79565b91506139e58261397e565b604082019050919050565b60006020820190508181036000830152613a09816139cd565b9050919050565b7f4552433732313a2063616c6c6572206973206e6f7420746f6b656e206f776e6560008201527f72206f7220617070726f76656400000000000000000000000000000000000000602082015250565b6000613a6c602d83612c79565b9150613a7782613a10565b604082019050919050565b60006020820190508181036000830152613a9b81613a5f565b9050919050565b7f4552433732313a20696e76616c696420746f6b656e2049440000000000000000600082015250565b6000613ad8601883612c79565b9150613ae382613aa2565b602082019050919050565b60006020820190508181036000830152613b0781613acb565b9050919050565b6000613b1982612b04565b9150613b2483612b04565b9250828201905080821115613b3c57613b3b613815565b5b92915050565b7f4e487b7100000000000000000000000000000000000000000000000000000000600052601260045260246000fd5b6000613b7c82612b04565b9150613b8783612b04565b925082613b9757613b96613b42565b5b828204905092915050565b60008190508160005260206000209050919050565b60006020601f8301049050919050565b600082821b905092915050565b600060088302613c047fffffffffffffffffffffffffffffffffffffffffffffffffffffffffffffffff82613bc7565b613c0e8683613bc7565b95508019841693508086168417925050509392505050565b6000819050919050565b6000613c4b613c46613c4184612b04565b613c26565b612b04565b9050919050565b6000819050919050565b613c6583613c30565b613c79613c7182613c52565b848454613bd4565b825550505050565b600090565b613c8e613c81565b613c99818484613c5c565b505050565b5b81811015613cbd57613cb2600082613c86565b600181019050613c9f565b5050565b601f821115613d0257613cd381613ba2565b613cdc84613bb7565b81016020851015613ceb578190505b613cff613cf785613bb7565b830182613c9e565b50505b505050565b600082821c905092915050565b6000613d2560001984600802613d07565b1980831691505092915050565b6000613d3e8383613d14565b9150826002028217905092915050565b613d5782612c6e565b67ffffffffffffffff811115613d7057613d6f612f74565b5b613d7a82546138bb565b613d85828285613cc1565b600060209050601f831160018114613db85760008415613da6578287015190505b613db08582613d32565b865550613e18565b601f198416613dc686613ba2565b60005b82811015613dee57848901518255600182019150602085019450602081019050613dc9565b86831015613e0b5784890151613e07601f891682613d14565b8355505b6001600288020188555050505b505050505050565b7f4552433732313a2061646472657373207a65726f206973206e6f74206120766160008201527f6c6964206f776e65720000000000000000000000000000000000000000000000602082015250565b6000613e7c602983612c79565b9150613e8782613e20565b604082019050919050565b60006020820190508181036000830152613eab81613e6f565b9050919050565b600081905092915050565b6000613ec882612c6e565b613ed28185613eb2565b9350613ee2818560208601612c8a565b80840191505092915050565b6000613efa8285613ebd565b9150613f068284613ebd565b91508190509392505050565b7f4552433732313a207472616e736665722066726f6d20696e636f72726563742060008201527f6f776e6572000000000000000000000000000000000000000000000000000000602082015250565b6000613f6e602583612c79565b9150613f7982613f12565b604082019050919050565b60006020820190508181036000830152613f9d81613f61565b9050919050565b7f4552433732313a207472616e7366657220746f20746865207a65726f2061646460008201527f7265737300000000000000000000000000000000000000000000000000000000602082015250565b6000614000602483612c79565b915061400b82613fa4565b604082019050919050565b6000602082019050818103600083015261402f81613ff3565b9050919050565b7f4552433732313a206d696e7420746f20746865207a65726f2061646472657373600082015250565b600061406c602083612c79565b915061407782614036565b602082019050919050565b6000602082019050818103600083015261409b8161405f565b9050919050565b7f4552433732313a20746f6b656e20616c7265616479206d696e74656400000000600082015250565b60006140d8601c83612c79565b91506140e3826140a2565b602082019050919050565b60006020820190508181036000830152614107816140cb565b9050919050565b7f45524337323155524953746f726167653a2055524920736574206f66206e6f6e60008201527f6578697374656e7420746f6b656e000000000000000000000000000000000000602082015250565b600061416a602e83612c79565b91506141758261410e565b604082019050919050565b600060208201905081810360008301526141998161415d565b9050919050565b7f4552433732313a20617070726f766520746f2063616c6c657200000000000000600082015250565b60006141d6601983612c79565b91506141e1826141a0565b602082019050919050565b60006020820190508181036000830152614205816141c9565b9050919050565b7f4552433732313a207472616e7366657220746f206e6f6e20455243373231526560008201527f63656976657220696d706c656d656e7465720000000000000000000000000000602082015250565b6000614268603283612c79565b91506142738261420c565b604082019050919050565b600060208201905081810360008301526142978161425b565b9050919050565b60006142a982612b04565b91506142b483612b04565b92508282039050818111156142cc576142cb613815565b5b92915050565b600081519050919050565b600082825260208201905092915050565b60006142f9826142d2565b61430381856142dd565b9350614313818560208601612c8a565b61431c81612cb4565b840191505092915050565b600060808201905061433c6000830187612d7f565b6143496020830186612d7f565b61435660408301856131d4565b818103606083015261436881846142ee565b905095945050505050565b60008151905061438281612bdf565b92915050565b60006020828403121561439e5761439d612afa565b5b60006143ac84828501614373565b9150509291505056fea2646970667358221220e5c5bc9be08d22fbef580daf87b07e1e835311ee1a43ab766e72a6dbfd50e49164736f6c63430008110033",
  "immutableReferences": {},
  "source": "// SPDX-License-Identifier: MIT\npragma solidity ^0.8.4;\n\nimport \"@openzeppelin/contracts/token/ERC721/extensions/ERC721URIStorage.sol\";\nimport \"@openzeppelin/contracts/utils/Strings.sol\";\n\ncontract MoviesNFT is ERC721URIStorage {\n    uint256 MAX_RATING_COUNT = 100000000000;\n    uint256 private movieNumber = 1;\n    address private _owner; // owner of the movie NFT\n\n    struct movieData {\n        uint256 movieNumber;\n        string movieName;\n        string movieDescription;\n        string release;\n        string director;\n        string imageURL;\n        string ipfsHash;\n    }\n\n    struct rating {\n        address ratingOwner; // address who made the rating\n        uint256 movieNumber; // number of the movie for which the rating is being casted\n        uint8 ratingVal; // must be between 1(min rate) and 10(max rate)\n        uint256 createdAt; // timestamp of rating\n    }\n\n    movieData[] movies;\n    rating[] ratings;\n    mapping(address => rating) userRating;\n    mapping(address => uint256[]) userMovieRating;\n\n    // mapping(uint256 => rating[]) movieRating;\n    // mapping(uint256 => uint8) movieRatingAverage;\n\n    constructor(address owner) ERC721(\"MovieNFT\", \"MNFT\") {\n        _owner = owner;\n    }\n\n    function createMovieNft(\n        string memory name,\n        string memory description,\n        string memory release,\n        string memory director,\n        string memory imageURL,\n        string memory ipfsHash\n    ) public {\n        require(msg.sender == _owner);\n\n        movieData memory nextMovie = movieData(\n            movieNumber,\n            name,\n            description,\n            release,\n            director,\n            imageURL,\n            ipfsHash\n        );\n\n        movies.push(nextMovie);\n        _mint(msg.sender, movieNumber);\n        _setTokenURI(movieNumber, ipfsHash);\n        movieNumber++;\n    }\n\n    function getAllMovies() public view returns (movieData[] memory) {\n        return movies;\n    }\n\n    function getMovieByNumber(uint256 _movieNum)\n        public\n        view\n        returns (\n            uint256,\n            string memory,\n            string memory,\n            string memory,\n            string memory,\n            string memory,\n            string memory\n        )\n    {\n        for (uint256 i = 0; i < movieNumber; i++) {\n            if (movies[i].movieNumber == _movieNum) {\n                return (\n                    movies[i].movieNumber,\n                    movies[i].movieName,\n                    movies[i].movieDescription,\n                    movies[i].release,\n                    movies[i].director,\n                    movies[i].imageURL,\n                    movies[i].ipfsHash\n                );\n            }\n        }\n        return (0, \"\", \"\", \"\", \"\", \"\", \"\");\n    }\n\n    function castMovieRating(uint256 _movieNum, uint8 ratingVal) public {\n        // rating memory prevRating = userRating[msg.sender];\n        // require(prevRating.ratingVal <= 0);\n\n        // uint256[] memory PrevRatedMovies = userMovieRating[msg.sender];\n        for (uint256 i = 0; i < ratings.length; i++) {\n            // require(\n            //     ratings[i].ratingOwner == msg.sender &&\n            //         ratings[i].movieNumber == _movieNum,\n            //     \"Movie cannot be rated twice\"\n            // );\n            if (\n                ratings[i].ratingOwner == msg.sender &&\n                ratings[i].movieNumber == _movieNum\n            ) {\n                require(1 == 2, \"Movie cannot be rated twice\");\n            }\n        }\n\n        rating memory r = rating(\n            msg.sender,\n            _movieNum,\n            ratingVal,\n            block.timestamp\n        );\n\n        userRating[msg.sender] = r;\n        // rating[] storage prevMovieR = movieRating[movieNum];\n        // prevMovieR.push(r);\n        // movieRating[movieNum] = prevMovieR;\n        ratings.push(r);\n    }\n\n    function getAvgMovieRating(uint256 _movieNum) public view returns (uint8) {\n        uint256 s = 0;\n        uint256 n = 0;\n        for (uint256 i = 0; i < ratings.length; i++) {\n            if (ratings[i].movieNumber == _movieNum) {\n                s = s + ratings[i].ratingVal;\n                n++;\n            }\n        }\n        uint8 avg = uint8(s / n);\n        return avg;\n    }\n\n    function getUserRating(address userAdd)\n        public\n        view\n        returns (bool, rating memory)\n    {\n        rating memory rs = userRating[userAdd];\n        if (rs.ratingVal > 0) {\n            return (true, rs);\n        }\n        return (false, rs);\n    }\n\n    function getAllRatings() public view returns (rating[] memory) {\n        return ratings;\n    }\n}\n",
  "sourcePath": "/Users/sagaranand/Documents/workspace-open/chainlink-2022/web3-imdb/_backend/contracts/MoviesNFT.sol",
  "compiler": {
    "name": "solc",
    "version": "0.8.17+commit.8df45f5f.Emscripten.clang"
  },
  "schemaVersion": "3.4.10",
  "updatedAt": "2022-11-18T21:55:47.979Z",
  "networkType": "ethereum",
  "devdoc": {
    "kind": "dev",
    "methods": {
      "approve(address,uint256)": {
        "details": "See {IERC721-approve}."
      },
      "balanceOf(address)": {
        "details": "See {IERC721-balanceOf}."
      },
      "getApproved(uint256)": {
        "details": "See {IERC721-getApproved}."
      },
      "isApprovedForAll(address,address)": {
        "details": "See {IERC721-isApprovedForAll}."
      },
      "name()": {
        "details": "See {IERC721Metadata-name}."
      },
      "ownerOf(uint256)": {
        "details": "See {IERC721-ownerOf}."
      },
      "safeTransferFrom(address,address,uint256)": {
        "details": "See {IERC721-safeTransferFrom}."
      },
      "safeTransferFrom(address,address,uint256,bytes)": {
        "details": "See {IERC721-safeTransferFrom}."
      },
      "setApprovalForAll(address,bool)": {
        "details": "See {IERC721-setApprovalForAll}."
      },
      "supportsInterface(bytes4)": {
        "details": "See {IERC165-supportsInterface}."
      },
      "symbol()": {
        "details": "See {IERC721Metadata-symbol}."
      },
      "tokenURI(uint256)": {
        "details": "See {IERC721Metadata-tokenURI}."
      },
      "transferFrom(address,address,uint256)": {
        "details": "See {IERC721-transferFrom}."
      }
    },
    "version": 1
  },
  "userdoc": {
    "kind": "user",
    "methods": {},
    "version": 1
  }
}