{
  "contractName": "MoviesNFT",
  "abi": [
    {
      "inputs": [
        {
          "internalType": "address",
          "name": "owner",
          "type": "address"
        }
      ],
      "stateMutability": "nonpayable",
      "type": "constructor"
    },
    {
      "anonymous": false,
      "inputs": [
        {
          "indexed": true,
          "internalType": "address",
          "name": "owner",
          "type": "address"
        },
        {
          "indexed": true,
          "internalType": "address",
          "name": "approved",
          "type": "address"
        },
        {
          "indexed": true,
          "internalType": "uint256",
          "name": "tokenId",
          "type": "uint256"
        }
      ],
      "name": "Approval",
      "type": "event"
    },
    {
      "anonymous": false,
      "inputs": [
        {
          "indexed": true,
          "internalType": "address",
          "name": "owner",
          "type": "address"
        },
        {
          "indexed": true,
          "internalType": "address",
          "name": "operator",
          "type": "address"
        },
        {
          "indexed": false,
          "internalType": "bool",
          "name": "approved",
          "type": "bool"
        }
      ],
      "name": "ApprovalForAll",
      "type": "event"
    },
    {
      "anonymous": false,
      "inputs": [
        {
          "indexed": true,
          "internalType": "address",
          "name": "from",
          "type": "address"
        },
        {
          "indexed": true,
          "internalType": "address",
          "name": "to",
          "type": "address"
        },
        {
          "indexed": true,
          "internalType": "uint256",
          "name": "tokenId",
          "type": "uint256"
        }
      ],
      "name": "Transfer",
      "type": "event"
    },
    {
      "inputs": [
        {
          "internalType": "address",
          "name": "to",
          "type": "address"
        },
        {
          "internalType": "uint256",
          "name": "tokenId",
          "type": "uint256"
        }
      ],
      "name": "approve",
      "outputs": [],
      "stateMutability": "nonpayable",
      "type": "function"
    },
    {
      "inputs": [
        {
          "internalType": "address",
          "name": "owner",
          "type": "address"
        }
      ],
      "name": "balanceOf",
      "outputs": [
        {
          "internalType": "uint256",
          "name": "",
          "type": "uint256"
        }
      ],
      "stateMutability": "view",
      "type": "function",
      "constant": true
    },
    {
      "inputs": [
        {
          "internalType": "uint256",
          "name": "tokenId",
          "type": "uint256"
        }
      ],
      "name": "getApproved",
      "outputs": [
        {
          "internalType": "address",
          "name": "",
          "type": "address"
        }
      ],
      "stateMutability": "view",
      "type": "function",
      "constant": true
    },
    {
      "inputs": [
        {
          "internalType": "address",
          "name": "owner",
          "type": "address"
        },
        {
          "internalType": "address",
          "name": "operator",
          "type": "address"
        }
      ],
      "name": "isApprovedForAll",
      "outputs": [
        {
          "internalType": "bool",
          "name": "",
          "type": "bool"
        }
      ],
      "stateMutability": "view",
      "type": "function",
      "constant": true
    },
    {
      "inputs": [],
      "name": "name",
      "outputs": [
        {
          "internalType": "string",
          "name": "",
          "type": "string"
        }
      ],
      "stateMutability": "view",
      "type": "function",
      "constant": true
    },
    {
      "inputs": [
        {
          "internalType": "uint256",
          "name": "tokenId",
          "type": "uint256"
        }
      ],
      "name": "ownerOf",
      "outputs": [
        {
          "internalType": "address",
          "name": "",
          "type": "address"
        }
      ],
      "stateMutability": "view",
      "type": "function",
      "constant": true
    },
    {
      "inputs": [
        {
          "internalType": "address",
          "name": "from",
          "type": "address"
        },
        {
          "internalType": "address",
          "name": "to",
          "type": "address"
        },
        {
          "internalType": "uint256",
          "name": "tokenId",
          "type": "uint256"
        }
      ],
      "name": "safeTransferFrom",
      "outputs": [],
      "stateMutability": "nonpayable",
      "type": "function"
    },
    {
      "inputs": [
        {
          "internalType": "address",
          "name": "from",
          "type": "address"
        },
        {
          "internalType": "address",
          "name": "to",
          "type": "address"
        },
        {
          "internalType": "uint256",
          "name": "tokenId",
          "type": "uint256"
        },
        {
          "internalType": "bytes",
          "name": "data",
          "type": "bytes"
        }
      ],
      "name": "safeTransferFrom",
      "outputs": [],
      "stateMutability": "nonpayable",
      "type": "function"
    },
    {
      "inputs": [
        {
          "internalType": "address",
          "name": "operator",
          "type": "address"
        },
        {
          "internalType": "bool",
          "name": "approved",
          "type": "bool"
        }
      ],
      "name": "setApprovalForAll",
      "outputs": [],
      "stateMutability": "nonpayable",
      "type": "function"
    },
    {
      "inputs": [
        {
          "internalType": "bytes4",
          "name": "interfaceId",
          "type": "bytes4"
        }
      ],
      "name": "supportsInterface",
      "outputs": [
        {
          "internalType": "bool",
          "name": "",
          "type": "bool"
        }
      ],
      "stateMutability": "view",
      "type": "function",
      "constant": true
    },
    {
      "inputs": [],
      "name": "symbol",
      "outputs": [
        {
          "internalType": "string",
          "name": "",
          "type": "string"
        }
      ],
      "stateMutability": "view",
      "type": "function",
      "constant": true
    },
    {
      "inputs": [
        {
          "internalType": "uint256",
          "name": "tokenId",
          "type": "uint256"
        }
      ],
      "name": "tokenURI",
      "outputs": [
        {
          "internalType": "string",
          "name": "",
          "type": "string"
        }
      ],
      "stateMutability": "view",
      "type": "function",
      "constant": true
    },
    {
      "inputs": [
        {
          "internalType": "address",
          "name": "from",
          "type": "address"
        },
        {
          "internalType": "address",
          "name": "to",
          "type": "address"
        },
        {
          "internalType": "uint256",
          "name": "tokenId",
          "type": "uint256"
        }
      ],
      "name": "transferFrom",
      "outputs": [],
      "stateMutability": "nonpayable",
      "type": "function"
    },
    {
      "inputs": [
        {
          "internalType": "string",
          "name": "name",
          "type": "string"
        },
        {
          "internalType": "string",
          "name": "description",
          "type": "string"
        },
        {
          "internalType": "string",
          "name": "ipfsHash",
          "type": "string"
        }
      ],
      "name": "createMovieNft",
      "outputs": [],
      "stateMutability": "nonpayable",
      "type": "function"
    },
    {
      "inputs": [],
      "name": "getAllMovies",
      "outputs": [
        {
          "components": [
            {
              "internalType": "uint256",
              "name": "movieNumber",
              "type": "uint256"
            },
            {
              "internalType": "string",
              "name": "movieName",
              "type": "string"
            },
            {
              "internalType": "string",
              "name": "movieDescription",
              "type": "string"
            },
            {
              "internalType": "string",
              "name": "ipfsHash",
              "type": "string"
            }
          ],
          "internalType": "struct MoviesNFT.movieData[]",
          "name": "",
          "type": "tuple[]"
        }
      ],
      "stateMutability": "view",
      "type": "function",
      "constant": true
    },
    {
      "inputs": [
        {
          "internalType": "uint256",
          "name": "_movieNum",
          "type": "uint256"
        }
      ],
      "name": "getMovieByNumber",
      "outputs": [
        {
          "internalType": "uint256",
          "name": "",
          "type": "uint256"
        },
        {
          "internalType": "string",
          "name": "",
          "type": "string"
        },
        {
          "internalType": "string",
          "name": "",
          "type": "string"
        },
        {
          "internalType": "string",
          "name": "",
          "type": "string"
        }
      ],
      "stateMutability": "view",
      "type": "function",
      "constant": true
    },
    {
      "inputs": [
        {
          "internalType": "uint256",
          "name": "_movieNum",
          "type": "uint256"
        },
        {
          "internalType": "uint8",
          "name": "ratingVal",
          "type": "uint8"
        }
      ],
      "name": "castMovieRating",
      "outputs": [],
      "stateMutability": "nonpayable",
      "type": "function"
    },
    {
      "inputs": [
        {
          "internalType": "uint256",
          "name": "_movieNum",
          "type": "uint256"
        }
      ],
      "name": "getAvgMovieRating",
      "outputs": [
        {
          "internalType": "uint8",
          "name": "",
          "type": "uint8"
        }
      ],
      "stateMutability": "view",
      "type": "function",
      "constant": true
    },
    {
      "inputs": [
        {
          "internalType": "address",
          "name": "userAdd",
          "type": "address"
        }
      ],
      "name": "getUserRating",
      "outputs": [
        {
          "internalType": "bool",
          "name": "",
          "type": "bool"
        },
        {
          "components": [
            {
              "internalType": "address",
              "name": "ratingOwner",
              "type": "address"
            },
            {
              "internalType": "uint256",
              "name": "movieNumber",
              "type": "uint256"
            },
            {
              "internalType": "uint8",
              "name": "ratingVal",
              "type": "uint8"
            },
            {
              "internalType": "uint256",
              "name": "createdAt",
              "type": "uint256"
            }
          ],
          "internalType": "struct MoviesNFT.rating",
          "name": "",
          "type": "tuple"
        }
      ],
      "stateMutability": "view",
      "type": "function",
      "constant": true
    }
  ],
  "bytecode": "0x608060405264174876e80060075560016008553480156200001f57600080fd5b50604051620040cd380380620040cd833981810160405281019062000045919062000189565b6040518060400160405280600881526020017f4d6f7669654e46540000000000000000000000000000000000000000000000008152506040518060400160405280600481526020017f4d4e4654000000000000000000000000000000000000000000000000000000008152508160009081620000c2919062000435565b508060019081620000d4919062000435565b50505080600960006101000a81548173ffffffffffffffffffffffffffffffffffffffff021916908373ffffffffffffffffffffffffffffffffffffffff160217905550506200051c565b600080fd5b600073ffffffffffffffffffffffffffffffffffffffff82169050919050565b6000620001518262000124565b9050919050565b620001638162000144565b81146200016f57600080fd5b50565b600081519050620001838162000158565b92915050565b600060208284031215620001a257620001a16200011f565b5b6000620001b28482850162000172565b91505092915050565b600081519050919050565b7f4e487b7100000000000000000000000000000000000000000000000000000000600052604160045260246000fd5b7f4e487b7100000000000000000000000000000000000000000000000000000000600052602260045260246000fd5b600060028204905060018216806200023d57607f821691505b602082108103620002535762000252620001f5565b5b50919050565b60008190508160005260206000209050919050565b60006020601f8301049050919050565b600082821b905092915050565b600060088302620002bd7fffffffffffffffffffffffffffffffffffffffffffffffffffffffffffffffff826200027e565b620002c986836200027e565b95508019841693508086168417925050509392505050565b6000819050919050565b6000819050919050565b600062000316620003106200030a84620002e1565b620002eb565b620002e1565b9050919050565b6000819050919050565b6200033283620002f5565b6200034a62000341826200031d565b8484546200028b565b825550505050565b600090565b6200036162000352565b6200036e81848462000327565b505050565b5b8181101562000396576200038a60008262000357565b60018101905062000374565b5050565b601f821115620003e557620003af8162000259565b620003ba846200026e565b81016020851015620003ca578190505b620003e2620003d9856200026e565b83018262000373565b50505b505050565b600082821c905092915050565b60006200040a60001984600802620003ea565b1980831691505092915050565b6000620004258383620003f7565b9150826002028217905092915050565b6200044082620001bb565b67ffffffffffffffff8111156200045c576200045b620001c6565b5b62000468825462000224565b620004758282856200039a565b600060209050601f831160018114620004ad576000841562000498578287015190505b620004a4858262000417565b86555062000514565b601f198416620004bd8662000259565b60005b82811015620004e757848901518255600182019150602085019450602081019050620004c0565b8683101562000507578489015162000503601f891682620003f7565b8355505b6001600288020188555050505b505050505050565b613ba1806200052c6000396000f3fe608060405234801561001057600080fd5b50600436106101205760003560e01c80636352211e116100ad578063b88d4fde11610071578063b88d4fde1461032a578063c87b56dd14610346578063de5d9f3e14610376578063e16f0065146103a9578063e985e9c5146103c757610120565b80636352211e146102605780636b3f30d41461029057806370a08231146102c057806395d89b41146102f0578063a22cb4651461030e57610120565b8063095ea7b3116100f4578063095ea7b3146101bf57806323b872dd146101db57806342842e0e146101f7578063460168c314610213578063505db3af1461024457610120565b80620a09c01461012557806301ffc9a71461014157806306fdde0314610171578063081812fc1461018f575b600080fd5b61013f600480360381019061013a91906125d6565b6103f7565b005b61015b6004803603810190610156919061266e565b61068e565b60405161016891906126b6565b60405180910390f35b610179610770565b6040516101869190612761565b60405180910390f35b6101a960048036038101906101a49190612783565b610802565b6040516101b691906127f1565b60405180910390f35b6101d960048036038101906101d49190612838565b610848565b005b6101f560048036038101906101f09190612878565b61095f565b005b610211600480360381019061020c9190612878565b6109bf565b005b61022d600480360381019061022891906128cb565b6109df565b60405161023b92919061297a565b60405180910390f35b61025e60048036038101906102599190612ad8565b610ae9565b005b61027a60048036038101906102759190612783565b610c1a565b60405161028791906127f1565b60405180910390f35b6102aa60048036038101906102a59190612783565b610ca0565b6040516102b79190612b8e565b60405180910390f35b6102da60048036038101906102d591906128cb565b610d65565b6040516102e79190612bb8565b60405180910390f35b6102f8610e1c565b6040516103059190612761565b60405180910390f35b61032860048036038101906103239190612bff565b610eae565b005b610344600480360381019061033f9190612ce0565b610ec4565b005b610360600480360381019061035b9190612783565b610f26565b60405161036d9190612761565b60405180910390f35b610390600480360381019061038b9190612783565b611038565b6040516103a09493929190612d63565b60405180910390f35b6103b1611315565b6040516103be9190612f3a565b60405180910390f35b6103e160048036038101906103dc9190612f5c565b611534565b6040516103ee91906126b6565b60405180910390f35b6000600c60003373ffffffffffffffffffffffffffffffffffffffff1673ffffffffffffffffffffffffffffffffffffffff1681526020019081526020016000206040518060800160405290816000820160009054906101000a900473ffffffffffffffffffffffffffffffffffffffff1673ffffffffffffffffffffffffffffffffffffffff1673ffffffffffffffffffffffffffffffffffffffff168152602001600182015481526020016002820160009054906101000a900460ff1660ff1660ff16815260200160038201548152505090506000816040015160ff1611156104e157600080fd5b600060405180608001604052803373ffffffffffffffffffffffffffffffffffffffff1681526020018581526020018460ff16815260200142815250905080600c60003373ffffffffffffffffffffffffffffffffffffffff1673ffffffffffffffffffffffffffffffffffffffff16815260200190815260200160002060008201518160000160006101000a81548173ffffffffffffffffffffffffffffffffffffffff021916908373ffffffffffffffffffffffffffffffffffffffff1602179055506020820151816001015560408201518160020160006101000a81548160ff021916908360ff16021790555060608201518160030155905050600b81908060018154018082558091505060019003906000526020600020906004020160009091909190915060008201518160000160006101000a81548173ffffffffffffffffffffffffffffffffffffffff021916908373ffffffffffffffffffffffffffffffffffffffff1602179055506020820151816001015560408201518160020160006101000a81548160ff021916908360ff16021790555060608201518160030155505050505050565b60007f80ac58cd000000000000000000000000000000000000000000000000000000007bffffffffffffffffffffffffffffffffffffffffffffffffffffffff1916827bffffffffffffffffffffffffffffffffffffffffffffffffffffffff1916148061075957507f5b5e139f000000000000000000000000000000000000000000000000000000007bffffffffffffffffffffffffffffffffffffffffffffffffffffffff1916827bffffffffffffffffffffffffffffffffffffffffffffffffffffffff1916145b806107695750610768826115c8565b5b9050919050565b60606000805461077f90612fcb565b80601f01602080910402602001604051908101604052809291908181526020018280546107ab90612fcb565b80156107f85780601f106107cd576101008083540402835291602001916107f8565b820191906000526020600020905b8154815290600101906020018083116107db57829003601f168201915b5050505050905090565b600061080d82611632565b6004600083815260200190815260200160002060009054906101000a900473ffffffffffffffffffffffffffffffffffffffff169050919050565b600061085382610c1a565b90508073ffffffffffffffffffffffffffffffffffffffff168373ffffffffffffffffffffffffffffffffffffffff16036108c3576040517f08c379a00000000000000000000000000000000000000000000000000000000081526004016108ba9061306e565b60405180910390fd5b8073ffffffffffffffffffffffffffffffffffffffff166108e261167d565b73ffffffffffffffffffffffffffffffffffffffff16148061091157506109108161090b61167d565b611534565b5b610950576040517f08c379a000000000000000000000000000000000000000000000000000000000815260040161094790613100565b60405180910390fd5b61095a8383611685565b505050565b61097061096a61167d565b8261173e565b6109af576040517f08c379a00000000000000000000000000000000000000000000000000000000081526004016109a690613192565b60405180910390fd5b6109ba8383836117d3565b505050565b6109da83838360405180602001604052806000815250610ec4565b505050565b60006109e9612512565b6000600c60008573ffffffffffffffffffffffffffffffffffffffff1673ffffffffffffffffffffffffffffffffffffffff1681526020019081526020016000206040518060800160405290816000820160009054906101000a900473ffffffffffffffffffffffffffffffffffffffff1673ffffffffffffffffffffffffffffffffffffffff1673ffffffffffffffffffffffffffffffffffffffff168152602001600182015481526020016002820160009054906101000a900460ff1660ff1660ff16815260200160038201548152505090506000816040015160ff161115610adb576001819250925050610ae4565b60008192509250505b915091565b600960009054906101000a900473ffffffffffffffffffffffffffffffffffffffff1673ffffffffffffffffffffffffffffffffffffffff163373ffffffffffffffffffffffffffffffffffffffff1614610b4357600080fd5b600060405180608001604052806008548152602001858152602001848152602001838152509050600a819080600181540180825580915050600190039060005260206000209060040201600090919091909150600082015181600001556020820151816001019081610bb5919061335e565b506040820151816002019081610bcb919061335e565b506060820151816003019081610be1919061335e565b505050610bf033600854611acc565b610bfc60085483611ce9565b60086000815480929190610c0f9061345f565b919050555050505050565b600080610c2683611d56565b9050600073ffffffffffffffffffffffffffffffffffffffff168173ffffffffffffffffffffffffffffffffffffffff1603610c97576040517f08c379a0000000000000000000000000000000000000000000000000000000008152600401610c8e906134f3565b60405180910390fd5b80915050919050565b600080600090506000805b600b80549050811015610d495784600b8281548110610ccd57610ccc613513565b5b90600052602060002090600402016001015403610d3657600b8181548110610cf857610cf7613513565b5b906000526020600020906004020160020160009054906101000a900460ff1660ff1683610d259190613542565b92508180610d329061345f565b9250505b8080610d419061345f565b915050610cab565b5060008183610d5891906135a5565b9050809350505050919050565b60008073ffffffffffffffffffffffffffffffffffffffff168273ffffffffffffffffffffffffffffffffffffffff1603610dd5576040517f08c379a0000000000000000000000000000000000000000000000000000000008152600401610dcc90613648565b60405180910390fd5b600360008373ffffffffffffffffffffffffffffffffffffffff1673ffffffffffffffffffffffffffffffffffffffff168152602001908152602001600020549050919050565b606060018054610e2b90612fcb565b80601f0160208091040260200160405190810160405280929190818152602001828054610e5790612fcb565b8015610ea45780601f10610e7957610100808354040283529160200191610ea4565b820191906000526020600020905b815481529060010190602001808311610e8757829003601f168201915b5050505050905090565b610ec0610eb961167d565b8383611d93565b5050565b610ed5610ecf61167d565b8361173e565b610f14576040517f08c379a0000000000000000000000000000000000000000000000000000000008152600401610f0b90613192565b60405180910390fd5b610f2084848484611eff565b50505050565b6060610f3182611632565b6000600660008481526020019081526020016000208054610f5190612fcb565b80601f0160208091040260200160405190810160405280929190818152602001828054610f7d90612fcb565b8015610fca5780601f10610f9f57610100808354040283529160200191610fca565b820191906000526020600020905b815481529060010190602001808311610fad57829003601f168201915b505050505090506000610fdb611f5b565b90506000815103610ff0578192505050611033565b60008251111561102557808260405160200161100d9291906136a4565b60405160208183030381529060405292505050611033565b61102e84611f72565b925050505b919050565b6000606080606060005b6008548110156112d25785600a828154811061106157611060613513565b5b906000526020600020906004020160000154036112bf57600a818154811061108c5761108b613513565b5b906000526020600020906004020160000154600a82815481106110b2576110b1613513565b5b9060005260206000209060040201600101600a83815481106110d7576110d6613513565b5b9060005260206000209060040201600201600a84815481106110fc576110fb613513565b5b906000526020600020906004020160030182805461111990612fcb565b80601f016020809104026020016040519081016040528092919081815260200182805461114590612fcb565b80156111925780601f1061116757610100808354040283529160200191611192565b820191906000526020600020905b81548152906001019060200180831161117557829003601f168201915b505050505092508180546111a590612fcb565b80601f01602080910402602001604051908101604052809291908181526020018280546111d190612fcb565b801561121e5780601f106111f35761010080835404028352916020019161121e565b820191906000526020600020905b81548152906001019060200180831161120157829003601f168201915b5050505050915080805461123190612fcb565b80601f016020809104026020016040519081016040528092919081815260200182805461125d90612fcb565b80156112aa5780601f1061127f576101008083540402835291602001916112aa565b820191906000526020600020905b81548152906001019060200180831161128d57829003601f168201915b5050505050905094509450945094505061130e565b80806112ca9061345f565b915050611042565b50600060405180602001604052806000815250604051806020016040528060008152506040518060200160405280600081525093509350935093505b9193509193565b6060600a805480602002602001604051908101604052809291908181526020016000905b8282101561152b57838290600052602060002090600402016040518060800160405290816000820154815260200160018201805461137690612fcb565b80601f01602080910402602001604051908101604052809291908181526020018280546113a290612fcb565b80156113ef5780601f106113c4576101008083540402835291602001916113ef565b820191906000526020600020905b8154815290600101906020018083116113d257829003601f168201915b5050505050815260200160028201805461140890612fcb565b80601f016020809104026020016040519081016040528092919081815260200182805461143490612fcb565b80156114815780601f1061145657610100808354040283529160200191611481565b820191906000526020600020905b81548152906001019060200180831161146457829003601f168201915b5050505050815260200160038201805461149a90612fcb565b80601f01602080910402602001604051908101604052809291908181526020018280546114c690612fcb565b80156115135780601f106114e857610100808354040283529160200191611513565b820191906000526020600020905b8154815290600101906020018083116114f657829003601f168201915b50505050508152505081526020019060010190611339565b50505050905090565b6000600560008473ffffffffffffffffffffffffffffffffffffffff1673ffffffffffffffffffffffffffffffffffffffff16815260200190815260200160002060008373ffffffffffffffffffffffffffffffffffffffff1673ffffffffffffffffffffffffffffffffffffffff16815260200190815260200160002060009054906101000a900460ff16905092915050565b60007f01ffc9a7000000000000000000000000000000000000000000000000000000007bffffffffffffffffffffffffffffffffffffffffffffffffffffffff1916827bffffffffffffffffffffffffffffffffffffffffffffffffffffffff1916149050919050565b61163b81611fda565b61167a576040517f08c379a0000000000000000000000000000000000000000000000000000000008152600401611671906134f3565b60405180910390fd5b50565b600033905090565b816004600083815260200190815260200160002060006101000a81548173ffffffffffffffffffffffffffffffffffffffff021916908373ffffffffffffffffffffffffffffffffffffffff160217905550808273ffffffffffffffffffffffffffffffffffffffff166116f883610c1a565b73ffffffffffffffffffffffffffffffffffffffff167f8c5be1e5ebec7d5bd14f71427d1e84f3dd0314c0f7b2291e5b200ac8c7c3b92560405160405180910390a45050565b60008061174a83610c1a565b90508073ffffffffffffffffffffffffffffffffffffffff168473ffffffffffffffffffffffffffffffffffffffff16148061178c575061178b8185611534565b5b806117ca57508373ffffffffffffffffffffffffffffffffffffffff166117b284610802565b73ffffffffffffffffffffffffffffffffffffffff16145b91505092915050565b8273ffffffffffffffffffffffffffffffffffffffff166117f382610c1a565b73ffffffffffffffffffffffffffffffffffffffff1614611849576040517f08c379a00000000000000000000000000000000000000000000000000000000081526004016118409061373a565b60405180910390fd5b600073ffffffffffffffffffffffffffffffffffffffff168273ffffffffffffffffffffffffffffffffffffffff16036118b8576040517f08c379a00000000000000000000000000000000000000000000000000000000081526004016118af906137cc565b60405180910390fd5b6118c5838383600161201b565b8273ffffffffffffffffffffffffffffffffffffffff166118e582610c1a565b73ffffffffffffffffffffffffffffffffffffffff161461193b576040517f08c379a00000000000000000000000000000000000000000000000000000000081526004016119329061373a565b60405180910390fd5b6004600082815260200190815260200160002060006101000a81549073ffffffffffffffffffffffffffffffffffffffff02191690556001600360008573ffffffffffffffffffffffffffffffffffffffff1673ffffffffffffffffffffffffffffffffffffffff168152602001908152602001600020600082825403925050819055506001600360008473ffffffffffffffffffffffffffffffffffffffff1673ffffffffffffffffffffffffffffffffffffffff16815260200190815260200160002060008282540192505081905550816002600083815260200190815260200160002060006101000a81548173ffffffffffffffffffffffffffffffffffffffff021916908373ffffffffffffffffffffffffffffffffffffffff160217905550808273ffffffffffffffffffffffffffffffffffffffff168473ffffffffffffffffffffffffffffffffffffffff167fddf252ad1be2c89b69c2b068fc378daa952ba7f163c4a11628f55a4df523b3ef60405160405180910390a4611ac78383836001612141565b505050565b600073ffffffffffffffffffffffffffffffffffffffff168273ffffffffffffffffffffffffffffffffffffffff1603611b3b576040517f08c379a0000000000000000000000000000000000000000000000000000000008152600401611b3290613838565b60405180910390fd5b611b4481611fda565b15611b84576040517f08c379a0000000000000000000000000000000000000000000000000000000008152600401611b7b906138a4565b60405180910390fd5b611b9260008383600161201b565b611b9b81611fda565b15611bdb576040517f08c379a0000000000000000000000000000000000000000000000000000000008152600401611bd2906138a4565b60405180910390fd5b6001600360008473ffffffffffffffffffffffffffffffffffffffff1673ffffffffffffffffffffffffffffffffffffffff16815260200190815260200160002060008282540192505081905550816002600083815260200190815260200160002060006101000a81548173ffffffffffffffffffffffffffffffffffffffff021916908373ffffffffffffffffffffffffffffffffffffffff160217905550808273ffffffffffffffffffffffffffffffffffffffff16600073ffffffffffffffffffffffffffffffffffffffff167fddf252ad1be2c89b69c2b068fc378daa952ba7f163c4a11628f55a4df523b3ef60405160405180910390a4611ce5600083836001612141565b5050565b611cf282611fda565b611d31576040517f08c379a0000000000000000000000000000000000000000000000000000000008152600401611d2890613936565b60405180910390fd5b80600660008481526020019081526020016000209081611d51919061335e565b505050565b60006002600083815260200190815260200160002060009054906101000a900473ffffffffffffffffffffffffffffffffffffffff169050919050565b8173ffffffffffffffffffffffffffffffffffffffff168373ffffffffffffffffffffffffffffffffffffffff1603611e01576040517f08c379a0000000000000000000000000000000000000000000000000000000008152600401611df8906139a2565b60405180910390fd5b80600560008573ffffffffffffffffffffffffffffffffffffffff1673ffffffffffffffffffffffffffffffffffffffff16815260200190815260200160002060008473ffffffffffffffffffffffffffffffffffffffff1673ffffffffffffffffffffffffffffffffffffffff16815260200190815260200160002060006101000a81548160ff0219169083151502179055508173ffffffffffffffffffffffffffffffffffffffff168373ffffffffffffffffffffffffffffffffffffffff167f17307eab39ab6107e8899845ad3d59bd9653f200f220920489ca2b5937696c3183604051611ef291906126b6565b60405180910390a3505050565b611f0a8484846117d3565b611f1684848484612147565b611f55576040517f08c379a0000000000000000000000000000000000000000000000000000000008152600401611f4c90613a34565b60405180910390fd5b50505050565b606060405180602001604052806000815250905090565b6060611f7d82611632565b6000611f87611f5b565b90506000815111611fa75760405180602001604052806000815250611fd2565b80611fb1846122ce565b604051602001611fc29291906136a4565b6040516020818303038152906040525b915050919050565b60008073ffffffffffffffffffffffffffffffffffffffff16611ffc83611d56565b73ffffffffffffffffffffffffffffffffffffffff1614159050919050565b600181111561213b57600073ffffffffffffffffffffffffffffffffffffffff168473ffffffffffffffffffffffffffffffffffffffff16146120af5780600360008673ffffffffffffffffffffffffffffffffffffffff1673ffffffffffffffffffffffffffffffffffffffff16815260200190815260200160002060008282546120a79190613a54565b925050819055505b600073ffffffffffffffffffffffffffffffffffffffff168373ffffffffffffffffffffffffffffffffffffffff161461213a5780600360008573ffffffffffffffffffffffffffffffffffffffff1673ffffffffffffffffffffffffffffffffffffffff16815260200190815260200160002060008282546121329190613542565b925050819055505b5b50505050565b50505050565b60006121688473ffffffffffffffffffffffffffffffffffffffff1661239c565b156122c1578373ffffffffffffffffffffffffffffffffffffffff1663150b7a0261219161167d565b8786866040518563ffffffff1660e01b81526004016121b39493929190613add565b6020604051808303816000875af19250505080156121ef57506040513d601f19601f820116820180604052508101906121ec9190613b3e565b60015b612271573d806000811461221f576040519150601f19603f3d011682016040523d82523d6000602084013e612224565b606091505b506000815103612269576040517f08c379a000000000000000000000000000000000000000000000000000000000815260040161226090613a34565b60405180910390fd5b805181602001fd5b63150b7a0260e01b7bffffffffffffffffffffffffffffffffffffffffffffffffffffffff1916817bffffffffffffffffffffffffffffffffffffffffffffffffffffffff1916149150506122c6565b600190505b949350505050565b6060600060016122dd846123bf565b01905060008167ffffffffffffffff8111156122fc576122fb6129ad565b5b6040519080825280601f01601f19166020018201604052801561232e5781602001600182028036833780820191505090505b509050600082602001820190505b600115612391578080600190039150507f3031323334353637383961626364656600000000000000000000000000000000600a86061a8153600a858161238557612384613576565b5b0494506000850361233c575b819350505050919050565b6000808273ffffffffffffffffffffffffffffffffffffffff163b119050919050565b600080600090507a184f03e93ff9f4daa797ed6e38ed64bf6a1f010000000000000000831061241d577a184f03e93ff9f4daa797ed6e38ed64bf6a1f010000000000000000838161241357612412613576565b5b0492506040810190505b6d04ee2d6d415b85acef8100000000831061245a576d04ee2d6d415b85acef810000000083816124505761244f613576565b5b0492506020810190505b662386f26fc10000831061248957662386f26fc10000838161247f5761247e613576565b5b0492506010810190505b6305f5e10083106124b2576305f5e10083816124a8576124a7613576565b5b0492506008810190505b61271083106124d75761271083816124cd576124cc613576565b5b0492506004810190505b606483106124fa57606483816124f0576124ef613576565b5b0492506002810190505b600a8310612509576001810190505b80915050919050565b6040518060800160405280600073ffffffffffffffffffffffffffffffffffffffff16815260200160008152602001600060ff168152602001600081525090565b6000604051905090565b600080fd5b600080fd5b6000819050919050565b61257a81612567565b811461258557600080fd5b50565b60008135905061259781612571565b92915050565b600060ff82169050919050565b6125b38161259d565b81146125be57600080fd5b50565b6000813590506125d0816125aa565b92915050565b600080604083850312156125ed576125ec61255d565b5b60006125fb85828601612588565b925050602061260c858286016125c1565b9150509250929050565b60007fffffffff0000000000000000000000000000000000000000000000000000000082169050919050565b61264b81612616565b811461265657600080fd5b50565b60008135905061266881612642565b92915050565b6000602082840312156126845761268361255d565b5b600061269284828501612659565b91505092915050565b60008115159050919050565b6126b08161269b565b82525050565b60006020820190506126cb60008301846126a7565b92915050565b600081519050919050565b600082825260208201905092915050565b60005b8381101561270b5780820151818401526020810190506126f0565b60008484015250505050565b6000601f19601f8301169050919050565b6000612733826126d1565b61273d81856126dc565b935061274d8185602086016126ed565b61275681612717565b840191505092915050565b6000602082019050818103600083015261277b8184612728565b905092915050565b6000602082840312156127995761279861255d565b5b60006127a784828501612588565b91505092915050565b600073ffffffffffffffffffffffffffffffffffffffff82169050919050565b60006127db826127b0565b9050919050565b6127eb816127d0565b82525050565b600060208201905061280660008301846127e2565b92915050565b612815816127d0565b811461282057600080fd5b50565b6000813590506128328161280c565b92915050565b6000806040838503121561284f5761284e61255d565b5b600061285d85828601612823565b925050602061286e85828601612588565b9150509250929050565b6000806000606084860312156128915761289061255d565b5b600061289f86828701612823565b93505060206128b086828701612823565b92505060406128c186828701612588565b9150509250925092565b6000602082840312156128e1576128e061255d565b5b60006128ef84828501612823565b91505092915050565b612901816127d0565b82525050565b61291081612567565b82525050565b61291f8161259d565b82525050565b60808201600082015161293b60008501826128f8565b50602082015161294e6020850182612907565b5060408201516129616040850182612916565b5060608201516129746060850182612907565b50505050565b600060a08201905061298f60008301856126a7565b61299c6020830184612925565b9392505050565b600080fd5b600080fd5b7f4e487b7100000000000000000000000000000000000000000000000000000000600052604160045260246000fd5b6129e582612717565b810181811067ffffffffffffffff82111715612a0457612a036129ad565b5b80604052505050565b6000612a17612553565b9050612a2382826129dc565b919050565b600067ffffffffffffffff821115612a4357612a426129ad565b5b612a4c82612717565b9050602081019050919050565b82818337600083830152505050565b6000612a7b612a7684612a28565b612a0d565b905082815260208101848484011115612a9757612a966129a8565b5b612aa2848285612a59565b509392505050565b600082601f830112612abf57612abe6129a3565b5b8135612acf848260208601612a68565b91505092915050565b600080600060608486031215612af157612af061255d565b5b600084013567ffffffffffffffff811115612b0f57612b0e612562565b5b612b1b86828701612aaa565b935050602084013567ffffffffffffffff811115612b3c57612b3b612562565b5b612b4886828701612aaa565b925050604084013567ffffffffffffffff811115612b6957612b68612562565b5b612b7586828701612aaa565b9150509250925092565b612b888161259d565b82525050565b6000602082019050612ba36000830184612b7f565b92915050565b612bb281612567565b82525050565b6000602082019050612bcd6000830184612ba9565b92915050565b612bdc8161269b565b8114612be757600080fd5b50565b600081359050612bf981612bd3565b92915050565b60008060408385031215612c1657612c1561255d565b5b6000612c2485828601612823565b9250506020612c3585828601612bea565b9150509250929050565b600067ffffffffffffffff821115612c5a57612c596129ad565b5b612c6382612717565b9050602081019050919050565b6000612c83612c7e84612c3f565b612a0d565b905082815260208101848484011115612c9f57612c9e6129a8565b5b612caa848285612a59565b509392505050565b600082601f830112612cc757612cc66129a3565b5b8135612cd7848260208601612c70565b91505092915050565b60008060008060808587031215612cfa57612cf961255d565b5b6000612d0887828801612823565b9450506020612d1987828801612823565b9350506040612d2a87828801612588565b925050606085013567ffffffffffffffff811115612d4b57612d4a612562565b5b612d5787828801612cb2565b91505092959194509250565b6000608082019050612d786000830187612ba9565b8181036020830152612d8a8186612728565b90508181036040830152612d9e8185612728565b90508181036060830152612db28184612728565b905095945050505050565b600081519050919050565b600082825260208201905092915050565b6000819050602082019050919050565b600082825260208201905092915050565b6000612e05826126d1565b612e0f8185612de9565b9350612e1f8185602086016126ed565b612e2881612717565b840191505092915050565b6000608083016000830151612e4b6000860182612907565b5060208301518482036020860152612e638282612dfa565b91505060408301518482036040860152612e7d8282612dfa565b91505060608301518482036060860152612e978282612dfa565b9150508091505092915050565b6000612eb08383612e33565b905092915050565b6000602082019050919050565b6000612ed082612dbd565b612eda8185612dc8565b935083602082028501612eec85612dd9565b8060005b85811015612f285784840389528151612f098582612ea4565b9450612f1483612eb8565b925060208a01995050600181019050612ef0565b50829750879550505050505092915050565b60006020820190508181036000830152612f548184612ec5565b905092915050565b60008060408385031215612f7357612f7261255d565b5b6000612f8185828601612823565b9250506020612f9285828601612823565b9150509250929050565b7f4e487b7100000000000000000000000000000000000000000000000000000000600052602260045260246000fd5b60006002820490506001821680612fe357607f821691505b602082108103612ff657612ff5612f9c565b5b50919050565b7f4552433732313a20617070726f76616c20746f2063757272656e74206f776e6560008201527f7200000000000000000000000000000000000000000000000000000000000000602082015250565b60006130586021836126dc565b915061306382612ffc565b604082019050919050565b600060208201905081810360008301526130878161304b565b9050919050565b7f4552433732313a20617070726f76652063616c6c6572206973206e6f7420746f60008201527f6b656e206f776e6572206f7220617070726f76656420666f7220616c6c000000602082015250565b60006130ea603d836126dc565b91506130f58261308e565b604082019050919050565b60006020820190508181036000830152613119816130dd565b9050919050565b7f4552433732313a2063616c6c6572206973206e6f7420746f6b656e206f776e6560008201527f72206f7220617070726f76656400000000000000000000000000000000000000602082015250565b600061317c602d836126dc565b915061318782613120565b604082019050919050565b600060208201905081810360008301526131ab8161316f565b9050919050565b60008190508160005260206000209050919050565b60006020601f8301049050919050565b600082821b905092915050565b6000600883026132147fffffffffffffffffffffffffffffffffffffffffffffffffffffffffffffffff826131d7565b61321e86836131d7565b95508019841693508086168417925050509392505050565b6000819050919050565b600061325b61325661325184612567565b613236565b612567565b9050919050565b6000819050919050565b61327583613240565b61328961328182613262565b8484546131e4565b825550505050565b600090565b61329e613291565b6132a981848461326c565b505050565b5b818110156132cd576132c2600082613296565b6001810190506132af565b5050565b601f821115613312576132e3816131b2565b6132ec846131c7565b810160208510156132fb578190505b61330f613307856131c7565b8301826132ae565b50505b505050565b600082821c905092915050565b600061333560001984600802613317565b1980831691505092915050565b600061334e8383613324565b9150826002028217905092915050565b613367826126d1565b67ffffffffffffffff8111156133805761337f6129ad565b5b61338a8254612fcb565b6133958282856132d1565b600060209050601f8311600181146133c857600084156133b6578287015190505b6133c08582613342565b865550613428565b601f1984166133d6866131b2565b60005b828110156133fe578489015182556001820191506020850194506020810190506133d9565b8683101561341b5784890151613417601f891682613324565b8355505b6001600288020188555050505b505050505050565b7f4e487b7100000000000000000000000000000000000000000000000000000000600052601160045260246000fd5b600061346a82612567565b91507fffffffffffffffffffffffffffffffffffffffffffffffffffffffffffffffff820361349c5761349b613430565b5b600182019050919050565b7f4552433732313a20696e76616c696420746f6b656e2049440000000000000000600082015250565b60006134dd6018836126dc565b91506134e8826134a7565b602082019050919050565b6000602082019050818103600083015261350c816134d0565b9050919050565b7f4e487b7100000000000000000000000000000000000000000000000000000000600052603260045260246000fd5b600061354d82612567565b915061355883612567565b92508282019050808211156135705761356f613430565b5b92915050565b7f4e487b7100000000000000000000000000000000000000000000000000000000600052601260045260246000fd5b60006135b082612567565b91506135bb83612567565b9250826135cb576135ca613576565b5b828204905092915050565b7f4552433732313a2061646472657373207a65726f206973206e6f74206120766160008201527f6c6964206f776e65720000000000000000000000000000000000000000000000602082015250565b60006136326029836126dc565b915061363d826135d6565b604082019050919050565b6000602082019050818103600083015261366181613625565b9050919050565b600081905092915050565b600061367e826126d1565b6136888185613668565b93506136988185602086016126ed565b80840191505092915050565b60006136b08285613673565b91506136bc8284613673565b91508190509392505050565b7f4552433732313a207472616e736665722066726f6d20696e636f72726563742060008201527f6f776e6572000000000000000000000000000000000000000000000000000000602082015250565b60006137246025836126dc565b915061372f826136c8565b604082019050919050565b6000602082019050818103600083015261375381613717565b9050919050565b7f4552433732313a207472616e7366657220746f20746865207a65726f2061646460008201527f7265737300000000000000000000000000000000000000000000000000000000602082015250565b60006137b66024836126dc565b91506137c18261375a565b604082019050919050565b600060208201905081810360008301526137e5816137a9565b9050919050565b7f4552433732313a206d696e7420746f20746865207a65726f2061646472657373600082015250565b60006138226020836126dc565b915061382d826137ec565b602082019050919050565b6000602082019050818103600083015261385181613815565b9050919050565b7f4552433732313a20746f6b656e20616c7265616479206d696e74656400000000600082015250565b600061388e601c836126dc565b915061389982613858565b602082019050919050565b600060208201905081810360008301526138bd81613881565b9050919050565b7f45524337323155524953746f726167653a2055524920736574206f66206e6f6e60008201527f6578697374656e7420746f6b656e000000000000000000000000000000000000602082015250565b6000613920602e836126dc565b915061392b826138c4565b604082019050919050565b6000602082019050818103600083015261394f81613913565b9050919050565b7f4552433732313a20617070726f766520746f2063616c6c657200000000000000600082015250565b600061398c6019836126dc565b915061399782613956565b602082019050919050565b600060208201905081810360008301526139bb8161397f565b9050919050565b7f4552433732313a207472616e7366657220746f206e6f6e20455243373231526560008201527f63656976657220696d706c656d656e7465720000000000000000000000000000602082015250565b6000613a1e6032836126dc565b9150613a29826139c2565b604082019050919050565b60006020820190508181036000830152613a4d81613a11565b9050919050565b6000613a5f82612567565b9150613a6a83612567565b9250828203905081811115613a8257613a81613430565b5b92915050565b600081519050919050565b600082825260208201905092915050565b6000613aaf82613a88565b613ab98185613a93565b9350613ac98185602086016126ed565b613ad281612717565b840191505092915050565b6000608082019050613af260008301876127e2565b613aff60208301866127e2565b613b0c6040830185612ba9565b8181036060830152613b1e8184613aa4565b905095945050505050565b600081519050613b3881612642565b92915050565b600060208284031215613b5457613b5361255d565b5b6000613b6284828501613b29565b9150509291505056fea264697066735822122014801bc51d1b4dc24c63982278f5eed4d97e55fbd46d934700a041b4a844556464736f6c63430008110033",
  "immutableReferences": {},
  "source": "// SPDX-License-Identifier: MIT\npragma solidity ^0.8.4;\n\nimport \"@openzeppelin/contracts/token/ERC721/extensions/ERC721URIStorage.sol\";\nimport \"@openzeppelin/contracts/utils/Strings.sol\";\n\ncontract MoviesNFT is ERC721URIStorage {\n    uint256 MAX_RATING_COUNT = 100000000000;\n    uint256 private movieNumber = 1;\n    address private _owner; // owner of the movie NFT\n\n    struct movieData {\n        uint256 movieNumber;\n        string movieName;\n        string movieDescription;\n        string ipfsHash;\n    }\n\n    struct rating {\n        address ratingOwner; // address who made the rating\n        uint256 movieNumber; // number of the movie for which the rating is being casted\n        uint8 ratingVal; // must be between 1(min rate) and 10(max rate)\n        uint256 createdAt; // timestamp of rating\n    }\n\n    movieData[] movies;\n    rating[] ratings;\n    mapping(address => rating) userRating;\n\n    // mapping(uint256 => rating[]) movieRating;\n    // mapping(uint256 => uint8) movieRatingAverage;\n\n    constructor(address owner) ERC721(\"MovieNFT\", \"MNFT\") {\n        _owner = owner;\n    }\n\n    function createMovieNft(\n        string memory name,\n        string memory description,\n        string memory ipfsHash\n    ) public {\n        require(msg.sender == _owner);\n\n        movieData memory nextMovie = movieData(\n            movieNumber,\n            name,\n            description,\n            ipfsHash\n        );\n\n        movies.push(nextMovie);\n        _mint(msg.sender, movieNumber);\n        _setTokenURI(movieNumber, ipfsHash);\n        movieNumber++;\n    }\n\n    function getAllMovies() public view returns (movieData[] memory) {\n        return movies;\n    }\n\n    function getMovieByNumber(uint256 _movieNum)\n        public\n        view\n        returns (\n            uint256,\n            string memory,\n            string memory,\n            string memory\n        )\n    {\n        for (uint256 i = 0; i < movieNumber; i++) {\n            if (movies[i].movieNumber == _movieNum) {\n                return (\n                    movies[i].movieNumber,\n                    movies[i].movieName,\n                    movies[i].movieDescription,\n                    movies[i].ipfsHash\n                );\n            }\n        }\n        return (0, \"\", \"\", \"\");\n    }\n\n    function castMovieRating(uint256 _movieNum, uint8 ratingVal) public {\n        rating memory prevRating = userRating[msg.sender];\n        require(prevRating.ratingVal <= 0);\n\n        rating memory r = rating(\n            msg.sender,\n            _movieNum,\n            ratingVal,\n            block.timestamp\n        );\n\n        userRating[msg.sender] = r;\n        // rating[] storage prevMovieR = movieRating[movieNum];\n        // prevMovieR.push(r);\n        // movieRating[movieNum] = prevMovieR;\n        ratings.push(r);\n    }\n\n    function getAvgMovieRating(uint256 _movieNum) public view returns (uint8) {\n        uint256 s = 0;\n        uint256 n = 0;\n        for (uint256 i = 0; i < ratings.length; i++) {\n            if (ratings[i].movieNumber == _movieNum) {\n                s = s + ratings[i].ratingVal;\n                n++;\n            }\n        }\n        uint8 avg = uint8(s / n);\n        return avg;\n    }\n\n    // function getMovieRatings(uint256 _movieNum)\n    //     public\n    //     view\n    //     returns (rating[] memory)\n    // {\n    //     // rating[] memory rs = movieRating[movieNum];\n    //     // return rs;\n    //     rating[] memory allRs = new rating[](10000000);\n    //     for (uint256 i = 0; i < movieNumber; i++) {\n    //         if (ratings[i].movieNumber == _movieNum) {\n    //             allRs.push(ratings[i]);\n    //         }\n    //     }\n    //     return allRs;\n    // }\n\n    function getUserRating(address userAdd)\n        public\n        view\n        returns (bool, rating memory)\n    {\n        rating memory rs = userRating[userAdd];\n        if (rs.ratingVal > 0) {\n            return (true, rs);\n        }\n        return (false, rs);\n    }\n}\n",
  "sourcePath": "/Users/sagaranand/Documents/workspace-open/chainlink-2022/web3-imdb/_backend/contracts/MoviesNFT.sol",
  "compiler": {
    "name": "solc",
    "version": "0.8.17+commit.8df45f5f.Emscripten.clang"
  },
  "schemaVersion": "3.4.10",
  "updatedAt": "2022-11-17T05:47:38.886Z",
  "networkType": "ethereum",
  "devdoc": {
    "kind": "dev",
    "methods": {
      "approve(address,uint256)": {
        "details": "See {IERC721-approve}."
      },
      "balanceOf(address)": {
        "details": "See {IERC721-balanceOf}."
      },
      "getApproved(uint256)": {
        "details": "See {IERC721-getApproved}."
      },
      "isApprovedForAll(address,address)": {
        "details": "See {IERC721-isApprovedForAll}."
      },
      "name()": {
        "details": "See {IERC721Metadata-name}."
      },
      "ownerOf(uint256)": {
        "details": "See {IERC721-ownerOf}."
      },
      "safeTransferFrom(address,address,uint256)": {
        "details": "See {IERC721-safeTransferFrom}."
      },
      "safeTransferFrom(address,address,uint256,bytes)": {
        "details": "See {IERC721-safeTransferFrom}."
      },
      "setApprovalForAll(address,bool)": {
        "details": "See {IERC721-setApprovalForAll}."
      },
      "supportsInterface(bytes4)": {
        "details": "See {IERC165-supportsInterface}."
      },
      "symbol()": {
        "details": "See {IERC721Metadata-symbol}."
      },
      "tokenURI(uint256)": {
        "details": "See {IERC721Metadata-tokenURI}."
      },
      "transferFrom(address,address,uint256)": {
        "details": "See {IERC721-transferFrom}."
      }
    },
    "version": 1
  },
  "userdoc": {
    "kind": "user",
    "methods": {},
    "version": 1
  }
}