{
  "contractName": "MoviesNFT",
  "abi": [
    {
      "inputs": [
        {
          "internalType": "address",
          "name": "owner",
          "type": "address"
        }
      ],
      "stateMutability": "nonpayable",
      "type": "constructor"
    },
    {
      "anonymous": false,
      "inputs": [
        {
          "indexed": true,
          "internalType": "address",
          "name": "owner",
          "type": "address"
        },
        {
          "indexed": true,
          "internalType": "address",
          "name": "approved",
          "type": "address"
        },
        {
          "indexed": true,
          "internalType": "uint256",
          "name": "tokenId",
          "type": "uint256"
        }
      ],
      "name": "Approval",
      "type": "event"
    },
    {
      "anonymous": false,
      "inputs": [
        {
          "indexed": true,
          "internalType": "address",
          "name": "owner",
          "type": "address"
        },
        {
          "indexed": true,
          "internalType": "address",
          "name": "operator",
          "type": "address"
        },
        {
          "indexed": false,
          "internalType": "bool",
          "name": "approved",
          "type": "bool"
        }
      ],
      "name": "ApprovalForAll",
      "type": "event"
    },
    {
      "anonymous": false,
      "inputs": [
        {
          "indexed": true,
          "internalType": "address",
          "name": "from",
          "type": "address"
        },
        {
          "indexed": true,
          "internalType": "address",
          "name": "to",
          "type": "address"
        },
        {
          "indexed": true,
          "internalType": "uint256",
          "name": "tokenId",
          "type": "uint256"
        }
      ],
      "name": "Transfer",
      "type": "event"
    },
    {
      "inputs": [
        {
          "internalType": "address",
          "name": "to",
          "type": "address"
        },
        {
          "internalType": "uint256",
          "name": "tokenId",
          "type": "uint256"
        }
      ],
      "name": "approve",
      "outputs": [],
      "stateMutability": "nonpayable",
      "type": "function"
    },
    {
      "inputs": [
        {
          "internalType": "address",
          "name": "owner",
          "type": "address"
        }
      ],
      "name": "balanceOf",
      "outputs": [
        {
          "internalType": "uint256",
          "name": "",
          "type": "uint256"
        }
      ],
      "stateMutability": "view",
      "type": "function",
      "constant": true
    },
    {
      "inputs": [
        {
          "internalType": "uint256",
          "name": "tokenId",
          "type": "uint256"
        }
      ],
      "name": "getApproved",
      "outputs": [
        {
          "internalType": "address",
          "name": "",
          "type": "address"
        }
      ],
      "stateMutability": "view",
      "type": "function",
      "constant": true
    },
    {
      "inputs": [
        {
          "internalType": "address",
          "name": "owner",
          "type": "address"
        },
        {
          "internalType": "address",
          "name": "operator",
          "type": "address"
        }
      ],
      "name": "isApprovedForAll",
      "outputs": [
        {
          "internalType": "bool",
          "name": "",
          "type": "bool"
        }
      ],
      "stateMutability": "view",
      "type": "function",
      "constant": true
    },
    {
      "inputs": [],
      "name": "name",
      "outputs": [
        {
          "internalType": "string",
          "name": "",
          "type": "string"
        }
      ],
      "stateMutability": "view",
      "type": "function",
      "constant": true
    },
    {
      "inputs": [
        {
          "internalType": "uint256",
          "name": "tokenId",
          "type": "uint256"
        }
      ],
      "name": "ownerOf",
      "outputs": [
        {
          "internalType": "address",
          "name": "",
          "type": "address"
        }
      ],
      "stateMutability": "view",
      "type": "function",
      "constant": true
    },
    {
      "inputs": [
        {
          "internalType": "address",
          "name": "from",
          "type": "address"
        },
        {
          "internalType": "address",
          "name": "to",
          "type": "address"
        },
        {
          "internalType": "uint256",
          "name": "tokenId",
          "type": "uint256"
        }
      ],
      "name": "safeTransferFrom",
      "outputs": [],
      "stateMutability": "nonpayable",
      "type": "function"
    },
    {
      "inputs": [
        {
          "internalType": "address",
          "name": "from",
          "type": "address"
        },
        {
          "internalType": "address",
          "name": "to",
          "type": "address"
        },
        {
          "internalType": "uint256",
          "name": "tokenId",
          "type": "uint256"
        },
        {
          "internalType": "bytes",
          "name": "data",
          "type": "bytes"
        }
      ],
      "name": "safeTransferFrom",
      "outputs": [],
      "stateMutability": "nonpayable",
      "type": "function"
    },
    {
      "inputs": [
        {
          "internalType": "address",
          "name": "operator",
          "type": "address"
        },
        {
          "internalType": "bool",
          "name": "approved",
          "type": "bool"
        }
      ],
      "name": "setApprovalForAll",
      "outputs": [],
      "stateMutability": "nonpayable",
      "type": "function"
    },
    {
      "inputs": [
        {
          "internalType": "bytes4",
          "name": "interfaceId",
          "type": "bytes4"
        }
      ],
      "name": "supportsInterface",
      "outputs": [
        {
          "internalType": "bool",
          "name": "",
          "type": "bool"
        }
      ],
      "stateMutability": "view",
      "type": "function",
      "constant": true
    },
    {
      "inputs": [],
      "name": "symbol",
      "outputs": [
        {
          "internalType": "string",
          "name": "",
          "type": "string"
        }
      ],
      "stateMutability": "view",
      "type": "function",
      "constant": true
    },
    {
      "inputs": [
        {
          "internalType": "uint256",
          "name": "tokenId",
          "type": "uint256"
        }
      ],
      "name": "tokenURI",
      "outputs": [
        {
          "internalType": "string",
          "name": "",
          "type": "string"
        }
      ],
      "stateMutability": "view",
      "type": "function",
      "constant": true
    },
    {
      "inputs": [
        {
          "internalType": "address",
          "name": "from",
          "type": "address"
        },
        {
          "internalType": "address",
          "name": "to",
          "type": "address"
        },
        {
          "internalType": "uint256",
          "name": "tokenId",
          "type": "uint256"
        }
      ],
      "name": "transferFrom",
      "outputs": [],
      "stateMutability": "nonpayable",
      "type": "function"
    },
    {
      "inputs": [
        {
          "internalType": "string",
          "name": "name",
          "type": "string"
        },
        {
          "internalType": "string",
          "name": "ipfsHash",
          "type": "string"
        }
      ],
      "name": "createMovieNft",
      "outputs": [],
      "stateMutability": "nonpayable",
      "type": "function"
    },
    {
      "inputs": [],
      "name": "getAllMovies",
      "outputs": [
        {
          "components": [
            {
              "internalType": "uint256",
              "name": "movieNumber",
              "type": "uint256"
            },
            {
              "internalType": "string",
              "name": "movieName",
              "type": "string"
            },
            {
              "internalType": "string",
              "name": "ipfsHash",
              "type": "string"
            }
          ],
          "internalType": "struct MoviesNFT.movieData[]",
          "name": "",
          "type": "tuple[]"
        }
      ],
      "stateMutability": "view",
      "type": "function",
      "constant": true
    },
    {
      "inputs": [
        {
          "internalType": "uint256",
          "name": "_movieNum",
          "type": "uint256"
        }
      ],
      "name": "getMovieByNumber",
      "outputs": [
        {
          "internalType": "uint256",
          "name": "",
          "type": "uint256"
        },
        {
          "internalType": "string",
          "name": "",
          "type": "string"
        },
        {
          "internalType": "string",
          "name": "",
          "type": "string"
        }
      ],
      "stateMutability": "view",
      "type": "function",
      "constant": true
    },
    {
      "inputs": [
        {
          "internalType": "uint256",
          "name": "_movieNum",
          "type": "uint256"
        },
        {
          "internalType": "uint8",
          "name": "ratingVal",
          "type": "uint8"
        }
      ],
      "name": "castMovieRating",
      "outputs": [],
      "stateMutability": "nonpayable",
      "type": "function"
    },
    {
      "inputs": [
        {
          "internalType": "uint256",
          "name": "_movieNum",
          "type": "uint256"
        }
      ],
      "name": "getAvgMovieRating",
      "outputs": [
        {
          "internalType": "uint8",
          "name": "",
          "type": "uint8"
        }
      ],
      "stateMutability": "view",
      "type": "function",
      "constant": true
    },
    {
      "inputs": [
        {
          "internalType": "address",
          "name": "userAdd",
          "type": "address"
        }
      ],
      "name": "getUserRating",
      "outputs": [
        {
          "internalType": "bool",
          "name": "",
          "type": "bool"
        },
        {
          "components": [
            {
              "internalType": "address",
              "name": "ratingOwner",
              "type": "address"
            },
            {
              "internalType": "uint256",
              "name": "movieNumber",
              "type": "uint256"
            },
            {
              "internalType": "uint8",
              "name": "ratingVal",
              "type": "uint8"
            },
            {
              "internalType": "uint256",
              "name": "createdAt",
              "type": "uint256"
            }
          ],
          "internalType": "struct MoviesNFT.rating",
          "name": "",
          "type": "tuple"
        }
      ],
      "stateMutability": "view",
      "type": "function",
      "constant": true
    },
    {
      "inputs": [],
      "name": "getAllRatings",
      "outputs": [
        {
          "components": [
            {
              "internalType": "address",
              "name": "ratingOwner",
              "type": "address"
            },
            {
              "internalType": "uint256",
              "name": "movieNumber",
              "type": "uint256"
            },
            {
              "internalType": "uint8",
              "name": "ratingVal",
              "type": "uint8"
            },
            {
              "internalType": "uint256",
              "name": "createdAt",
              "type": "uint256"
            }
          ],
          "internalType": "struct MoviesNFT.rating[]",
          "name": "",
          "type": "tuple[]"
        }
      ],
      "stateMutability": "view",
      "type": "function",
      "constant": true
    }
  ],
  "bytecode": "0x608060405264174876e80060075560016008553480156200001f57600080fd5b50604051620041c0380380620041c0833981810160405281019062000045919062000189565b6040518060400160405280600881526020017f4d6f7669654e46540000000000000000000000000000000000000000000000008152506040518060400160405280600481526020017f4d4e4654000000000000000000000000000000000000000000000000000000008152508160009081620000c2919062000435565b508060019081620000d4919062000435565b50505080600960006101000a81548173ffffffffffffffffffffffffffffffffffffffff021916908373ffffffffffffffffffffffffffffffffffffffff160217905550506200051c565b600080fd5b600073ffffffffffffffffffffffffffffffffffffffff82169050919050565b6000620001518262000124565b9050919050565b620001638162000144565b81146200016f57600080fd5b50565b600081519050620001838162000158565b92915050565b600060208284031215620001a257620001a16200011f565b5b6000620001b28482850162000172565b91505092915050565b600081519050919050565b7f4e487b7100000000000000000000000000000000000000000000000000000000600052604160045260246000fd5b7f4e487b7100000000000000000000000000000000000000000000000000000000600052602260045260246000fd5b600060028204905060018216806200023d57607f821691505b602082108103620002535762000252620001f5565b5b50919050565b60008190508160005260206000209050919050565b60006020601f8301049050919050565b600082821b905092915050565b600060088302620002bd7fffffffffffffffffffffffffffffffffffffffffffffffffffffffffffffffff826200027e565b620002c986836200027e565b95508019841693508086168417925050509392505050565b6000819050919050565b6000819050919050565b600062000316620003106200030a84620002e1565b620002eb565b620002e1565b9050919050565b6000819050919050565b6200033283620002f5565b6200034a62000341826200031d565b8484546200028b565b825550505050565b600090565b6200036162000352565b6200036e81848462000327565b505050565b5b8181101562000396576200038a60008262000357565b60018101905062000374565b5050565b601f821115620003e557620003af8162000259565b620003ba846200026e565b81016020851015620003ca578190505b620003e2620003d9856200026e565b83018262000373565b50505b505050565b600082821c905092915050565b60006200040a60001984600802620003ea565b1980831691505092915050565b6000620004258383620003f7565b9150826002028217905092915050565b6200044082620001bb565b67ffffffffffffffff8111156200045c576200045b620001c6565b5b62000468825462000224565b620004758282856200039a565b600060209050601f831160018114620004ad576000841562000498578287015190505b620004a4858262000417565b86555062000514565b601f198416620004bd8662000259565b60005b82811015620004e757848901518255600182019150602085019450602081019050620004c0565b8683101562000507578489015162000503601f891682620003f7565b8355505b6001600288020188555050505b505050505050565b613c94806200052c6000396000f3fe608060405234801561001057600080fd5b506004361061012b5760003560e01c80636b3f30d4116100ad578063c87b56dd11610071578063c87b56dd14610351578063de5d9f3e14610381578063e16f0065146103b3578063e985e9c5146103d1578063eac977c4146104015761012b565b80636b3f30d41461029b57806370a08231146102cb57806395d89b41146102fb578063a22cb46514610319578063b88d4fde146103355761012b565b806323b872dd116100f457806323b872dd146101e657806342842e0e14610202578063443235241461021e578063460168c31461023a5780636352211e1461026b5761012b565b80620a09c01461013057806301ffc9a71461014c57806306fdde031461017c578063081812fc1461019a578063095ea7b3146101ca575b600080fd5b61014a60048036038101906101459190612595565b61041f565b005b6101666004803603810190610161919061262d565b6106dd565b6040516101739190612675565b60405180910390f35b6101846107bf565b6040516101919190612720565b60405180910390f35b6101b460048036038101906101af9190612742565b610851565b6040516101c191906127b0565b60405180910390f35b6101e460048036038101906101df91906127f7565b610897565b005b61020060048036038101906101fb9190612837565b6109ae565b005b61021c60048036038101906102179190612837565b610a0e565b005b610238600480360381019061023391906129bf565b610a2e565b005b610254600480360381019061024f9190612a37565b610b42565b604051610262929190612ae6565b60405180910390f35b61028560048036038101906102809190612742565b610c4c565b60405161029291906127b0565b60405180910390f35b6102b560048036038101906102b09190612742565b610cd2565b6040516102c29190612b1e565b60405180910390f35b6102e560048036038101906102e09190612a37565b610d97565b6040516102f29190612b48565b60405180910390f35b610303610e4e565b6040516103109190612720565b60405180910390f35b610333600480360381019061032e9190612b8f565b610ee0565b005b61034f600480360381019061034a9190612c70565b610ef6565b005b61036b60048036038101906103669190612742565b610f58565b6040516103789190612720565b60405180910390f35b61039b60048036038101906103969190612742565b61106a565b6040516103aa93929190612cf3565b60405180910390f35b6103bb611280565b6040516103c89190612e9b565b60405180910390f35b6103eb60048036038101906103e69190612ebd565b61140d565b6040516103f89190612675565b60405180910390f35b6104096114a1565b6040516104169190613001565b60405180910390f35b60005b600b80549050811015610530573373ffffffffffffffffffffffffffffffffffffffff16600b828154811061045a57610459613023565b5b906000526020600020906004020160000160009054906101000a900473ffffffffffffffffffffffffffffffffffffffff1673ffffffffffffffffffffffffffffffffffffffff161480156104d3575082600b82815481106104bf576104be613023565b5b906000526020600020906004020160010154145b1561051d57600260011461051c576040517f08c379a00000000000000000000000000000000000000000000000000000000081526004016105139061309e565b60405180910390fd5b5b8080610528906130ed565b915050610422565b50600060405180608001604052803373ffffffffffffffffffffffffffffffffffffffff1681526020018481526020018360ff16815260200142815250905080600c60003373ffffffffffffffffffffffffffffffffffffffff1673ffffffffffffffffffffffffffffffffffffffff16815260200190815260200160002060008201518160000160006101000a81548173ffffffffffffffffffffffffffffffffffffffff021916908373ffffffffffffffffffffffffffffffffffffffff1602179055506020820151816001015560408201518160020160006101000a81548160ff021916908360ff16021790555060608201518160030155905050600b81908060018154018082558091505060019003906000526020600020906004020160009091909190915060008201518160000160006101000a81548173ffffffffffffffffffffffffffffffffffffffff021916908373ffffffffffffffffffffffffffffffffffffffff1602179055506020820151816001015560408201518160020160006101000a81548160ff021916908360ff160217905550606082015181600301555050505050565b60007f80ac58cd000000000000000000000000000000000000000000000000000000007bffffffffffffffffffffffffffffffffffffffffffffffffffffffff1916827bffffffffffffffffffffffffffffffffffffffffffffffffffffffff191614806107a857507f5b5e139f000000000000000000000000000000000000000000000000000000007bffffffffffffffffffffffffffffffffffffffffffffffffffffffff1916827bffffffffffffffffffffffffffffffffffffffffffffffffffffffff1916145b806107b857506107b782611587565b5b9050919050565b6060600080546107ce90613164565b80601f01602080910402602001604051908101604052809291908181526020018280546107fa90613164565b80156108475780601f1061081c57610100808354040283529160200191610847565b820191906000526020600020905b81548152906001019060200180831161082a57829003601f168201915b5050505050905090565b600061085c826115f1565b6004600083815260200190815260200160002060009054906101000a900473ffffffffffffffffffffffffffffffffffffffff169050919050565b60006108a282610c4c565b90508073ffffffffffffffffffffffffffffffffffffffff168373ffffffffffffffffffffffffffffffffffffffff1603610912576040517f08c379a000000000000000000000000000000000000000000000000000000000815260040161090990613207565b60405180910390fd5b8073ffffffffffffffffffffffffffffffffffffffff1661093161163c565b73ffffffffffffffffffffffffffffffffffffffff161480610960575061095f8161095a61163c565b61140d565b5b61099f576040517f08c379a000000000000000000000000000000000000000000000000000000000815260040161099690613299565b60405180910390fd5b6109a98383611644565b505050565b6109bf6109b961163c565b826116fd565b6109fe576040517f08c379a00000000000000000000000000000000000000000000000000000000081526004016109f59061332b565b60405180910390fd5b610a09838383611792565b505050565b610a2983838360405180602001604052806000815250610ef6565b505050565b600960009054906101000a900473ffffffffffffffffffffffffffffffffffffffff1673ffffffffffffffffffffffffffffffffffffffff163373ffffffffffffffffffffffffffffffffffffffff1614610a8857600080fd5b600060405180606001604052806008548152602001848152602001838152509050600a819080600181540180825580915050600190039060005260206000209060030201600090919091909150600082015181600001556020820151816001019081610af491906134f7565b506040820151816002019081610b0a91906134f7565b505050610b1933600854611a8b565b610b2560085483611ca8565b60086000815480929190610b38906130ed565b9190505550505050565b6000610b4c6124d1565b6000600c60008573ffffffffffffffffffffffffffffffffffffffff1673ffffffffffffffffffffffffffffffffffffffff1681526020019081526020016000206040518060800160405290816000820160009054906101000a900473ffffffffffffffffffffffffffffffffffffffff1673ffffffffffffffffffffffffffffffffffffffff1673ffffffffffffffffffffffffffffffffffffffff168152602001600182015481526020016002820160009054906101000a900460ff1660ff1660ff16815260200160038201548152505090506000816040015160ff161115610c3e576001819250925050610c47565b60008192509250505b915091565b600080610c5883611d15565b9050600073ffffffffffffffffffffffffffffffffffffffff168173ffffffffffffffffffffffffffffffffffffffff1603610cc9576040517f08c379a0000000000000000000000000000000000000000000000000000000008152600401610cc090613615565b60405180910390fd5b80915050919050565b600080600090506000805b600b80549050811015610d7b5784600b8281548110610cff57610cfe613023565b5b90600052602060002090600402016001015403610d6857600b8181548110610d2a57610d29613023565b5b906000526020600020906004020160020160009054906101000a900460ff1660ff1683610d579190613635565b92508180610d64906130ed565b9250505b8080610d73906130ed565b915050610cdd565b5060008183610d8a9190613698565b9050809350505050919050565b60008073ffffffffffffffffffffffffffffffffffffffff168273ffffffffffffffffffffffffffffffffffffffff1603610e07576040517f08c379a0000000000000000000000000000000000000000000000000000000008152600401610dfe9061373b565b60405180910390fd5b600360008373ffffffffffffffffffffffffffffffffffffffff1673ffffffffffffffffffffffffffffffffffffffff168152602001908152602001600020549050919050565b606060018054610e5d90613164565b80601f0160208091040260200160405190810160405280929190818152602001828054610e8990613164565b8015610ed65780601f10610eab57610100808354040283529160200191610ed6565b820191906000526020600020905b815481529060010190602001808311610eb957829003601f168201915b5050505050905090565b610ef2610eeb61163c565b8383611d52565b5050565b610f07610f0161163c565b836116fd565b610f46576040517f08c379a0000000000000000000000000000000000000000000000000000000008152600401610f3d9061332b565b60405180910390fd5b610f5284848484611ebe565b50505050565b6060610f63826115f1565b6000600660008481526020019081526020016000208054610f8390613164565b80601f0160208091040260200160405190810160405280929190818152602001828054610faf90613164565b8015610ffc5780601f10610fd157610100808354040283529160200191610ffc565b820191906000526020600020905b815481529060010190602001808311610fdf57829003601f168201915b50505050509050600061100d611f1a565b90506000815103611022578192505050611065565b60008251111561105757808260405160200161103f929190613797565b60405160208183030381529060405292505050611065565b61106084611f31565b925050505b919050565b600060608060005b60085481101561124f5784600a828154811061109157611090613023565b5b9060005260206000209060030201600001540361123c57600a81815481106110bc576110bb613023565b5b906000526020600020906003020160000154600a82815481106110e2576110e1613023565b5b9060005260206000209060030201600101600a838154811061110757611106613023565b5b906000526020600020906003020160020181805461112490613164565b80601f016020809104026020016040519081016040528092919081815260200182805461115090613164565b801561119d5780601f106111725761010080835404028352916020019161119d565b820191906000526020600020905b81548152906001019060200180831161118057829003601f168201915b505050505091508080546111b090613164565b80601f01602080910402602001604051908101604052809291908181526020018280546111dc90613164565b80156112295780601f106111fe57610100808354040283529160200191611229565b820191906000526020600020905b81548152906001019060200180831161120c57829003601f168201915b5050505050905093509350935050611279565b8080611247906130ed565b915050611072565b50600060405180602001604052806000815250604051806020016040528060008152509250925092505b9193909250565b6060600a805480602002602001604051908101604052809291908181526020016000905b828210156114045783829060005260206000209060030201604051806060016040529081600082015481526020016001820180546112e190613164565b80601f016020809104026020016040519081016040528092919081815260200182805461130d90613164565b801561135a5780601f1061132f5761010080835404028352916020019161135a565b820191906000526020600020905b81548152906001019060200180831161133d57829003601f168201915b5050505050815260200160028201805461137390613164565b80601f016020809104026020016040519081016040528092919081815260200182805461139f90613164565b80156113ec5780601f106113c1576101008083540402835291602001916113ec565b820191906000526020600020905b8154815290600101906020018083116113cf57829003601f168201915b505050505081525050815260200190600101906112a4565b50505050905090565b6000600560008473ffffffffffffffffffffffffffffffffffffffff1673ffffffffffffffffffffffffffffffffffffffff16815260200190815260200160002060008373ffffffffffffffffffffffffffffffffffffffff1673ffffffffffffffffffffffffffffffffffffffff16815260200190815260200160002060009054906101000a900460ff16905092915050565b6060600b805480602002602001604051908101604052809291908181526020016000905b8282101561157e57838290600052602060002090600402016040518060800160405290816000820160009054906101000a900473ffffffffffffffffffffffffffffffffffffffff1673ffffffffffffffffffffffffffffffffffffffff1673ffffffffffffffffffffffffffffffffffffffff168152602001600182015481526020016002820160009054906101000a900460ff1660ff1660ff168152602001600382015481525050815260200190600101906114c5565b50505050905090565b60007f01ffc9a7000000000000000000000000000000000000000000000000000000007bffffffffffffffffffffffffffffffffffffffffffffffffffffffff1916827bffffffffffffffffffffffffffffffffffffffffffffffffffffffff1916149050919050565b6115fa81611f99565b611639576040517f08c379a000000000000000000000000000000000000000000000000000000000815260040161163090613615565b60405180910390fd5b50565b600033905090565b816004600083815260200190815260200160002060006101000a81548173ffffffffffffffffffffffffffffffffffffffff021916908373ffffffffffffffffffffffffffffffffffffffff160217905550808273ffffffffffffffffffffffffffffffffffffffff166116b783610c4c565b73ffffffffffffffffffffffffffffffffffffffff167f8c5be1e5ebec7d5bd14f71427d1e84f3dd0314c0f7b2291e5b200ac8c7c3b92560405160405180910390a45050565b60008061170983610c4c565b90508073ffffffffffffffffffffffffffffffffffffffff168473ffffffffffffffffffffffffffffffffffffffff16148061174b575061174a818561140d565b5b8061178957508373ffffffffffffffffffffffffffffffffffffffff1661177184610851565b73ffffffffffffffffffffffffffffffffffffffff16145b91505092915050565b8273ffffffffffffffffffffffffffffffffffffffff166117b282610c4c565b73ffffffffffffffffffffffffffffffffffffffff1614611808576040517f08c379a00000000000000000000000000000000000000000000000000000000081526004016117ff9061382d565b60405180910390fd5b600073ffffffffffffffffffffffffffffffffffffffff168273ffffffffffffffffffffffffffffffffffffffff1603611877576040517f08c379a000000000000000000000000000000000000000000000000000000000815260040161186e906138bf565b60405180910390fd5b6118848383836001611fda565b8273ffffffffffffffffffffffffffffffffffffffff166118a482610c4c565b73ffffffffffffffffffffffffffffffffffffffff16146118fa576040517f08c379a00000000000000000000000000000000000000000000000000000000081526004016118f19061382d565b60405180910390fd5b6004600082815260200190815260200160002060006101000a81549073ffffffffffffffffffffffffffffffffffffffff02191690556001600360008573ffffffffffffffffffffffffffffffffffffffff1673ffffffffffffffffffffffffffffffffffffffff168152602001908152602001600020600082825403925050819055506001600360008473ffffffffffffffffffffffffffffffffffffffff1673ffffffffffffffffffffffffffffffffffffffff16815260200190815260200160002060008282540192505081905550816002600083815260200190815260200160002060006101000a81548173ffffffffffffffffffffffffffffffffffffffff021916908373ffffffffffffffffffffffffffffffffffffffff160217905550808273ffffffffffffffffffffffffffffffffffffffff168473ffffffffffffffffffffffffffffffffffffffff167fddf252ad1be2c89b69c2b068fc378daa952ba7f163c4a11628f55a4df523b3ef60405160405180910390a4611a868383836001612100565b505050565b600073ffffffffffffffffffffffffffffffffffffffff168273ffffffffffffffffffffffffffffffffffffffff1603611afa576040517f08c379a0000000000000000000000000000000000000000000000000000000008152600401611af19061392b565b60405180910390fd5b611b0381611f99565b15611b43576040517f08c379a0000000000000000000000000000000000000000000000000000000008152600401611b3a90613997565b60405180910390fd5b611b51600083836001611fda565b611b5a81611f99565b15611b9a576040517f08c379a0000000000000000000000000000000000000000000000000000000008152600401611b9190613997565b60405180910390fd5b6001600360008473ffffffffffffffffffffffffffffffffffffffff1673ffffffffffffffffffffffffffffffffffffffff16815260200190815260200160002060008282540192505081905550816002600083815260200190815260200160002060006101000a81548173ffffffffffffffffffffffffffffffffffffffff021916908373ffffffffffffffffffffffffffffffffffffffff160217905550808273ffffffffffffffffffffffffffffffffffffffff16600073ffffffffffffffffffffffffffffffffffffffff167fddf252ad1be2c89b69c2b068fc378daa952ba7f163c4a11628f55a4df523b3ef60405160405180910390a4611ca4600083836001612100565b5050565b611cb182611f99565b611cf0576040517f08c379a0000000000000000000000000000000000000000000000000000000008152600401611ce790613a29565b60405180910390fd5b80600660008481526020019081526020016000209081611d1091906134f7565b505050565b60006002600083815260200190815260200160002060009054906101000a900473ffffffffffffffffffffffffffffffffffffffff169050919050565b8173ffffffffffffffffffffffffffffffffffffffff168373ffffffffffffffffffffffffffffffffffffffff1603611dc0576040517f08c379a0000000000000000000000000000000000000000000000000000000008152600401611db790613a95565b60405180910390fd5b80600560008573ffffffffffffffffffffffffffffffffffffffff1673ffffffffffffffffffffffffffffffffffffffff16815260200190815260200160002060008473ffffffffffffffffffffffffffffffffffffffff1673ffffffffffffffffffffffffffffffffffffffff16815260200190815260200160002060006101000a81548160ff0219169083151502179055508173ffffffffffffffffffffffffffffffffffffffff168373ffffffffffffffffffffffffffffffffffffffff167f17307eab39ab6107e8899845ad3d59bd9653f200f220920489ca2b5937696c3183604051611eb19190612675565b60405180910390a3505050565b611ec9848484611792565b611ed584848484612106565b611f14576040517f08c379a0000000000000000000000000000000000000000000000000000000008152600401611f0b90613b27565b60405180910390fd5b50505050565b606060405180602001604052806000815250905090565b6060611f3c826115f1565b6000611f46611f1a565b90506000815111611f665760405180602001604052806000815250611f91565b80611f708461228d565b604051602001611f81929190613797565b6040516020818303038152906040525b915050919050565b60008073ffffffffffffffffffffffffffffffffffffffff16611fbb83611d15565b73ffffffffffffffffffffffffffffffffffffffff1614159050919050565b60018111156120fa57600073ffffffffffffffffffffffffffffffffffffffff168473ffffffffffffffffffffffffffffffffffffffff161461206e5780600360008673ffffffffffffffffffffffffffffffffffffffff1673ffffffffffffffffffffffffffffffffffffffff16815260200190815260200160002060008282546120669190613b47565b925050819055505b600073ffffffffffffffffffffffffffffffffffffffff168373ffffffffffffffffffffffffffffffffffffffff16146120f95780600360008573ffffffffffffffffffffffffffffffffffffffff1673ffffffffffffffffffffffffffffffffffffffff16815260200190815260200160002060008282546120f19190613635565b925050819055505b5b50505050565b50505050565b60006121278473ffffffffffffffffffffffffffffffffffffffff1661235b565b15612280578373ffffffffffffffffffffffffffffffffffffffff1663150b7a0261215061163c565b8786866040518563ffffffff1660e01b81526004016121729493929190613bd0565b6020604051808303816000875af19250505080156121ae57506040513d601f19601f820116820180604052508101906121ab9190613c31565b60015b612230573d80600081146121de576040519150601f19603f3d011682016040523d82523d6000602084013e6121e3565b606091505b506000815103612228576040517f08c379a000000000000000000000000000000000000000000000000000000000815260040161221f90613b27565b60405180910390fd5b805181602001fd5b63150b7a0260e01b7bffffffffffffffffffffffffffffffffffffffffffffffffffffffff1916817bffffffffffffffffffffffffffffffffffffffffffffffffffffffff191614915050612285565b600190505b949350505050565b60606000600161229c8461237e565b01905060008167ffffffffffffffff8111156122bb576122ba612894565b5b6040519080825280601f01601f1916602001820160405280156122ed5781602001600182028036833780820191505090505b509050600082602001820190505b600115612350578080600190039150507f3031323334353637383961626364656600000000000000000000000000000000600a86061a8153600a858161234457612343613669565b5b049450600085036122fb575b819350505050919050565b6000808273ffffffffffffffffffffffffffffffffffffffff163b119050919050565b600080600090507a184f03e93ff9f4daa797ed6e38ed64bf6a1f01000000000000000083106123dc577a184f03e93ff9f4daa797ed6e38ed64bf6a1f01000000000000000083816123d2576123d1613669565b5b0492506040810190505b6d04ee2d6d415b85acef81000000008310612419576d04ee2d6d415b85acef8100000000838161240f5761240e613669565b5b0492506020810190505b662386f26fc10000831061244857662386f26fc10000838161243e5761243d613669565b5b0492506010810190505b6305f5e1008310612471576305f5e100838161246757612466613669565b5b0492506008810190505b612710831061249657612710838161248c5761248b613669565b5b0492506004810190505b606483106124b957606483816124af576124ae613669565b5b0492506002810190505b600a83106124c8576001810190505b80915050919050565b6040518060800160405280600073ffffffffffffffffffffffffffffffffffffffff16815260200160008152602001600060ff168152602001600081525090565b6000604051905090565b600080fd5b600080fd5b6000819050919050565b61253981612526565b811461254457600080fd5b50565b60008135905061255681612530565b92915050565b600060ff82169050919050565b6125728161255c565b811461257d57600080fd5b50565b60008135905061258f81612569565b92915050565b600080604083850312156125ac576125ab61251c565b5b60006125ba85828601612547565b92505060206125cb85828601612580565b9150509250929050565b60007fffffffff0000000000000000000000000000000000000000000000000000000082169050919050565b61260a816125d5565b811461261557600080fd5b50565b60008135905061262781612601565b92915050565b6000602082840312156126435761264261251c565b5b600061265184828501612618565b91505092915050565b60008115159050919050565b61266f8161265a565b82525050565b600060208201905061268a6000830184612666565b92915050565b600081519050919050565b600082825260208201905092915050565b60005b838110156126ca5780820151818401526020810190506126af565b60008484015250505050565b6000601f19601f8301169050919050565b60006126f282612690565b6126fc818561269b565b935061270c8185602086016126ac565b612715816126d6565b840191505092915050565b6000602082019050818103600083015261273a81846126e7565b905092915050565b6000602082840312156127585761275761251c565b5b600061276684828501612547565b91505092915050565b600073ffffffffffffffffffffffffffffffffffffffff82169050919050565b600061279a8261276f565b9050919050565b6127aa8161278f565b82525050565b60006020820190506127c560008301846127a1565b92915050565b6127d48161278f565b81146127df57600080fd5b50565b6000813590506127f1816127cb565b92915050565b6000806040838503121561280e5761280d61251c565b5b600061281c858286016127e2565b925050602061282d85828601612547565b9150509250929050565b6000806000606084860312156128505761284f61251c565b5b600061285e868287016127e2565b935050602061286f868287016127e2565b925050604061288086828701612547565b9150509250925092565b600080fd5b600080fd5b7f4e487b7100000000000000000000000000000000000000000000000000000000600052604160045260246000fd5b6128cc826126d6565b810181811067ffffffffffffffff821117156128eb576128ea612894565b5b80604052505050565b60006128fe612512565b905061290a82826128c3565b919050565b600067ffffffffffffffff82111561292a57612929612894565b5b612933826126d6565b9050602081019050919050565b82818337600083830152505050565b600061296261295d8461290f565b6128f4565b90508281526020810184848401111561297e5761297d61288f565b5b612989848285612940565b509392505050565b600082601f8301126129a6576129a561288a565b5b81356129b684826020860161294f565b91505092915050565b600080604083850312156129d6576129d561251c565b5b600083013567ffffffffffffffff8111156129f4576129f3612521565b5b612a0085828601612991565b925050602083013567ffffffffffffffff811115612a2157612a20612521565b5b612a2d85828601612991565b9150509250929050565b600060208284031215612a4d57612a4c61251c565b5b6000612a5b848285016127e2565b91505092915050565b612a6d8161278f565b82525050565b612a7c81612526565b82525050565b612a8b8161255c565b82525050565b608082016000820151612aa76000850182612a64565b506020820151612aba6020850182612a73565b506040820151612acd6040850182612a82565b506060820151612ae06060850182612a73565b50505050565b600060a082019050612afb6000830185612666565b612b086020830184612a91565b9392505050565b612b188161255c565b82525050565b6000602082019050612b336000830184612b0f565b92915050565b612b4281612526565b82525050565b6000602082019050612b5d6000830184612b39565b92915050565b612b6c8161265a565b8114612b7757600080fd5b50565b600081359050612b8981612b63565b92915050565b60008060408385031215612ba657612ba561251c565b5b6000612bb4858286016127e2565b9250506020612bc585828601612b7a565b9150509250929050565b600067ffffffffffffffff821115612bea57612be9612894565b5b612bf3826126d6565b9050602081019050919050565b6000612c13612c0e84612bcf565b6128f4565b905082815260208101848484011115612c2f57612c2e61288f565b5b612c3a848285612940565b509392505050565b600082601f830112612c5757612c5661288a565b5b8135612c67848260208601612c00565b91505092915050565b60008060008060808587031215612c8a57612c8961251c565b5b6000612c98878288016127e2565b9450506020612ca9878288016127e2565b9350506040612cba87828801612547565b925050606085013567ffffffffffffffff811115612cdb57612cda612521565b5b612ce787828801612c42565b91505092959194509250565b6000606082019050612d086000830186612b39565b8181036020830152612d1a81856126e7565b90508181036040830152612d2e81846126e7565b9050949350505050565b600081519050919050565b600082825260208201905092915050565b6000819050602082019050919050565b600082825260208201905092915050565b6000612d8082612690565b612d8a8185612d64565b9350612d9a8185602086016126ac565b612da3816126d6565b840191505092915050565b6000606083016000830151612dc66000860182612a73565b5060208301518482036020860152612dde8282612d75565b91505060408301518482036040860152612df88282612d75565b9150508091505092915050565b6000612e118383612dae565b905092915050565b6000602082019050919050565b6000612e3182612d38565b612e3b8185612d43565b935083602082028501612e4d85612d54565b8060005b85811015612e895784840389528151612e6a8582612e05565b9450612e7583612e19565b925060208a01995050600181019050612e51565b50829750879550505050505092915050565b60006020820190508181036000830152612eb58184612e26565b905092915050565b60008060408385031215612ed457612ed361251c565b5b6000612ee2858286016127e2565b9250506020612ef3858286016127e2565b9150509250929050565b600081519050919050565b600082825260208201905092915050565b6000819050602082019050919050565b608082016000820151612f3f6000850182612a64565b506020820151612f526020850182612a73565b506040820151612f656040850182612a82565b506060820151612f786060850182612a73565b50505050565b6000612f8a8383612f29565b60808301905092915050565b6000602082019050919050565b6000612fae82612efd565b612fb88185612f08565b9350612fc383612f19565b8060005b83811015612ff4578151612fdb8882612f7e565b9750612fe683612f96565b925050600181019050612fc7565b5085935050505092915050565b6000602082019050818103600083015261301b8184612fa3565b905092915050565b7f4e487b7100000000000000000000000000000000000000000000000000000000600052603260045260246000fd5b7f4d6f7669652063616e6e6f742062652072617465642074776963650000000000600082015250565b6000613088601b8361269b565b915061309382613052565b602082019050919050565b600060208201905081810360008301526130b78161307b565b9050919050565b7f4e487b7100000000000000000000000000000000000000000000000000000000600052601160045260246000fd5b60006130f882612526565b91507fffffffffffffffffffffffffffffffffffffffffffffffffffffffffffffffff820361312a576131296130be565b5b600182019050919050565b7f4e487b7100000000000000000000000000000000000000000000000000000000600052602260045260246000fd5b6000600282049050600182168061317c57607f821691505b60208210810361318f5761318e613135565b5b50919050565b7f4552433732313a20617070726f76616c20746f2063757272656e74206f776e6560008201527f7200000000000000000000000000000000000000000000000000000000000000602082015250565b60006131f160218361269b565b91506131fc82613195565b604082019050919050565b60006020820190508181036000830152613220816131e4565b9050919050565b7f4552433732313a20617070726f76652063616c6c6572206973206e6f7420746f60008201527f6b656e206f776e6572206f7220617070726f76656420666f7220616c6c000000602082015250565b6000613283603d8361269b565b915061328e82613227565b604082019050919050565b600060208201905081810360008301526132b281613276565b9050919050565b7f4552433732313a2063616c6c6572206973206e6f7420746f6b656e206f776e6560008201527f72206f7220617070726f76656400000000000000000000000000000000000000602082015250565b6000613315602d8361269b565b9150613320826132b9565b604082019050919050565b6000602082019050818103600083015261334481613308565b9050919050565b60008190508160005260206000209050919050565b60006020601f8301049050919050565b600082821b905092915050565b6000600883026133ad7fffffffffffffffffffffffffffffffffffffffffffffffffffffffffffffffff82613370565b6133b78683613370565b95508019841693508086168417925050509392505050565b6000819050919050565b60006133f46133ef6133ea84612526565b6133cf565b612526565b9050919050565b6000819050919050565b61340e836133d9565b61342261341a826133fb565b84845461337d565b825550505050565b600090565b61343761342a565b613442818484613405565b505050565b5b818110156134665761345b60008261342f565b600181019050613448565b5050565b601f8211156134ab5761347c8161334b565b61348584613360565b81016020851015613494578190505b6134a86134a085613360565b830182613447565b50505b505050565b600082821c905092915050565b60006134ce600019846008026134b0565b1980831691505092915050565b60006134e783836134bd565b9150826002028217905092915050565b61350082612690565b67ffffffffffffffff81111561351957613518612894565b5b6135238254613164565b61352e82828561346a565b600060209050601f831160018114613561576000841561354f578287015190505b61355985826134db565b8655506135c1565b601f19841661356f8661334b565b60005b8281101561359757848901518255600182019150602085019450602081019050613572565b868310156135b457848901516135b0601f8916826134bd565b8355505b6001600288020188555050505b505050505050565b7f4552433732313a20696e76616c696420746f6b656e2049440000000000000000600082015250565b60006135ff60188361269b565b915061360a826135c9565b602082019050919050565b6000602082019050818103600083015261362e816135f2565b9050919050565b600061364082612526565b915061364b83612526565b9250828201905080821115613663576136626130be565b5b92915050565b7f4e487b7100000000000000000000000000000000000000000000000000000000600052601260045260246000fd5b60006136a382612526565b91506136ae83612526565b9250826136be576136bd613669565b5b828204905092915050565b7f4552433732313a2061646472657373207a65726f206973206e6f74206120766160008201527f6c6964206f776e65720000000000000000000000000000000000000000000000602082015250565b600061372560298361269b565b9150613730826136c9565b604082019050919050565b6000602082019050818103600083015261375481613718565b9050919050565b600081905092915050565b600061377182612690565b61377b818561375b565b935061378b8185602086016126ac565b80840191505092915050565b60006137a38285613766565b91506137af8284613766565b91508190509392505050565b7f4552433732313a207472616e736665722066726f6d20696e636f72726563742060008201527f6f776e6572000000000000000000000000000000000000000000000000000000602082015250565b600061381760258361269b565b9150613822826137bb565b604082019050919050565b600060208201905081810360008301526138468161380a565b9050919050565b7f4552433732313a207472616e7366657220746f20746865207a65726f2061646460008201527f7265737300000000000000000000000000000000000000000000000000000000602082015250565b60006138a960248361269b565b91506138b48261384d565b604082019050919050565b600060208201905081810360008301526138d88161389c565b9050919050565b7f4552433732313a206d696e7420746f20746865207a65726f2061646472657373600082015250565b600061391560208361269b565b9150613920826138df565b602082019050919050565b6000602082019050818103600083015261394481613908565b9050919050565b7f4552433732313a20746f6b656e20616c7265616479206d696e74656400000000600082015250565b6000613981601c8361269b565b915061398c8261394b565b602082019050919050565b600060208201905081810360008301526139b081613974565b9050919050565b7f45524337323155524953746f726167653a2055524920736574206f66206e6f6e60008201527f6578697374656e7420746f6b656e000000000000000000000000000000000000602082015250565b6000613a13602e8361269b565b9150613a1e826139b7565b604082019050919050565b60006020820190508181036000830152613a4281613a06565b9050919050565b7f4552433732313a20617070726f766520746f2063616c6c657200000000000000600082015250565b6000613a7f60198361269b565b9150613a8a82613a49565b602082019050919050565b60006020820190508181036000830152613aae81613a72565b9050919050565b7f4552433732313a207472616e7366657220746f206e6f6e20455243373231526560008201527f63656976657220696d706c656d656e7465720000000000000000000000000000602082015250565b6000613b1160328361269b565b9150613b1c82613ab5565b604082019050919050565b60006020820190508181036000830152613b4081613b04565b9050919050565b6000613b5282612526565b9150613b5d83612526565b9250828203905081811115613b7557613b746130be565b5b92915050565b600081519050919050565b600082825260208201905092915050565b6000613ba282613b7b565b613bac8185613b86565b9350613bbc8185602086016126ac565b613bc5816126d6565b840191505092915050565b6000608082019050613be560008301876127a1565b613bf260208301866127a1565b613bff6040830185612b39565b8181036060830152613c118184613b97565b905095945050505050565b600081519050613c2b81612601565b92915050565b600060208284031215613c4757613c4661251c565b5b6000613c5584828501613c1c565b9150509291505056fea264697066735822122065e08f95f58776ed3135f24ad798b7105dc7eb8fc7f59473ce12210754d9f0b064736f6c63430008110033",
  "immutableReferences": {},
  "source": "// SPDX-License-Identifier: MIT\npragma solidity ^0.8.4;\n\nimport \"@openzeppelin/contracts/token/ERC721/extensions/ERC721URIStorage.sol\";\nimport \"@openzeppelin/contracts/utils/Strings.sol\";\n\ncontract MoviesNFT is ERC721URIStorage {\n    uint256 MAX_RATING_COUNT = 100000000000;\n    uint256 private movieNumber = 1;\n    address private _owner; // owner of the movie NFT\n\n    struct movieData {\n        uint256 movieNumber;\n        string movieName;\n        string ipfsHash;\n    }\n\n    struct rating {\n        address ratingOwner; // address who made the rating\n        uint256 movieNumber; // number of the movie for which the rating is being casted\n        uint8 ratingVal; // must be between 1(min rate) and 10(max rate)\n        uint256 createdAt; // timestamp of rating\n    }\n\n    movieData[] movies;\n    rating[] ratings;\n    mapping(address => rating) userRating;\n    mapping(address => uint256[]) userMovieRating;\n\n    constructor(address owner) ERC721(\"MovieNFT\", \"MNFT\") {\n        _owner = owner;\n    }\n\n    function createMovieNft(string memory name, string memory ipfsHash) public {\n        require(msg.sender == _owner);\n\n        movieData memory nextMovie = movieData(movieNumber, name, ipfsHash);\n\n        movies.push(nextMovie);\n        _mint(msg.sender, movieNumber);\n        _setTokenURI(movieNumber, ipfsHash);\n        movieNumber++;\n    }\n\n    function getAllMovies() public view returns (movieData[] memory) {\n        return movies;\n    }\n\n    function getMovieByNumber(uint256 _movieNum)\n        public\n        view\n        returns (\n            uint256,\n            string memory,\n            string memory\n        )\n    {\n        for (uint256 i = 0; i < movieNumber; i++) {\n            if (movies[i].movieNumber == _movieNum) {\n                return (\n                    movies[i].movieNumber,\n                    movies[i].movieName,\n                    movies[i].ipfsHash\n                );\n            }\n        }\n        return (0, \"\", \"\");\n    }\n\n    function castMovieRating(uint256 _movieNum, uint8 ratingVal) public {\n        for (uint256 i = 0; i < ratings.length; i++) {\n            if (\n                ratings[i].ratingOwner == msg.sender &&\n                ratings[i].movieNumber == _movieNum\n            ) {\n                require(1 == 2, \"Movie cannot be rated twice\");\n            }\n        }\n\n        rating memory r = rating(\n            msg.sender,\n            _movieNum,\n            ratingVal,\n            block.timestamp\n        );\n\n        userRating[msg.sender] = r;\n        ratings.push(r);\n    }\n\n    function getAvgMovieRating(uint256 _movieNum) public view returns (uint8) {\n        uint256 s = 0;\n        uint256 n = 0;\n        for (uint256 i = 0; i < ratings.length; i++) {\n            if (ratings[i].movieNumber == _movieNum) {\n                s = s + ratings[i].ratingVal;\n                n++;\n            }\n        }\n        uint8 avg = uint8(s / n);\n        return avg;\n    }\n\n    function getUserRating(address userAdd)\n        public\n        view\n        returns (bool, rating memory)\n    {\n        rating memory rs = userRating[userAdd];\n        if (rs.ratingVal > 0) {\n            return (true, rs);\n        }\n        return (false, rs);\n    }\n\n    function getAllRatings() public view returns (rating[] memory) {\n        return ratings;\n    }\n}\n",
  "sourcePath": "/Users/sagaranand/Documents/workspace-open/chainlink-2022/web3-imdb/_backend/contracts/MoviesNFT.sol",
  "compiler": {
    "name": "solc",
    "version": "0.8.17+commit.8df45f5f.Emscripten.clang"
  },
  "schemaVersion": "3.4.10",
  "updatedAt": "2022-11-18T22:06:53.280Z",
  "networkType": "ethereum",
  "devdoc": {
    "kind": "dev",
    "methods": {
      "approve(address,uint256)": {
        "details": "See {IERC721-approve}."
      },
      "balanceOf(address)": {
        "details": "See {IERC721-balanceOf}."
      },
      "getApproved(uint256)": {
        "details": "See {IERC721-getApproved}."
      },
      "isApprovedForAll(address,address)": {
        "details": "See {IERC721-isApprovedForAll}."
      },
      "name()": {
        "details": "See {IERC721Metadata-name}."
      },
      "ownerOf(uint256)": {
        "details": "See {IERC721-ownerOf}."
      },
      "safeTransferFrom(address,address,uint256)": {
        "details": "See {IERC721-safeTransferFrom}."
      },
      "safeTransferFrom(address,address,uint256,bytes)": {
        "details": "See {IERC721-safeTransferFrom}."
      },
      "setApprovalForAll(address,bool)": {
        "details": "See {IERC721-setApprovalForAll}."
      },
      "supportsInterface(bytes4)": {
        "details": "See {IERC165-supportsInterface}."
      },
      "symbol()": {
        "details": "See {IERC721Metadata-symbol}."
      },
      "tokenURI(uint256)": {
        "details": "See {IERC721Metadata-tokenURI}."
      },
      "transferFrom(address,address,uint256)": {
        "details": "See {IERC721-transferFrom}."
      }
    },
    "version": 1
  },
  "userdoc": {
    "kind": "user",
    "methods": {},
    "version": 1
  }
}