{
  "contractName": "RaterVerifier",
  "abi": [
    {
      "inputs": [
        {
          "internalType": "address",
          "name": "moviesNftContract",
          "type": "address"
        }
      ],
      "stateMutability": "nonpayable",
      "type": "constructor"
    },
    {
      "anonymous": false,
      "inputs": [
        {
          "indexed": true,
          "internalType": "address",
          "name": "previousOwner",
          "type": "address"
        },
        {
          "indexed": true,
          "internalType": "address",
          "name": "newOwner",
          "type": "address"
        }
      ],
      "name": "OwnershipTransferred",
      "type": "event"
    },
    {
      "inputs": [],
      "name": "TRANSFER_REQUEST_ID",
      "outputs": [
        {
          "internalType": "uint64",
          "name": "",
          "type": "uint64"
        }
      ],
      "stateMutability": "view",
      "type": "function"
    },
    {
      "inputs": [
        {
          "internalType": "address",
          "name": "",
          "type": "address"
        }
      ],
      "name": "addressToId",
      "outputs": [
        {
          "internalType": "uint256",
          "name": "",
          "type": "uint256"
        }
      ],
      "stateMutability": "view",
      "type": "function"
    },
    {
      "inputs": [],
      "name": "getSupportedRequests",
      "outputs": [
        {
          "internalType": "uint64[]",
          "name": "arr",
          "type": "uint64[]"
        }
      ],
      "stateMutability": "view",
      "type": "function"
    },
    {
      "inputs": [
        {
          "internalType": "uint64",
          "name": "requestId",
          "type": "uint64"
        }
      ],
      "name": "getZKPRequest",
      "outputs": [
        {
          "components": [
            {
              "internalType": "uint256",
              "name": "schema",
              "type": "uint256"
            },
            {
              "internalType": "uint256",
              "name": "slotIndex",
              "type": "uint256"
            },
            {
              "internalType": "uint256",
              "name": "operator",
              "type": "uint256"
            },
            {
              "internalType": "uint256[]",
              "name": "value",
              "type": "uint256[]"
            },
            {
              "internalType": "string",
              "name": "circuitId",
              "type": "string"
            }
          ],
          "internalType": "struct ICircuitValidator.CircuitQuery",
          "name": "",
          "type": "tuple"
        }
      ],
      "stateMutability": "view",
      "type": "function"
    },
    {
      "inputs": [
        {
          "internalType": "uint256",
          "name": "",
          "type": "uint256"
        }
      ],
      "name": "idToAddress",
      "outputs": [
        {
          "internalType": "address",
          "name": "",
          "type": "address"
        }
      ],
      "stateMutability": "view",
      "type": "function"
    },
    {
      "inputs": [],
      "name": "owner",
      "outputs": [
        {
          "internalType": "address",
          "name": "",
          "type": "address"
        }
      ],
      "stateMutability": "view",
      "type": "function"
    },
    {
      "inputs": [
        {
          "internalType": "address",
          "name": "",
          "type": "address"
        },
        {
          "internalType": "uint64",
          "name": "",
          "type": "uint64"
        }
      ],
      "name": "proofs",
      "outputs": [
        {
          "internalType": "bool",
          "name": "",
          "type": "bool"
        }
      ],
      "stateMutability": "view",
      "type": "function"
    },
    {
      "inputs": [],
      "name": "renounceOwnership",
      "outputs": [],
      "stateMutability": "nonpayable",
      "type": "function"
    },
    {
      "inputs": [
        {
          "internalType": "uint64",
          "name": "",
          "type": "uint64"
        }
      ],
      "name": "requestQueries",
      "outputs": [
        {
          "internalType": "uint256",
          "name": "schema",
          "type": "uint256"
        },
        {
          "internalType": "uint256",
          "name": "slotIndex",
          "type": "uint256"
        },
        {
          "internalType": "uint256",
          "name": "operator",
          "type": "uint256"
        },
        {
          "internalType": "string",
          "name": "circuitId",
          "type": "string"
        }
      ],
      "stateMutability": "view",
      "type": "function"
    },
    {
      "inputs": [
        {
          "internalType": "uint64",
          "name": "",
          "type": "uint64"
        }
      ],
      "name": "requestValidators",
      "outputs": [
        {
          "internalType": "contract ICircuitValidator",
          "name": "",
          "type": "address"
        }
      ],
      "stateMutability": "view",
      "type": "function"
    },
    {
      "inputs": [
        {
          "internalType": "uint64",
          "name": "requestId",
          "type": "uint64"
        },
        {
          "internalType": "contract ICircuitValidator",
          "name": "validator",
          "type": "address"
        },
        {
          "components": [
            {
              "internalType": "uint256",
              "name": "schema",
              "type": "uint256"
            },
            {
              "internalType": "uint256",
              "name": "slotIndex",
              "type": "uint256"
            },
            {
              "internalType": "uint256",
              "name": "operator",
              "type": "uint256"
            },
            {
              "internalType": "uint256[]",
              "name": "value",
              "type": "uint256[]"
            },
            {
              "internalType": "string",
              "name": "circuitId",
              "type": "string"
            }
          ],
          "internalType": "struct ICircuitValidator.CircuitQuery",
          "name": "query",
          "type": "tuple"
        }
      ],
      "name": "setZKPRequest",
      "outputs": [
        {
          "internalType": "bool",
          "name": "",
          "type": "bool"
        }
      ],
      "stateMutability": "nonpayable",
      "type": "function"
    },
    {
      "inputs": [
        {
          "internalType": "uint64",
          "name": "requestId",
          "type": "uint64"
        },
        {
          "internalType": "uint256[]",
          "name": "inputs",
          "type": "uint256[]"
        },
        {
          "internalType": "uint256[2]",
          "name": "a",
          "type": "uint256[2]"
        },
        {
          "internalType": "uint256[2][2]",
          "name": "b",
          "type": "uint256[2][2]"
        },
        {
          "internalType": "uint256[2]",
          "name": "c",
          "type": "uint256[2]"
        }
      ],
      "name": "submitZKPResponse",
      "outputs": [
        {
          "internalType": "bool",
          "name": "",
          "type": "bool"
        }
      ],
      "stateMutability": "nonpayable",
      "type": "function"
    },
    {
      "inputs": [
        {
          "internalType": "uint256",
          "name": "",
          "type": "uint256"
        }
      ],
      "name": "supportedRequests",
      "outputs": [
        {
          "internalType": "uint64",
          "name": "",
          "type": "uint64"
        }
      ],
      "stateMutability": "view",
      "type": "function"
    },
    {
      "inputs": [
        {
          "internalType": "address",
          "name": "newOwner",
          "type": "address"
        }
      ],
      "name": "transferOwnership",
      "outputs": [],
      "stateMutability": "nonpayable",
      "type": "function"
    }
  ],
  "bytecode": "0x60806040523480156200001157600080fd5b5060405162002e2f38038062002e2f8339818101604052810190620000379190620001d5565b620000576200004b6200009f60201b60201c565b620000a760201b60201c565b80600560006101000a81548173ffffffffffffffffffffffffffffffffffffffff021916908373ffffffffffffffffffffffffffffffffffffffff1602179055505062000207565b600033905090565b60008060009054906101000a900473ffffffffffffffffffffffffffffffffffffffff169050816000806101000a81548173ffffffffffffffffffffffffffffffffffffffff021916908373ffffffffffffffffffffffffffffffffffffffff1602179055508173ffffffffffffffffffffffffffffffffffffffff168173ffffffffffffffffffffffffffffffffffffffff167f8be0079c531659141344cd1fd0a4f28419497f9722a3daafe3b4186f6b6457e060405160405180910390a35050565b600080fd5b600073ffffffffffffffffffffffffffffffffffffffff82169050919050565b60006200019d8262000170565b9050919050565b620001af8162000190565b8114620001bb57600080fd5b50565b600081519050620001cf81620001a4565b92915050565b600060208284031215620001ee57620001ed6200016b565b5b6000620001fe84828501620001be565b91505092915050565b612c1880620002176000396000f3fe608060405234801561001057600080fd5b50600436106100ea5760003560e01c8063b45c0fdf1161008c578063cb0e0d7d11610066578063cb0e0d7d14610276578063f1435326146102a6578063f2fde38b146102d6578063fee207e6146102f2576100ea565b8063b45c0fdf146101e6578063b68967e214610216578063c76d084514610246576100ea565b8063715018a6116100c8578063715018a61461015b5780638da5cb5b1461016557806396bf474114610183578063a8723114146101b6576100ea565b80632a2d0c47146100ef57806337ba95231461011f57806363ec508f1461013d575b600080fd5b610109600480360381019061010491906114dd565b610322565b604051610116919061154b565b60405180910390f35b610127610355565b6040516101349190611638565b60405180910390f35b6101456103e1565b6040516101529190611669565b60405180910390f35b6101636103e6565b005b61016d6103fa565b60405161017a919061154b565b60405180910390f35b61019d600480360381019061019891906116b0565b610423565b6040516101ad949392919061177c565b60405180910390f35b6101d060048036038101906101cb91906116b0565b6104db565b6040516101dd9190611827565b60405180910390f35b61020060048036038101906101fb919061186e565b61050e565b60405161020d91906118c9565b60405180910390f35b610230600480360381019061022b9190611b8e565b61053d565b60405161023d91906118c9565b60405180910390f35b610260600480360381019061025b91906116b0565b6108bc565b60405161026d9190611dac565b60405180910390f35b610290600480360381019061028b9190611dce565b610a05565b60405161029d9190611dfb565b60405180910390f35b6102c060048036038101906102bb91906114dd565b610a1d565b6040516102cd9190611669565b60405180910390f35b6102f060048036038101906102eb9190611dce565b610a5b565b005b61030c60048036038101906103079190611fd7565b610ade565b60405161031991906118c9565b60405180910390f35b60066020528060005260406000206000915054906101000a900473ffffffffffffffffffffffffffffffffffffffff1681565b606060048054806020026020016040519081016040528092919081815260200182805480156103d757602002820191906000526020600020906000905b82829054906101000a900467ffffffffffffffff1667ffffffffffffffff16815260200190600801906020826007010492830192600103820291508084116103925790505b5050505050905090565b600181565b6103ee610d7f565b6103f86000610dfd565b565b60008060009054906101000a900473ffffffffffffffffffffffffffffffffffffffff16905090565b600260205280600052604060002060009150905080600001549080600101549080600201549080600401805461045890612075565b80601f016020809104026020016040519081016040528092919081815260200182805461048490612075565b80156104d15780601f106104a6576101008083540402835291602001916104d1565b820191906000526020600020905b8154815290600101906020018083116104b457829003601f168201915b5050505050905084565b60036020528060005260406000206000915054906101000a900473ffffffffffffffffffffffffffffffffffffffff1681565b60016020528160005260406000206020528060005260406000206000915091509054906101000a900460ff1681565b60008073ffffffffffffffffffffffffffffffffffffffff16600360008867ffffffffffffffff1667ffffffffffffffff16815260200190815260200160002060009054906101000a900473ffffffffffffffffffffffffffffffffffffffff1673ffffffffffffffffffffffffffffffffffffffff16036105f4576040517f08c379a00000000000000000000000000000000000000000000000000000000081526004016105eb90612118565b60405180910390fd5b6000600260008867ffffffffffffffff1667ffffffffffffffff1681526020019081526020016000206000015403610661576040517f08c379a0000000000000000000000000000000000000000000000000000000008152600401610658906121aa565b60405180910390fd5b6106b38686600360008a67ffffffffffffffff1667ffffffffffffffff16815260200190815260200160002060009054906101000a900473ffffffffffffffffffffffffffffffffffffffff16610ec1565b600360008767ffffffffffffffff1667ffffffffffffffff16815260200190815260200160002060009054906101000a900473ffffffffffffffffffffffffffffffffffffffff1673ffffffffffffffffffffffffffffffffffffffff166367e1d50486868686600260008d67ffffffffffffffff1667ffffffffffffffff1681526020019081526020016000206040518663ffffffff1660e01b81526004016107619594939291906125c8565b602060405180830381865afa15801561077e573d6000803e3d6000fd5b505050506040513d601f19601f820116820180604052508101906107a29190612657565b6107e1576040517f08c379a00000000000000000000000000000000000000000000000000000000081526004016107d8906126d0565b60405180910390fd5b60018060003373ffffffffffffffffffffffffffffffffffffffff1673ffffffffffffffffffffffffffffffffffffffff16815260200190815260200160002060008867ffffffffffffffff1667ffffffffffffffff16815260200190815260200160002060006101000a81548160ff0219169083151502179055506108af8686600360008a67ffffffffffffffff1667ffffffffffffffff16815260200190815260200160002060009054906101000a900473ffffffffffffffffffffffffffffffffffffffff16610fd1565b6001905095945050505050565b6108c46113fa565b600260008367ffffffffffffffff1667ffffffffffffffff1681526020019081526020016000206040518060a00160405290816000820154815260200160018201548152602001600282015481526020016003820180548060200260200160405190810160405280929190818152602001828054801561096357602002820191906000526020600020905b81548152602001906001019080831161094f575b5050505050815260200160048201805461097c90612075565b80601f01602080910402602001604051908101604052809291908181526020018280546109a890612075565b80156109f55780601f106109ca576101008083540402835291602001916109f5565b820191906000526020600020905b8154815290600101906020018083116109d857829003601f168201915b5050505050815250509050919050565b60076020528060005260406000206000915090505481565b60048181548110610a2d57600080fd5b9060005260206000209060049182820401919006600802915054906101000a900467ffffffffffffffff1681565b610a63610d7f565b600073ffffffffffffffffffffffffffffffffffffffff168173ffffffffffffffffffffffffffffffffffffffff1603610ad2576040517f08c379a0000000000000000000000000000000000000000000000000000000008152600401610ac990612762565b60405180910390fd5b610adb81610dfd565b50565b6000610ae8610d7f565b600073ffffffffffffffffffffffffffffffffffffffff16600360008667ffffffffffffffff1667ffffffffffffffff16815260200190815260200160002060009054906101000a900473ffffffffffffffffffffffffffffffffffffffff1673ffffffffffffffffffffffffffffffffffffffff1603610bba5760048490806001815401808255809150506001900390600052602060002090600491828204019190066008029091909190916101000a81548167ffffffffffffffff021916908367ffffffffffffffff1602179055505b8160600151600260008667ffffffffffffffff1667ffffffffffffffff1681526020019081526020016000206003019080519060200190610bfc929190611429565b508160400151600260008667ffffffffffffffff1667ffffffffffffffff168152602001908152602001600020600201819055508160800151600260008667ffffffffffffffff1667ffffffffffffffff1681526020019081526020016000206004019081610c6b919061290f565b508160200151600260008667ffffffffffffffff1667ffffffffffffffff168152602001908152602001600020600101819055508160000151600260008667ffffffffffffffff1667ffffffffffffffff168152602001908152602001600020600001819055508160800151600260008667ffffffffffffffff1667ffffffffffffffff1681526020019081526020016000206004019081610d0d919061290f565b5082600360008667ffffffffffffffff1667ffffffffffffffff16815260200190815260200160002060006101000a81548173ffffffffffffffffffffffffffffffffffffffff021916908373ffffffffffffffffffffffffffffffffffffffff160217905550600190509392505050565b610d87611219565b73ffffffffffffffffffffffffffffffffffffffff16610da56103fa565b73ffffffffffffffffffffffffffffffffffffffff1614610dfb576040517f08c379a0000000000000000000000000000000000000000000000000000000008152600401610df290612a2d565b60405180910390fd5b565b60008060009054906101000a900473ffffffffffffffffffffffffffffffffffffffff169050816000806101000a81548173ffffffffffffffffffffffffffffffffffffffff021916908373ffffffffffffffffffffffffffffffffffffffff1602179055508173ffffffffffffffffffffffffffffffffffffffff168173ffffffffffffffffffffffffffffffffffffffff167f8be0079c531659141344cd1fd0a4f28419497f9722a3daafe3b4186f6b6457e060405160405180910390a35050565b6000610f54838373ffffffffffffffffffffffffffffffffffffffff16639f442afa6040518163ffffffff1660e01b8152600401602060405180830381865afa158015610f12573d6000803e3d6000fd5b505050506040513d601f19601f82011682018060405250810190610f369190612a62565b81518110610f4757610f46612a8f565b5b6020026020010151611221565b90508073ffffffffffffffffffffffffffffffffffffffff16610f75611219565b73ffffffffffffffffffffffffffffffffffffffff1614610fcb576040517f08c379a0000000000000000000000000000000000000000000000000000000008152600401610fc290612b30565b60405180910390fd5b50505050565b600167ffffffffffffffff168367ffffffffffffffff1614801561103b5750600060076000610ffe611219565b73ffffffffffffffffffffffffffffffffffffffff1673ffffffffffffffffffffffffffffffffffffffff16815260200190815260200160002054145b61107a576040517f08c379a000000000000000000000000000000000000000000000000000000000815260040161107190612bc2565b60405180910390fd5b6000828273ffffffffffffffffffffffffffffffffffffffff16639f442afa6040518163ffffffff1660e01b8152600401602060405180830381865afa1580156110c8573d6000803e3d6000fd5b505050506040513d601f19601f820116820180604052508101906110ec9190612a62565b815181106110fd576110fc612a8f565b5b60200260200101519050600073ffffffffffffffffffffffffffffffffffffffff166006600083815260200190815260200160002060009054906101000a900473ffffffffffffffffffffffffffffffffffffffff1673ffffffffffffffffffffffffffffffffffffffff160361121357806007600061117b611219565b73ffffffffffffffffffffffffffffffffffffffff1673ffffffffffffffffffffffffffffffffffffffff168152602001908152602001600020819055506111c1611219565b6006600083815260200190815260200160002060006101000a81548173ffffffffffffffffffffffffffffffffffffffff021916908373ffffffffffffffffffffffffffffffffffffffff1602179055505b50505050565b600033905090565b600061123c61123761123284611243565b61138f565b6113ec565b9050919050565b600081905060087eff00ff00ff00ff00ff00ff00ff00ff00ff00ff00ff00ff00ff00ff00ff00ff8216901b60087fff00ff00ff00ff00ff00ff00ff00ff00ff00ff00ff00ff00ff00ff00ff00ff008316901c17905060107dffff0000ffff0000ffff0000ffff0000ffff0000ffff0000ffff0000ffff8216901b60107fffff0000ffff0000ffff0000ffff0000ffff0000ffff0000ffff0000ffff00008316901c17905060207bffffffff00000000ffffffff00000000ffffffff00000000ffffffff8216901b60207fffffffff00000000ffffffff00000000ffffffff00000000ffffffff000000008316901c179050604077ffffffffffffffff0000000000000000ffffffffffffffff8216901b60407fffffffffffffffff0000000000000000ffffffffffffffff00000000000000008316901c179050608081901b608082901c179050919050565b6060602067ffffffffffffffff8111156113ac576113ab6118e9565b5b6040519080825280601f01601f1916602001820160405280156113de5781602001600182028036833780820191505090505b509050816020820152919050565b600060148201519050919050565b6040518060a0016040528060008152602001600081526020016000815260200160608152602001606081525090565b828054828255906000526020600020908101928215611465579160200282015b82811115611464578251825591602001919060010190611449565b5b5090506114729190611476565b5090565b5b8082111561148f576000816000905550600101611477565b5090565b6000604051905090565b600080fd5b600080fd5b6000819050919050565b6114ba816114a7565b81146114c557600080fd5b50565b6000813590506114d7816114b1565b92915050565b6000602082840312156114f3576114f261149d565b5b6000611501848285016114c8565b91505092915050565b600073ffffffffffffffffffffffffffffffffffffffff82169050919050565b60006115358261150a565b9050919050565b6115458161152a565b82525050565b6000602082019050611560600083018461153c565b92915050565b600081519050919050565b600082825260208201905092915050565b6000819050602082019050919050565b600067ffffffffffffffff82169050919050565b6115af81611592565b82525050565b60006115c183836115a6565b60208301905092915050565b6000602082019050919050565b60006115e582611566565b6115ef8185611571565b93506115fa83611582565b8060005b8381101561162b57815161161288826115b5565b975061161d836115cd565b9250506001810190506115fe565b5085935050505092915050565b6000602082019050818103600083015261165281846115da565b905092915050565b61166381611592565b82525050565b600060208201905061167e600083018461165a565b92915050565b61168d81611592565b811461169857600080fd5b50565b6000813590506116aa81611684565b92915050565b6000602082840312156116c6576116c561149d565b5b60006116d48482850161169b565b91505092915050565b6116e6816114a7565b82525050565b600081519050919050565b600082825260208201905092915050565b60005b8381101561172657808201518184015260208101905061170b565b60008484015250505050565b6000601f19601f8301169050919050565b600061174e826116ec565b61175881856116f7565b9350611768818560208601611708565b61177181611732565b840191505092915050565b600060808201905061179160008301876116dd565b61179e60208301866116dd565b6117ab60408301856116dd565b81810360608301526117bd8184611743565b905095945050505050565b6000819050919050565b60006117ed6117e86117e38461150a565b6117c8565b61150a565b9050919050565b60006117ff826117d2565b9050919050565b6000611811826117f4565b9050919050565b61182181611806565b82525050565b600060208201905061183c6000830184611818565b92915050565b61184b8161152a565b811461185657600080fd5b50565b60008135905061186881611842565b92915050565b600080604083850312156118855761188461149d565b5b600061189385828601611859565b92505060206118a48582860161169b565b9150509250929050565b60008115159050919050565b6118c3816118ae565b82525050565b60006020820190506118de60008301846118ba565b92915050565b600080fd5b7f4e487b7100000000000000000000000000000000000000000000000000000000600052604160045260246000fd5b61192182611732565b810181811067ffffffffffffffff821117156119405761193f6118e9565b5b80604052505050565b6000611953611493565b905061195f8282611918565b919050565b600067ffffffffffffffff82111561197f5761197e6118e9565b5b602082029050602081019050919050565b600080fd5b60006119a86119a384611964565b611949565b905080838252602082019050602084028301858111156119cb576119ca611990565b5b835b818110156119f457806119e088826114c8565b8452602084019350506020810190506119cd565b5050509392505050565b600082601f830112611a1357611a126118e4565b5b8135611a23848260208601611995565b91505092915050565b600067ffffffffffffffff821115611a4757611a466118e9565b5b602082029050919050565b6000611a65611a6084611a2c565b611949565b90508060208402830185811115611a7f57611a7e611990565b5b835b81811015611aa85780611a9488826114c8565b845260208401935050602081019050611a81565b5050509392505050565b600082601f830112611ac757611ac66118e4565b5b6002611ad4848285611a52565b91505092915050565b600067ffffffffffffffff821115611af857611af76118e9565b5b602082029050919050565b6000611b16611b1184611add565b611949565b90508060408402830185811115611b3057611b2f611990565b5b835b81811015611b595780611b458882611ab2565b845260208401935050604081019050611b32565b5050509392505050565b600082601f830112611b7857611b776118e4565b5b6002611b85848285611b03565b91505092915050565b60008060008060006101408688031215611bab57611baa61149d565b5b6000611bb98882890161169b565b955050602086013567ffffffffffffffff811115611bda57611bd96114a2565b5b611be6888289016119fe565b9450506040611bf788828901611ab2565b9350506080611c0888828901611b63565b925050610100611c1a88828901611ab2565b9150509295509295909350565b611c30816114a7565b82525050565b600081519050919050565b600082825260208201905092915050565b6000819050602082019050919050565b6000611c6e8383611c27565b60208301905092915050565b6000602082019050919050565b6000611c9282611c36565b611c9c8185611c41565b9350611ca783611c52565b8060005b83811015611cd8578151611cbf8882611c62565b9750611cca83611c7a565b925050600181019050611cab565b5085935050505092915050565b600082825260208201905092915050565b6000611d01826116ec565b611d0b8185611ce5565b9350611d1b818560208601611708565b611d2481611732565b840191505092915050565b600060a083016000830151611d476000860182611c27565b506020830151611d5a6020860182611c27565b506040830151611d6d6040860182611c27565b5060608301518482036060860152611d858282611c87565b91505060808301518482036080860152611d9f8282611cf6565b9150508091505092915050565b60006020820190508181036000830152611dc68184611d2f565b905092915050565b600060208284031215611de457611de361149d565b5b6000611df284828501611859565b91505092915050565b6000602082019050611e1060008301846116dd565b92915050565b6000611e218261152a565b9050919050565b611e3181611e16565b8114611e3c57600080fd5b50565b600081359050611e4e81611e28565b92915050565b600080fd5b600080fd5b600080fd5b600067ffffffffffffffff821115611e7e57611e7d6118e9565b5b611e8782611732565b9050602081019050919050565b82818337600083830152505050565b6000611eb6611eb184611e63565b611949565b905082815260208101848484011115611ed257611ed1611e5e565b5b611edd848285611e94565b509392505050565b600082601f830112611efa57611ef96118e4565b5b8135611f0a848260208601611ea3565b91505092915050565b600060a08284031215611f2957611f28611e54565b5b611f3360a0611949565b90506000611f43848285016114c8565b6000830152506020611f57848285016114c8565b6020830152506040611f6b848285016114c8565b604083015250606082013567ffffffffffffffff811115611f8f57611f8e611e59565b5b611f9b848285016119fe565b606083015250608082013567ffffffffffffffff811115611fbf57611fbe611e59565b5b611fcb84828501611ee5565b60808301525092915050565b600080600060608486031215611ff057611fef61149d565b5b6000611ffe8682870161169b565b935050602061200f86828701611e3f565b925050604084013567ffffffffffffffff8111156120305761202f6114a2565b5b61203c86828701611f13565b9150509250925092565b7f4e487b7100000000000000000000000000000000000000000000000000000000600052602260045260246000fd5b6000600282049050600182168061208d57607f821691505b6020821081036120a05761209f612046565b5b50919050565b7f76616c696461746f72206973206e6f742073657420666f72207468697320726560008201527f7175657374206964000000000000000000000000000000000000000000000000602082015250565b60006121026028836116f7565b915061210d826120a6565b604082019050919050565b60006020820190508181036000830152612131816120f5565b9050919050565b7f7175657279206973206e6f742073657420666f7220746869732072657175657360008201527f7420696400000000000000000000000000000000000000000000000000000000602082015250565b60006121946024836116f7565b915061219f82612138565b604082019050919050565b600060208201905081810360008301526121c381612187565b9050919050565b600082825260208201905092915050565b60006121e682611c36565b6121f081856121ca565b93506121fb83611c52565b8060005b8381101561222c5781516122138882611c62565b975061221e83611c7a565b9250506001810190506121ff565b5085935050505092915050565b600060029050919050565b600081905092915050565b6000819050919050565b6000602082019050919050565b61226f81612239565b6122798184612244565b92506122848261224f565b8060005b838110156122b557815161229c8782611c62565b96506122a783612259565b925050600181019050612288565b505050505050565b600060029050919050565b600081905092915050565b6000819050919050565b600081905092915050565b6122f181612239565b6122fb81846122dd565b92506123068261224f565b8060005b8381101561233757815161231e8782611c62565b965061232983612259565b92505060018101905061230a565b505050505050565b600061234b83836122e8565b60408301905092915050565b6000602082019050919050565b61236d816122bd565b61237781846122c8565b9250612382826122d3565b8060005b838110156123b357815161239a878261233f565b96506123a583612357565b925050600181019050612386565b505050505050565b60008160001c9050919050565b6000819050919050565b60006123e56123e0836123bb565b6123c8565b9050919050565b600081549050919050565b60008190508160005260206000209050919050565b600061241882546123d2565b9050919050565b6000600182019050919050565b6000612437826123ec565b6124418185611c41565b935061244c836123f7565b8060005b83811015612484576124618261240c565b61246b8882611c62565b97506124768361241f565b925050600181019050612450565b5085935050505092915050565b60008190508160005260206000209050919050565b600081546124b381612075565b6124bd8186611ce5565b945060018216600081146124d857600181146124ee57612521565b60ff198316865281151560200286019350612521565b6124f785612491565b60005b83811015612519578154818901526001820191506020810190506124fa565b808801955050505b50505092915050565b600060a083016000808401549050612541816123d2565b61254e6000870182611c27565b506001840154905061255f816123d2565b61256c6020870182611c27565b506002840154905061257d816123d2565b61258a6040870182611c27565b506003840185830360608701526125a1838261242c565b9250506004840185830360808701526125ba83826124a6565b925050819250505092915050565b60006101408201905081810360008301526125e381886121db565b90506125f26020830187612266565b6125ff6060830186612364565b61260c60e0830185612266565b81810361012083015261261f818461252a565b90509695505050505050565b612634816118ae565b811461263f57600080fd5b50565b6000815190506126518161262b565b92915050565b60006020828403121561266d5761266c61149d565b5b600061267b84828501612642565b91505092915050565b7f70726f6f6620726573706f6e7365206973206e6f742076616c69640000000000600082015250565b60006126ba601b836116f7565b91506126c582612684565b602082019050919050565b600060208201905081810360008301526126e9816126ad565b9050919050565b7f4f776e61626c653a206e6577206f776e657220697320746865207a65726f206160008201527f6464726573730000000000000000000000000000000000000000000000000000602082015250565b600061274c6026836116f7565b9150612757826126f0565b604082019050919050565b6000602082019050818103600083015261277b8161273f565b9050919050565b60006020601f8301049050919050565b600082821b905092915050565b6000600883026127cf7fffffffffffffffffffffffffffffffffffffffffffffffffffffffffffffffff82612792565b6127d98683612792565b95508019841693508086168417925050509392505050565b600061280c612807612802846114a7565b6117c8565b6114a7565b9050919050565b6000819050919050565b612826836127f1565b61283a61283282612813565b84845461279f565b825550505050565b600090565b61284f612842565b61285a81848461281d565b505050565b5b8181101561287e57612873600082612847565b600181019050612860565b5050565b601f8211156128c35761289481612491565b61289d84612782565b810160208510156128ac578190505b6128c06128b885612782565b83018261285f565b50505b505050565b600082821c905092915050565b60006128e6600019846008026128c8565b1980831691505092915050565b60006128ff83836128d5565b9150826002028217905092915050565b612918826116ec565b67ffffffffffffffff811115612931576129306118e9565b5b61293b8254612075565b612946828285612882565b600060209050601f8311600181146129795760008415612967578287015190505b61297185826128f3565b8655506129d9565b601f19841661298786612491565b60005b828110156129af5784890151825560018201915060208501945060208101905061298a565b868310156129cc57848901516129c8601f8916826128d5565b8355505b6001600288020188555050505b505050505050565b7f4f776e61626c653a2063616c6c6572206973206e6f7420746865206f776e6572600082015250565b6000612a176020836116f7565b9150612a22826129e1565b602082019050919050565b60006020820190508181036000830152612a4681612a0a565b9050919050565b600081519050612a5c816114b1565b92915050565b600060208284031215612a7857612a7761149d565b5b6000612a8684828501612a4d565b91505092915050565b7f4e487b7100000000000000000000000000000000000000000000000000000000600052603260045260246000fd5b7f6164647265737320696e2070726f6f66206973206e6f7420612073656e64657260008201527f2061646472657373000000000000000000000000000000000000000000000000602082015250565b6000612b1a6028836116f7565b9150612b2582612abe565b604082019050919050565b60006020820190508181036000830152612b4981612b0d565b9050919050565b7f70726f6f662063616e206e6f74206265207375626d6974746564206d6f72652060008201527f7468616e206f6e63650000000000000000000000000000000000000000000000602082015250565b6000612bac6029836116f7565b9150612bb782612b50565b604082019050919050565b60006020820190508181036000830152612bdb81612b9f565b905091905056fea26469706673582212205644caa13bec5b4deb86313ab10cb745396d9df30de39836639d5945133a2a7064736f6c63430008110033",
  "immutableReferences": {},
  "source": "// SPDX-License-Identifier: MIT\npragma solidity >=0.4.22 <0.9.0;\n\nimport \"./MoviesNFT.sol\";\nimport \"./lib/GenesisUtils.sol\";\nimport \"./interfaces/ICircuitValidator.sol\";\nimport \"./verifiers/ZKPVerifier.sol\";\n\ncontract RaterVerifier is ZKPVerifier {\n    address private _moviesNftAddress;\n    uint64 public constant TRANSFER_REQUEST_ID = 1;\n\n    mapping(uint256 => address) public idToAddress;\n    mapping(address => uint256) public addressToId;\n\n    constructor(address moviesNftContract) {\n        _moviesNftAddress = moviesNftContract;\n    }\n\n    function _beforeProofSubmit(\n        uint64, /* requestId */\n        uint256[] memory inputs,\n        ICircuitValidator validator\n    ) internal view override {\n        // check that challenge input of the proof is equal to the msg.sender\n        address addr = GenesisUtils.int256ToAddress(\n            inputs[validator.getChallengeInputIndex()]\n        );\n        require(\n            _msgSender() == addr,\n            \"address in proof is not a sender address\"\n        );\n    }\n\n    function _afterProofSubmit(\n        uint64 requestId,\n        uint256[] memory inputs,\n        ICircuitValidator validator\n    ) internal override {\n        require(\n            requestId == TRANSFER_REQUEST_ID && addressToId[_msgSender()] == 0,\n            \"proof can not be submitted more than once\"\n        );\n\n        uint256 id = inputs[validator.getChallengeInputIndex()];\n        // execute the airdrop (from example)\n        // Casting of Rating for the movie should be done here!\n        if (idToAddress[id] == address(0)) {\n            // super._mint(_msgSender(), TOKEN_AMOUNT_FOR_AIRDROP_PER_ID);\n            addressToId[_msgSender()] = id;\n            idToAddress[id] = _msgSender();\n        }\n    }\n\n    // function _beforeTokenTransfer(\n    //     address, /* from */\n    //     address to,\n    //     uint256 /* amount */\n    // ) internal view override {\n    //     require(\n    //         proofs[to][TRANSFER_REQUEST_ID] == true,\n    //         \"only identities who provided proof are allowed to receive tokens\"\n    //     );\n    // }\n}\n",
  "sourcePath": "/Users/sagaranand/Documents/workspace-open/chainlink-2022/web3-imdb/_backend/contracts/RaterVerifier.sol",
  "compiler": {
    "name": "solc",
    "version": "0.8.17+commit.8df45f5f.Emscripten.clang"
  },
  "schemaVersion": "3.4.10",
  "updatedAt": "2022-11-18T22:06:53.295Z",
  "networkType": "ethereum",
  "devdoc": {
    "kind": "dev",
    "methods": {
      "owner()": {
        "details": "Returns the address of the current owner."
      },
      "renounceOwnership()": {
        "details": "Leaves the contract without owner. It will not be possible to call `onlyOwner` functions anymore. Can only be called by the current owner. NOTE: Renouncing ownership will leave the contract without an owner, thereby removing any functionality that is only available to the owner."
      },
      "transferOwnership(address)": {
        "details": "Transfers ownership of the contract to a new account (`newOwner`). Can only be called by the current owner."
      }
    },
    "version": 1
  },
  "userdoc": {
    "kind": "user",
    "methods": {},
    "version": 1
  }
}